:100000000C945A000C9482000C9482000C94820090
:100010000C9482000C9482000C9482000C94820058
:100020000C9482000C9482000C9482000C94820048
:100030000C9482000C9482000C9482000C94820038
:100040000C9426020C9482000C94CB050C940E06A2
:100050000C9482000C9482000C9482000C94820018
:100060000C9482000C948200000000070002010042
:100070000003040600000000000000000102040864
:100080001020408001020408102001020408102002
:10009000040404040404040402020202020203032E
:1000A0000303030300000000250028002B00F900D3
:1000B000E401CA0611241FBECFEFD8E0DEBFCDBFDA
:1000C00011E0A0E0B1E0E8E8F9E102C005900D928E
:1000D000A432B107D9F722E0A4E2B1E001C01D9239
:1000E000AA33B207E1F710E0C4EBD0E004C02297D6
:1000F000FE010E94BE0CCE3AD107C9F70E942C0522
:100100000C94780A0C9400006FEF70E084E291E0A8
:100110000C94870180912A010C94B7020E948A00F6
:100120008B97BC01882777FD8095982F0E947F0BC5
:1001300026EF31EA41EB5EE30E94330C0E944C0B48
:10014000CB0108950F931F93CF93DF9300D000D07E
:10015000CDB7DEB78C010E948E00BC01882777FDE9
:100160008095982F0E947F0B9B01AC01F801608362
:1001700071838283938364817581882777FD80955D
:10018000982F29833A834B835C830E947F0B2981BC
:100190003A814B815C810E947B0AF80166837783F8
:1001A000808791870F900F900F900F90DF91CF91E4
:1001B0001F910F910895CF93DF93EC01CB01BA010A
:1001C0000E944C0B7D836C83CE010E94A2004E8165
:1001D0005F816885798522E030E084E291E0DF91FB
:1001E000CF910C943201FC016681778180859185E5
:1001F000089529E030E044E050E063E070E084E2FC
:1002000091E00C940301FC0171836083538342836A
:10021000358324830895CF93DF93EC0160E08881D8
:100220000E94FD0261E08A81DF91CF910C94FD0272
:10023000CF93DF93EC0161E088810E94FD0260E0D2
:100240008A81DF91CF910C94FD02CF93DF93EC0173
:1002500060E088810E94FD0260E08A81DF91CF9199
:100260000C94FD02CF92DF92EF92FF920F931F93B7
:10027000CF93DF93EC016A017B018901B9018827E3
:1002800077FD8095982F0E947F0B9B01AC01C701E1
:10029000B6010E94E00A1816DCF066277727601B7B
:1002A000710B882777FD8095982F0E947F0BA701FF
:1002B00096010E94E00A18165CF0CE01DF91CF9102
:1002C0001F910F91FF90EF90DF90CF900C9425013C
:1002D00020E030E0A901C701B6010E942F0C1816DA
:1002E0005CF4CE01DF91CF911F910F91FF90EF90C1
:1002F000DF90CF900C941801CE01DF91CF911F9128
:100300000F91FF90EF90DF90CF900C940B016F3F17
:10031000710509F034F46A3A71052CF46AEA70E068
:1003200002C06FEF70E0FC0184810C94FD020F931A
:100330001F9340E855E260E070E080E991E00E94A0
:10034000490661E070E08AE391E00E94B90900E0AB
:1003500010E024E333E440E050E0BA018AE391E0A6
:100360000E94F30840E855E260E070E080E991E027
:100370001F910F910C9449068CE291E00E94F300CA
:10038000AB01BC0122E030E080E991E00E941A0557
:100390000E94700228EE33E040E050E00E949A0C88
:1003A000209336013093370140933801509339013F
:1003B00040E050E064EB72E48CE291E00E94DB00EC
:1003C0008AE391E00C942007AF92BF92CF92DF9224
:1003D000EF92FF920F931F93A0907701B090780156
:1003E000C0907901D0907A01E0900001F090010175
:1003F00000910201109103011F921F9280917601DA
:100400008F93809175018F93809174018F93809168
:1004100073018F9323E831E04BE751E06FE771E020
:100420008AE391E00E940B0A0F900F900F900F90BB
:100430000F900F908CE291E01F910F91FF90EF9041
:10044000DF90CF90BF90AF900C9484001F920F92DA
:100450000FB60F9211242F933F938F939F93AF93D7
:10046000BF938091880190918901A0918A01B091F8
:100470008B013091870123E0230F2D3720F4019663
:10048000A11DB11D05C026E8230F0296A11DB11DB7
:10049000209387018093880190938901A0938A011A
:1004A000B0938B0180918C0190918D01A0918E0170
:1004B000B0918F010196A11DB11D80938C01909385
:1004C0008D01A0938E01B0938F01BF91AF919F9149
:1004D0008F913F912F910F900FBE0F901F90189505
:1004E0002FB7F894609188017091890180918A01F9
:1004F00090918B012FBF0895789484B5826084BD5C
:1005000084B5816084BD85B5826085BD85B5816017
:1005100085BDEEE6F0E0808181608083E1E8F0E077
:100520001082808182608083808181608083E0E8A6
:10053000F0E0808181608083E1EBF0E08081846085
:100540008083E0EBF0E0808181608083EAE7F0E087
:1005500080818460808380818260808380818160EB
:1005600080838081806880831092C10008958E30DE
:1005700008F08E5087702091040190E4299F90012B
:100580001124822B80937C0080917A008064809378
:100590007A0080917A0086FDFCCF809178002091CE
:1005A000790090E0922B0895833081F028F4813017
:1005B00099F08230A1F008958630A9F08730B9F023
:1005C0008430D1F4809180008F7D03C080918000C1
:1005D0008F7780938000089584B58F7702C084B5AB
:1005E0008F7D84BD08958091B0008F7703C0809186
:1005F000B0008F7D8093B00008950F931F93CF9329
:10060000DF931F92CDB7DEB7282F30E0F901E8590C
:10061000FF4F8491F901E458FF4F1491F901E0571D
:10062000FF4F04910023C9F0882321F069830E94C1
:10063000D4026981E02FF0E0EE0FFF1FEC55FF4F71
:10064000A591B4919FB7F8948C91611103C0109556
:10065000812301C0812B8C939FBF0F90DF91CF919D
:100660001F910F910895CF92DF92EF92FF920F9317
:100670001F93CF93DF936C017A01EB01E60EF71E17
:1006800000E010E0CE15DF0561F06991D601ED9133
:10069000FC910190F081E02DC6010995080F191F0A
:1006A000F1CFC801DF91CF911F910F91FF90EF9093
:1006B000DF90CF9008956115710581F0DB010D90F9
:1006C0000020E9F7AD0141505109461B570BDC01F1
:1006D000ED91FC910280F381E02D099480E090E09F
:1006E0000895DC01ED91FC910190F081E02D0994D9
:1006F0000F931F93CF93DF93EC016DE00E94710382
:100700008C016AE0CE010E947103800F911FDF917E
:10071000CF911F910F9108958F929F92AF92BF92A8
:10072000CF92DF92EF92FF920F931F93CF93DF93BD
:10073000CDB7DEB7A1970FB6F894DEBF0FBECDBF21
:100740007C01C42EE52FCB01D22E19A221E02D155C
:1007500010F02AE0D22E8E010F5D1F4F8D2C912CB0
:10076000A12CB12C6C2D7E2FA50194010E949A0C16
:100770008C2DD29E80191124015011098A3014F455
:10078000805D01C0895CF801808321153105410538
:10079000510521F0C22EE32FCA01E4CFB801C701F1
:1007A0000E945B03A1960FB6F894DEBF0FBECDBFCB
:1007B000DF91CF911F910F91FF90EF90DF90CF903D
:1007C000BF90AF909F908F900895CF92DF92EF925D
:1007D000FF920F931F93CF93DF93EC016A017B018C
:1007E0002115310579F4E881F9810190F081E02D3E
:1007F000642FDF91CF911F910F91FF90EF90DF90C9
:10080000CF9009942A303105E9F477FF1AC06DE2E0
:100810000E9471038C0144275527BA014C195D09C8
:100820006E097F092AE0CE010E948C03800F911F80
:10083000DF91CF911F910F91FF90EF90DF90CF90BC
:1008400008952AE0B701A601CE01DF91CF911F9153
:100850000F91FF90EF90DF90CF900C948C034F920C
:100860005F926F927F928F929F92AF92BF92CF9240
:10087000DF92EF92FF920F931F93CF93DF93EC01E0
:100880006A017B01B22E9A01AB01C701B6010E9439
:10089000960C882319F065E071E027C02601370126
:1008A000E89477F82FEF3FEF4FE75FE7C301B2011E
:1008B0000E94960C81110DC02FEF3FEF4FE75FE7CD
:1008C000C301B2010E94E00A18161CF469E071E04D
:1008D0000CC02FEF3FEF4FE75FE4C701B6010E9466
:1008E0002F0C1816ACF46DE071E0CE01DF91CF91C2
:1008F0001F910F91FF90EF90DF90CF90BF90AF903E
:100900009F908F907F906F905F904F900C945B03BF
:100910002FEF3FEF4FE75FECC701B6010E94E00AFF
:1009200087FDE1CF20E030E0A901C701B6010E94B8
:10093000E00A87FF0AC06DE2CE010E9471038C01BC
:10094000F7FAF094F7F8F09402C000E010E0A12C60
:1009500060E070E080E09FE3AB1441F020E030E025
:1009600040E251E40E94E40AA394F6CF9B01AC015B
:10097000C701B6010E947C0A6B017C010E94510BE9
:100980002B013C010E947D0B9B01AC01C701B6010C
:100990000E947B0A6B017C012AE0B301A201CE0117
:1009A0000E948C03080F191FBB2039F061E171E030
:1009B000CE010E945B03080F191F7B2C772041F1A9
:1009C00020E030E040E251E4C701B6010E94330C60
:1009D0006B017C010E944C0B4B01AA2497FCA09454
:1009E000BA2C2AE030E0B501A401CE010E94E50353
:1009F000080F191FC501B4010E947F0B9B01AC01B8
:100A0000C701B6010E947B0A6B017C017A94D6CFA4
:100A1000C801DF91CF911F910F91FF90EF90DF9070
:100A2000CF90BF90AF909F908F907F906F905F908E
:100A30004F9008950F931F93CF93DF93EC010E9483
:100A40002F048C01CE010E947803800F911FDF914B
:100A5000CF911F910F9108950E947C020E949701EF
:100A6000C5E0D6E00E94BC012097E1F30E94050694
:100A7000F9CFFC0124853585F901E05CFF4F8081C9
:100A80009181329620813181821B930B8F7399273C
:100A90000895FC0184859585FC01E05CFF4F408151
:100AA00051813296208131814217530741F00190E4
:100AB000F081E02DE80FF91F808190E008958FEF1D
:100AC0009FEF0895FC0184859585FC01E05CFF4F54
:100AD000408151813296208131814217530779F04C
:100AE000A081B181A80FB91F8C91208131812F5F26
:100AF0003F4F2F7333273183208390E008958FEF8A
:100B00009FEF0895FC0181A1882329F0A489B5896C
:100B10008C9186FFFBCF11A20895CF93DF93FC0148
:100B200026853785D901A05CBF4F8D919C91119787
:100B300001968F739927E901CE5BDF4F4881598178
:100B400084179507D9F30D90BC91A02DA20FB31F68
:100B50006C93A685B785A05CBF4F11969C938E932E
:100B6000A689B7892C9181E090E0078C02C0880F9C
:100B7000991F0A94E2F7282B2C9381E081A3048823
:100B8000F589E02D80818064808381E090E0DF91B1
:100B9000CF91089508951F920F920FB60F921124CE
:100BA0002F933F934F938F939F93EF93FF93809156
:100BB000C00082FD1CC04091C60080913602909119
:100BC000370201968F7399272091380230913902AC
:100BD0008217930771F0E0913602F0913702EA50E4
:100BE000FE4F4083909337028093360202C080917B
:100BF000C600FF91EF919F918F914F913F912F915F
:100C00000F900FBE0F901F90189580E991E00E9401
:100C10003905892B11F00C94CA0508951F920F9283
:100C20000FB60F9211242F933F938F939F93EF93BF
:100C3000FF932091F2013091F3018091F4019091A2
:100C4000F5012817390731F48091C1008F7D809319
:100C5000C10014C0E091F401F091F501EE54FE4F93
:100C600020818091F4019091F50101968F7399276D
:100C70009093F5018093F4012093C600FF91EF91CA
:100C80009F918F913F912F910F900FBE0F901F90CA
:100C90001895CF92DF92EF92FF92CF93DF93EC0102
:100CA0006A017B01411581EE580761057105F9F074
:100CB000EC89FD8981E090E008A002C0880F991FAF
:100CC0000A94E2F7808360E079E08DE390E0A70189
:100CD00096010E949A0C21503109410951095695FB
:100CE000479537952795211580E1380798F0EC89CD
:100CF000FD89108260E874E88EE190E0A70196011A
:100D00000E949A0C21503109410951095695479585
:100D100037952795E889F9893083EA89FB8920830B
:100D200019A2EE89FF89408181E090E09C010C8C42
:100D300002C0220F331F0A94E2F7422B4083EE8950
:100D4000FF8940819C010D8C02C0220F331F0A9441
:100D5000E2F7422B4083EE89FF8940819C010E8C93
:100D600002C0220F331F0A94E2F7422B4083EE8920
:100D7000FF8920810F8C02C0880F991F0A94E2F727
:100D8000809582238083DF91CF91FF90EF90DF9059
:100D9000CF900895109293011092920188EE93E003
:100DA000A0E0B0E08093940190939501A093960108
:100DB000B093970187E191E0909391018093900126
:100DC00086EF91E090939D0180939C0182EB91E0EE
:100DD00090939F0180939E0185EC90E09093A101F8
:100DE0008093A00184EC90E09093A3018093A201F2
:100DF00080EC90E09093A5018093A40181EC90E0B9
:100E00009093A7018093A60182EC90E09093A901B2
:100E10008093A80186EC90E09093AB018093AA01A7
:100E200084E08093AC0183E08093AD0187E0809300
:100E3000AE0185E08093AF0181E08093B001089519
:100E40002F923F924F925F926F927F928F929F92DA
:100E5000AF92BF92CF92DF92EF92FF920F931F93C8
:100E6000CF93DF93CDB7DEB72B970FB6F894DEBFE5
:100E70000FBECDBF9B878A87DC01D896BC91B98312
:100E8000B11102C01982E2C00E9470026A837B83A2
:100E90008C839D83EA85FB8580A191A1A2A1B3A14A
:100EA0004A815B816C817D81481B590B6A0B7B0BEE
:100EB00084A595A5A6A5B7A5481759076A077B0776
:100EC00008F3028CF38DE02D80809180A280B380A6
:100ED000AA85BB855E96ED91FC915F97A501940173
:100EE00060817181828193810E947B0A2B013C0188
:100EF000EA85FB8520893189428953890E94330C18
:100F0000AA85BB8594962D913D914D915C919797C3
:100F10000E947C0A6B017C01EA85FB8564A375A3B2
:100F200086A397A324A835A806A917A99101A8010B
:100F30000E942F0C18161CF4C101D80118C0AA85F4
:100F4000BB85D0968D919D910D90BC91A02D8E83E7
:100F50009F83A887B9879C01AD01C701B6010E9494
:100F6000E00A87FF0AC08E819F81A885B985EA853E
:100F7000FB8584A395A3A6A3B7A3AA85BB851C96CE
:100F80002D913D914D915C911F97C301B2010E943B
:100F9000330CEA85FB8524A135A146A157A10E9407
:100FA0007C0A6B017C01AA85BB8598962D913D91A9
:100FB0004D915C919B97C501B4010E947B0AEA8523
:100FC000FB8524893589468957890E94330C9B010A
:100FD000AC01C701B6010E947B0A6B017C01910143
:100FE000A8010E942F0C1816BCF0AA85BB85D096CC
:100FF0002C90D097D1963C90D197D2960C91D297C5
:10100000D3961C919101A801B601C7010E94E00A84
:1010100087FD02C016018701AA85BB855C96ED910C
:10102000FC915D97C101D80180839183A283B38332
:10103000EA85FB8580A691A6A2A6B3A68A819B819C
:10104000AC81BD8180A391A3A2A3B3A389812B9678
:101050000FB6F894DEBF0FBECDBFDF91CF911F91C9
:101060000F91FF90EF90DF90CF90BF90AF909F9047
:101070008F907F906F905F904F903F902F9008954A
:101080002F923F924F925F926F927F928F929F9298
:10109000AF92BF92CF92DF92EF92FF920F931F9386
:1010A000CF93DF9300D000D0CDB7DEB71C012A016B
:1010B0003B014801590120E030E0A901C301B20120
:1010C0000E94E00A87FD78C020E030E0A901C50158
:1010D000B4010E94E00A87FD6FC020E030E0A90162
:1010E000C701B6010E94E00A87FD66C0F101408297
:1010F00051826282738284829582A682B782C08680
:10110000D186E286F38664A575A586A597A50E947B
:101110007D0B20E030E04AE754E40E94E40A698352
:101120007A838B839C83F101448655866686778615
:101130009B01AC01C501B4010E94330C4B015C0161
:10114000F101608B718B828B938B29813A814B816A
:101150005C81C701B6010E94E40A6B017C01F101C8
:10116000648B758B868B978B808D918D019721F584
:10117000A301920160E070E0CB010E947B0AF101C3
:101180006487758786879787A501940160E070E082
:10119000CB010E947B0AF101608B718B828B938B58
:1011A000A701960160E070E0CB010E947B0AF1018B
:1011B000648B758B868B978B0F900F900F900F9091
:1011C000DF91CF911F910F91FF90EF90DF90CF9023
:1011D000BF90AF909F908F907F906F905F904F9057
:1011E0003F902F9008952F923F924F925F926F926F
:1011F0007F928F929F92AF92BF92CF92DF92EF92A7
:10120000FF920F931F93CF93DF93EC016A017B0151
:1012100048015901A9019801C701B6010E942F0C8C
:1012200087FF4EC0C8AAD9AAEAAAFBAA8CAA9DAA7F
:10123000AEAABFAA88AD882309F442C02C8C3D8C8D
:10124000F1014080518062807380A5019401C30147
:10125000B2010E942F0C181634F4F10180829182A1
:10126000A282B3820DC0A7019601C301B2010E9400
:10127000E00A87FF05C0F101C082D182E282F382D9
:101280008CA09DA0AEA0BFA0CCA8DDA8EEA8FFA812
:10129000A7019601C501B4010E942F0C181664F035
:1012A000C8A8D9A8EAA8FBA8A7019601C501B4015E
:1012B0000E94E00A87FF04C0CCA2DDA2EEA2FFA23A
:1012C000DF91CF911F910F91FF90EF90DF90CF9022
:1012D000BF90AF909F908F907F906F905F904F9056
:1012E0003F902F9008958F929F92AF92BF92CF928E
:1012F000DF92EF92FF92CF93DF93EC01EC8DFD8DA7
:10130000C080D180E280F380CCA2DDA2EEA2FFA259
:10131000EA8DFB8D80819181A281B38188A799A7F5
:10132000AAA7BBA78CA89DA8AEA8BFA8A501940199
:10133000C701B6010E942F0C181664F088A899A85E
:10134000AAA8BBA8A5019401C701B6010E94E00AA2
:1013500087FF04C08CA29DA2AEA2BFA2DF91CF9155
:10136000FF90EF90DF90CF90BF90AF909F908F90C5
:1013700008951F93CF93DF93EC0111E06130710565
:1013800009F010E088AD91E08927181303C0CE0161
:101390000E94730918AFDF91CF911F9108950F93A9
:1013A0001F93CF93DF93EC018B0188AD882361F10C
:1013B000888D998D6817790739F12C853D854E8583
:1013C0005F8560E070E0CB010E947B0A6C877D87BF
:1013D0008E879F87288939894A895B8960E070E018
:1013E000CB010E947B0A688B798B8A8B9B8B2C8923
:1013F0003D894E895F8960E070E0CB010E947B0AE5
:101400006C8B7D8B8E8B9F8B198F088FDF91CF918B
:101410001F910F9108954F925F926F927F928F92DA
:101420009F92AF92BF92CF92DF92EF92FF920F9373
:101430001F93CF93DF9300D000D0CDB7DEB74C0120
:1014400027013801A982BA82CB82DC82FC01558F48
:10145000448F738F628F378F268F10AE10AA11AA18
:1014600012AA13AA80E090E0AFE7B3E484AB95AB97
:10147000A6ABB7AB84E690E0A0E0B0E084A795A768
:10148000A6A7B7A76B8D7C8DC4010E94CF09CF881A
:10149000D88CE98CFA8C09811A812B813C81B301AB
:1014A000A201C4010E9440080E947002F40144A4F9
:1014B00055A466A477A4641975098609970960A3E1
:1014C00071A382A393A30F900F900F900F90DF91C1
:1014D000CF911F910F91FF90EF90DF90CF90BF9031
:1014E000AF909F908F907F906F905F904F900895F6
:1014F000F8940C94C20C5058BB27AA270ED075C183
:1015000066D130F06BD120F031F49F3F11F41EF41E
:101510005BC10EF4E095E7FB51C1E92F77D180F371
:10152000BA17620773078407950718F071F49EF5E0
:101530008FC10EF4E0950B2EBA2FA02D0B01B9012F
:1015400090010C01CA01A0011124FF27591B99F039
:10155000593F50F4503E68F11A16F040A22F232F45
:10156000342F4427585FF3CF469537952795A79595
:10157000F0405395C9F77EF41F16BA0B620B730B3C
:10158000840BBAF09150A1F0FF0FBB1F661F771FAD
:10159000881FC2F70EC0BA0F621F731F841F48F462
:1015A000879577956795B795F7959E3F08F0B3CFE8
:1015B0009395880F08F09927EE0F979587950895D2
:1015C000D9D008F481E008950CD00FC107D140F0C4
:1015D000FED030F021F45F3F19F0F0C0511139C155
:1015E000F3C014D198F39923C9F35523B1F3951B94
:1015F000550BBB27AA2762177307840738F09F5F34
:101600005F4F220F331F441FAA1FA9F333D00E2EA2
:101610003AF0E0E830D091505040E695001CCAF70F
:1016200029D0FE2F27D0660F771F881FBB1F2617D4
:1016300037074807AB07B0E809F0BB0B802DBF01A7
:10164000FF2793585F4F2AF09E3F510568F0B6C0C0
:1016500000C15F3FECF3983EDCF386957795679584
:10166000B795F7959F5FC9F7880F911D9695879558
:1016700097F90895E1E0660F771F881FBB1F621777
:1016800073078407BA0720F0621B730B840BBA0B35
:10169000EE1F88F7E095089504D06894B111D9C081
:1016A0000895BCD088F09F5790F0B92F9927B75173
:1016B000A0F0D1F0660F771F881F991F1AF0BA9516
:1016C000C9F712C0B13081F0C3D0B1E00895C0C0F5
:1016D000672F782F8827B85F39F0B93FCCF386950C
:1016E00077956795B395D9F73EF490958095709569
:1016F00061957F4F8F4F9F4F0895E89409C097FBE6
:101700003EF490958095709561957F4F8F4F9F4FD8
:101710009923A9F0F92F96E9BB279395F69587951C
:1017200077956795B795F111F8CFFAF4BB0F11F4DF
:1017300060FF1BC06F5F7F4F8F4F9F4F16C0882386
:1017400011F096E911C0772321F09EE8872F762FBC
:1017500005C0662371F096E8862F70E060E02AF0FD
:101760009A95660F771F881FDAF7880F96958795E9
:1017700097F90895990F0008550FAA0BE0E8FEEFBE
:1017800016161706E807F907C0F012161306E40745
:10179000F50798F0621B730B840B950B39F40A263E
:1017A00061F0232B242B252B21F408950A2609F41C
:1017B000A140A6958FEF811D811D089597F99F6720
:1017C00080E870E060E008959FEF80EC08950024C9
:1017D0000A941616170618060906089500240A9496
:1017E00012161306140605060895092E0394000C1C
:1017F00011F4882352F0BB0F40F4BF2B11F460FFAB
:1018000004C06F5F7F4F8F4F9F4F089557FD9058D3
:10181000440F551F59F05F3F71F04795880F97FBB4
:10182000991F61F09F3F79F087950895121613066E
:101830001406551FF2CF4695F1DF08C0161617069D
:101840001806991FF1CF86957105610508940895D2
:10185000E894BB2766277727CB0197F908958ADF9D
:1018600008F48FEF08950BD0C0CFB1DF28F0B6DFBA
:1018700018F0952309F0A2CFA7CF1124EACFC6DF35
:10188000A0F3959FD1F3950F50E0551F629FF00193
:10189000729FBB27F00DB11D639FAA27F00DB11DEC
:1018A000AA1F649F6627B00DA11D661F829F222775
:1018B000B00DA11D621F739FB00DA11D621F839FFC
:1018C000A00D611D221F749F3327A00D611D231FD2
:1018D000849F600D211D822F762F6A2F11249F5720
:1018E00050408AF0E1F088234AF0EE0FFF1FBB1F43
:1018F000661F771F881F91505040A9F79E3F5105E2
:1019000070F05CCFA6CF5F3FECF3983EDCF386959A
:1019100077956795B795F795E7959F5FC1F7FE2B8C
:10192000880F911D9695879597F9089523DF880B69
:10193000990B0895A1E21A2EAA1BBB1BFD010DC035
:10194000AA1FBB1FEE1FFF1FA217B307E407F5076F
:1019500020F0A21BB30BE40BF50B661F771F881F4B
:10196000991F1A9469F760957095809590959B01E1
:10197000AC01BD01CF010895EE0FFF1F0590F4915A
:08198000E02D0994F894FFCF5B
:1019880000002041016E616E00696E66006F766628
:10199800002E00000000008D05330339056205495B
:0419A80005820500AF
:00000001FF
