:100000000C945A000C9482000C9482000C94820090
:100010000C9482000C9482000C9482000C94820058
:100020000C9482000C9482000C9482000C94820048
:100030000C9482000C9482000C9482000C94820038
:100040000C94BF020C9482000C94AF060C94F20640
:100050000C9482000C9482000C9482000C94820018
:100060000C9482000C948200000000070002010042
:100070000003040600000000000000000102040864
:100080001020408001020408102001020408102002
:10009000040404040404040402020202020203032E
:1000A0000303030300000000250028002B000501C6
:1000B0007D02AE0711241FBECFEFD8E0DEBFCDBF5B
:1000C00011E0A0E0B1E0E0E1F9E102C005900D929D
:1000D000AA33B107D9F722E0AAE3B1E001C01D922B
:1000E000A435B207E1F710E0C4EBD0E004C02297DA
:1000F000FE010E94820CCE3AD107C9F70E94100679
:100100000C943C0A0C9400009B01AC010E94F70B7C
:1001100008956FEF70E08AE391E00C94960180916E
:1001200040010C9499030E948F008B97BC01882793
:1001300077FD8095982F0E94430B26EF31EA41EB23
:100140005EE30E94F70B0E94100BCB0108950F9302
:100150001F93CF93DF9300D000D0CDB7DEB78C01D3
:100160000E949300BC01882777FD8095982F0E94FC
:10017000430B9B01AC01F8016083718382839383FD
:1001800064817581882777FD8095982F29833A832C
:100190004B835C830E94430B29813A814B815C81B4
:1001A0000E943F0AF80166837783808791870F90CA
:1001B0000F900F900F90DF91CF911F910F910895A5
:1001C0000F931F93CF93DF93EC01CB01BA010E94F1
:1001D000100B7D836C83CE010E94A7004E815F814E
:1001E0006885798500E010E020E03FE38AE391E054
:1001F0000E943E01DF91CF911F910F910895FC0164
:100200006681778180859185089529E030E044E01A
:1002100050E063E070E08AE391E00C940F01FC0190
:100220007183608353834283358324830895CF93FE
:10023000DF93EC0160E088810E94DF0361E08A8146
:10024000DF91CF910C94DF03CF93DF93EC0161E05A
:1002500088810E94DF0360E08A81DF91CF910C9456
:10026000DF03CF93DF93EC0160E088810E94DF031E
:1002700060E08A81DF91CF910C94DF038F929F928F
:10028000AF92BF92CF92DF92EF92FF920F931F93A4
:10029000CF93DF93EC016A017B0148015901A90169
:1002A0009801C701B6010E94A40A1816C4F0C5013E
:1002B000B4019058A70196010E94A40A18167CF078
:1002C000CE01DF91CF911F910F91FF90EF90DF90C2
:1002D000CF90BF90AF909F908F900C94310120E011
:1002E00030E0A901C701B6010E94F30B18167CF497
:1002F000CE01DF91CF911F910F91FF90EF90DF9092
:10030000CF90BF90AF909F908F900C942401CE011E
:10031000DF91CF911F910F91FF90EF90DF90CF90E1
:10032000BF90AF909F908F900C9417016F3F710515
:1003300009F034F46A3A71052CF46AEA70E002C0FC
:100340006FEF70E0FC0184810C94DF030F931F9327
:1003500040E855E260E070E08AEA91E00E942D07F3
:1003600061E070E080E591E00E947D0900E010E02E
:1003700024E333E440E050E0BA0180E591E00E94DC
:10038000B70840E855E260E070E08AEA91E01F912A
:100390000F910C942D070E94090328EE33E040E0F2
:1003A00050E00E945E0C20934C0130934D0140932D
:1003B0004E0150934F0140E050E0BA0182E491E0D9
:1003C0000E94E00060EA7FE080E090E00E94380355
:1003D0001092990110929A0110929B0110929C0127
:1003E000209108013091090140910A0150910B01BF
:1003F0006091990170919A0180919B0190919C016B
:100400000E94A40A18160CF477C06DE071E08AEA25
:1004100091E00E94530482E491E00E94FF00AB014E
:10042000BC0122E030E08AEA91E00E94FE052091C2
:1004300008013091090140910A0150910B0160912E
:10044000990170919A0180919B0190919C010E9469
:10045000A80A0E94840020E030E040E253E40E94B9
:10046000F70B20E030E040E251E40E94400A609344
:100470009D0170939E0180939F019093A00165E17F
:1004800071E08AEA91E00E94530440919D015091ED
:100490009E0160919F017091A00122E030E08AEA04
:1004A00091E00E94FE0540919D0150919E01609156
:1004B0009F017091A00182E491E00E94E00060ED54
:1004C00077E080E090E00E94380320E030E040E8F0
:1004D0005FE36091990170919A0180919B019091E5
:1004E0009C010E94400A6093990170939A01809345
:1004F0009B0190939C0174CF0895AF92BF92CF92CD
:10050000DF92EF92FF920F931F93A0900001B090A3
:100510000101C0900201D0900301E0900401F0902D
:10052000050100910601109107011F921F92809111
:100530008C018F9380918B018F9380918A018F938F
:10054000809189018F9325E931E04DE851E061E91F
:1005500071E080E591E00E94CF090F900F900F901D
:100560000F900F900F9082E491E01F910F91FF90F8
:10057000EF90DF90CF90BF90AF900C9489001F92C6
:100580000F920FB60F9211242F933F938F939F9347
:10059000AF93BF938091A2019091A301A091A40178
:1005A000B091A5013091A10123E0230F2D3720F454
:1005B0000196A11DB11D05C026E8230F0296A11DBD
:1005C000B11D2093A1018093A2019093A301A09358
:1005D000A401B093A5018091A6019091A701A091DB
:1005E000A801B091A9010196A11DB11D8093A6019A
:1005F0009093A701A093A801B093A901BF91AF91D7
:100600009F918F913F912F910F900FBE0F901F9050
:1006100018952FB7F8946091A2017091A301809171
:10062000A4019091A5012FBF08953FB7F894809140
:10063000A6019091A701A091A801B091A90126B5AA
:10064000A89B05C02F3F19F00196A11DB11D3FBF0A
:100650006627782F892F9A2F620F711D811D911D9A
:1006600042E0660F771F881F991F4A95D1F70895BA
:10067000CF92DF92EF92FF92CF93DF936B017C01D9
:100680000E941503EB01C114D104E104F10479F0D7
:100690000E9415036C1B7D0B683E7340A0F381E044
:1006A000C81AD108E108F108C851DC4FECCFDF913E
:1006B000CF91FF90EF90DF90CF900895789484B51C
:1006C000826084BD84B5816084BD85B5826085BD4E
:1006D00085B5816085BDEEE6F0E080818160808334
:1006E000E1E8F0E010828081826080838081816017
:1006F0008083E0E8F0E0808181608083E1EBF0E0DE
:10070000808184608083E0EBF0E080818160808381
:10071000EAE7F0E08081846080838081826080836A
:100720008081816080838081806880831092C10095
:1007300008958E3008F08E50877020910C0190E45F
:10074000299F90011124822B80937C0080917A0054
:10075000806480937A0080917A0086FDFCCF80913E
:1007600078002091790090E0922B0895833081F0F9
:1007700028F4813099F08230A1F008958630A9F0F4
:100780008730B9F08430D1F4809180008F7D03C030
:10079000809180008F7780938000089584B58F7753
:1007A00002C084B58F7D84BD08958091B0008F779D
:1007B00003C08091B0008F7D8093B00008950F93A7
:1007C0001F93CF93DF931F92CDB7DEB7282F30E072
:1007D000F901E859FF4F8491F901E458FF4F149152
:1007E000F901E057FF4F04910023C9F0882321F05D
:1007F00069830E94B6036981E02FF0E0EE0FFF1FCE
:10080000EC55FF4FA591B4919FB7F8948C9161116D
:1008100003C01095812301C0812B8C939FBF0F9043
:10082000DF91CF911F910F910895CF92DF92EF92B8
:10083000FF920F931F93CF93DF936C017A01EB012B
:10084000E60EF71E00E010E0CE15DF0561F06991BD
:10085000D601ED91FC910190F081E02DC601099542
:10086000080F191FF1CFC801DF91CF911F910F9190
:10087000FF90EF90DF90CF9008956115710581F0A2
:10088000DB010D900020E9F7AD0141505109461BF5
:10089000570BDC01ED91FC910280F381E02D09946E
:1008A00080E090E008950C943D04DC01ED91FC9112
:1008B0000190F081E02D09940F931F93CF93DF9364
:1008C000EC016DE00E9455048C016AE0CE010E94AB
:1008D0005504800F911FDF91CF911F910F910895C3
:1008E0008F929F92AF92BF92CF92DF92EF92FF9240
:1008F0000F931F93CF93DF93CDB7DEB7A1970FB6BA
:10090000F894DEBF0FBECDBF7C01C42EE52FCB0116
:10091000D22E19A221E02D1510F02AE0D22E8E0140
:100920000F5D1F4F8D2C912CA12CB12C6C2D7E2F87
:10093000A50194010E945E0C8C2DD29E8019112479
:10094000015011098A3014F4805D01C0895CF801FE
:100950008083211531054105510521F0C22EE32F79
:10096000CA01E4CFB801C7010E943D04A1960FB6A9
:10097000F894DEBF0FBECDBFDF91CF911F910F91D5
:10098000FF90EF90DF90CF90BF90AF909F908F90AF
:100990000895CF92DF92EF92FF920F931F93CF9320
:1009A000DF93EC016A017B012115310579F4E881BF
:1009B000F9810190F081E02D642FDF91CF911F919B
:1009C0000F91FF90EF90DF90CF9009942A3031057E
:1009D000E9F477FF1AC06DE20E9455048C014427A8
:1009E0005527BA014C195D096E097F092AE0CE012D
:1009F0000E947004800F911FDF91CF911F910F9182
:100A0000FF90EF90DF90CF9008952AE0B701A60104
:100A1000CE01DF91CF911F910F91FF90EF90DF906A
:100A2000CF900C9470044F925F926F927F928F924E
:100A30009F92AF92BF92CF92DF92EF92FF920F936D
:100A40001F93CF93DF93EC016A017B01B22E9A01D1
:100A5000AB01C701B6010E945A0C882319F06BE163
:100A600071E027C026013701E89477F82FEF3FEFB8
:100A70004FE75FE7C301B2010E945A0C81110DC01C
:100A80002FEF3FEF4FE75FE7C301B2010E94A40AD7
:100A900018161CF46FE171E00CC02FEF3FEF4FE729
:100AA0005FE4C701B6010E94F30B1816ACF463E2D1
:100AB00071E0CE01DF91CF911F910F91FF90EF90E8
:100AC000DF90CF90BF90AF909F908F907F906F906E
:100AD0005F904F900C943D042FEF3FEF4FE75FEC9A
:100AE000C701B6010E94A40A87FDE1CF20E030E0F3
:100AF000A901C701B6010E94A40A87FF0AC06DE2DE
:100B0000CE010E9455048C01F7FAF094F7F8F094A6
:100B100002C000E010E0A12C60E070E080E09FE304
:100B2000AB1441F020E030E040E251E40E94A80A1A
:100B3000A394F6CF9B01AC01C701B6010E94400A05
:100B40006B017C010E94150B2B013C010E94410BA3
:100B50009B01AC01C701B6010E943F0A6B017C01F9
:100B60002AE0B301A201CE010E947004080F191FF0
:100B7000BB2039F067E271E0CE010E943D04080F0E
:100B8000191F7B2C772041F120E030E040E251E456
:100B9000C701B6010E94F70B6B017C010E94100B8C
:100BA0004B01AA2497FCA094BA2C2AE030E0B501AE
:100BB000A401CE010E94C904080F191FC501B40188
:100BC0000E94430B9B01AC01C701B6010E943F0A82
:100BD0006B017C017A94D6CFC801DF91CF911F9130
:100BE0000F91FF90EF90DF90CF90BF90AF909F90CC
:100BF0008F907F906F905F904F9008950F931F9309
:100C0000CF93DF93EC010E9413058C01CE010E946B
:100C10005C04800F911FDF91CF911F910F91089578
:100C20000E945E030E94A601C9EED6E00E94CB019D
:100C30002097E1F30E94E906F9CFFC012485358570
:100C4000F901E05CFF4F80819181329620813181F2
:100C5000821B930B8F7399270895FC0184859585DA
:100C6000FC01E05CFF4F408151813296208131814F
:100C70004217530741F00190F081E02DE80FF91F72
:100C8000808190E008958FEF9FEF0895FC018485A7
:100C90009585FC01E05CFF4F4081518132962081B7
:100CA00031814217530779F0A081B181A80FB91F94
:100CB0008C91208131812F5F3F4F2F7333273183F8
:100CC000208390E008958FEF9FEF0895FC0181A1AC
:100CD000882329F0A489B5898C9186FFFBCF11A2C6
:100CE0000895CF93DF93FC0126853785D901A05C59
:100CF000BF4F8D919C91119701968F739927E901B0
:100D0000CE5BDF4F4881598184179507D9F30D9049
:100D1000BC91A02DA20FB31F6C93A685B785A05CD4
:100D2000BF4F11969C938E93A689B7892C9181E031
:100D300090E0078C02C0880F991F0A94E2F7282BD5
:100D40002C9381E081A30488F589E02D8081806463
:100D5000808381E090E0DF91CF91089508951F9204
:100D60000F920FB60F9211242F933F934F938F93AF
:100D70009F93EF93FF938091C00082FD1CC0409130
:100D8000C600809150029091510201968F7399276D
:100D900020915202309153028217930771F0E09133
:100DA0005002F0915102E05FFD4F40839093510259
:100DB0008093500202C08091C600FF91EF919F91F5
:100DC0008F914F913F912F910F900FBE0F901F90D9
:100DD00018958AEA91E00E941D06892B11F00C9467
:100DE000AE0608951F920F920FB60F9211242F9303
:100DF0003F938F939F93EF93FF9320910C02309139
:100E00000D0280910E0290910F022817390731F4DC
:100E10008091C1008F7D8093C10014C0E0910E02CB
:100E2000F0910F02E453FE4F208180910E029091C9
:100E30000F0201968F73992790930F0280930E02F1
:100E40002093C600FF91EF919F918F913F912F9139
:100E50000F900FBE0F901F901895CF92DF92EF92D8
:100E6000FF92CF93DF93EC016A017B01411581EE84
:100E7000580761057105F9F0EC89FD8981E090E082
:100E800008A002C0880F991F0A94E2F7808360E0EF
:100E900079E08DE390E0A70196010E945E0C21505D
:100EA00031094109510956954795379527952115DF
:100EB00080E1380798F0EC89FD89108260E874E8D9
:100EC0008EE190E0A70196010E945E0C215031094D
:100ED000410951095695479537952795E889F9892C
:100EE0003083EA89FB89208319A2EE89FF8940813A
:100EF00081E090E09C010C8C02C0220F331F0A9409
:100F0000E2F7422B4083EE89FF8940819C010D8CE2
:100F100002C0220F331F0A94E2F7422B4083EE896E
:100F2000FF8940819C010E8C02C0220F331F0A945E
:100F3000E2F7422B4083EE89FF8920810F8C02C0AB
:100F4000880F991F0A94E2F7809582238083DF91AE
:100F5000CF91FF90EF90DF90CF9008951092AD0168
:100F60001092AC0188EE93E0A0E0B0E08093AE0177
:100F70009093AF01A093B001B093B1018DE291E0E5
:100F80009093AB018093AA0180E192E09093B70126
:100F90008093B6018CEC91E09093B9018093B801F5
:100FA00085EC90E09093BB018093BA0184EC90E0D3
:100FB0009093BD018093BC0180EC90E09093BF01C1
:100FC0008093BE0181EC90E09093C1018093C001B9
:100FD00082EC90E09093C3018093C20186EC90E094
:100FE0009093C5018093C40184E08093C60183E09F
:100FF0008093C70187E08093C80185E08093C90191
:1010000081E08093CA0108952F923F924F925F92A0
:101010006F927F928F929F92AF92BF92CF92DF9208
:10102000EF92FF920F931F93CF93DF9300D000D0E6
:10103000CDB7DEB71C012A013B014801590120E070
:1010400030E0A901C301B2010E94A40A87FD78C063
:1010500020E030E0A901C501B4010E94A40A87FD87
:101060006FC020E030E0A901C701B6010E94A40AC8
:1010700087FD66C0F1014082518262827382848260
:101080009582A682B782C086D186E286F38664A561
:1010900075A586A597A50E94410B20E030E04AE7A0
:1010A00054E40E94A80A69837A838B839C83F101AC
:1010B00044865586668677869B01AC01C501B401DE
:1010C0000E94F70B4B015C01F101608B718B828BED
:1010D000938B29813A814B815C81C701B6010E94C3
:1010E000A80A6B017C01F101648B758B868B978B51
:1010F000808D918D019721F5A301920160E070E050
:10110000CB010E943F0AF101648775878687978724
:10111000A501940160E070E0CB010E943F0AF1015B
:10112000608B718B828B938BA701960160E070E0DE
:10113000CB010E943F0AF101648B758B868B978BE4
:101140000F900F900F900F90DF91CF911F910F9103
:10115000FF90EF90DF90CF90BF90AF909F908F90D7
:101160007F906F905F904F903F902F9008952F92B7
:101170003F924F925F926F927F928F929F92AF9227
:10118000BF92CF92DF92EF92FF920F931F93CF9374
:10119000DF93EC016A017B0148015901A901980123
:1011A000C701B6010E94F30B87FF4EC0C8AAD9AA97
:1011B000EAAAFBAA8CAA9DAAAEAABFAA88AD8823D8
:1011C00009F442C02C8C3D8CF1014080518062803A
:1011D0007380A5019401C301B2010E94F30B18169C
:1011E00034F4F10180829182A282B3820DC0A70102
:1011F0009601C301B2010E94A40A87FF05C0F10154
:10120000C082D182E282F3828CA09DA0AEA0BFA05A
:10121000CCA8DDA8EEA8FFA8A7019601C501B401DE
:101220000E94F30B181664F0C8A8D9A8EAA8FBA876
:10123000A7019601C501B4010E94A40A87FF04C05A
:10124000CCA2DDA2EEA2FFA2DF91CF911F910F9160
:10125000FF90EF90DF90CF90BF90AF909F908F90D6
:101260007F906F905F904F903F902F9008958F9256
:101270009F92AF92BF92CF92DF92EF92FF92CF9365
:10128000DF93EC01EC8DFD8DC080D180E280F38096
:10129000CCA2DDA2EEA2FFA2EA8DFB8D808191811E
:1012A000A281B38188A799A7AAA7BBA78CA89DA84C
:1012B000AEA8BFA8A5019401C701B6010E94F30B17
:1012C000181664F088A899A8AAA8BBA8A50194013B
:1012D000C701B6010E94A40A87FF04C08CA29DA288
:1012E000AEA2BFA2DF91CF91FF90EF90DF90CF90A1
:1012F000BF90AF909F908F9008951F93CF93DF93EF
:10130000EC0111E06130710509F010E088AD91E069
:101310008927181303C0CE010E94370918AFDF9147
:10132000CF911F9108950F931F93CF93DF93EC01FB
:101330008B0188AD882361F1888D998D68177907B5
:1013400039F12C853D854E855F8560E070E0CB01ED
:101350000E943F0A6C877D878E879F8728893989FD
:101360004A895B8960E070E0CB010E943F0A688B8C
:10137000798B8A8B9B8B2C893D894E895F8960E0B4
:1013800070E0CB010E943F0A6C8B7D8B8E8B9F8B14
:10139000198F088FDF91CF911F910F9108954F9270
:1013A0005F926F927F928F929F92AF92BF92CF92F5
:1013B000DF92EF92FF920F931F93CF93DF9300D0B2
:1013C00000D0CDB7DEB74C0127013801A982BA821F
:1013D000CB82DC82FC01558F448F738F628F378FF5
:1013E000268F10AE10AA11AA12AA13AA80E090E0CC
:1013F000AFE7B3E484AB95ABA6ABB7AB84E690E0C4
:10140000A0E0B0E084A795A7A6A7B7A76B8D7C8DB9
:10141000C4010E949309CF88D88CE98CFA8C098189
:101420001A812B813C81B301A201C4010E940408EE
:101430000E940903F40144A455A466A477A4641986
:1014400075098609970960A371A382A393A30F90DE
:101450000F900F900F90DF91CF911F910F91FF9000
:10146000EF90DF90CF90BF90AF909F908F907F9044
:101470006F905F904F900895F8940C94860C50589C
:10148000BB27AA270ED075C166D130F06BD120F0F2
:1014900031F49F3F11F41EF45BC10EF4E095E7FBBD
:1014A00051C1E92F77D180F3BA1762077307840718
:1014B000950718F071F49EF58FC10EF4E0950B2E90
:1014C000BA2FA02D0B01B90190010C01CA01A00196
:1014D0001124FF27591B99F0593F50F4503E68F1F1
:1014E0001A16F040A22F232F342F4427585FF3CF32
:1014F000469537952795A795F0405395C9F77EF403
:101500001F16BA0B620B730B840BBAF09150A1F04B
:10151000FF0FBB1F661F771F881FC2F70EC0BA0FD1
:10152000621F731F841F48F4879577956795B79559
:10153000F7959E3F08F0B3CF9395880F08F0992751
:10154000EE0F979587950895D9D008F481E0089516
:101550000CD00FC107D140F0FED030F021F45F3F36
:1015600019F0F0C0511139C1F3C014D198F3992387
:10157000C9F35523B1F3951B550BBB27AA27621757
:101580007307840738F09F5F5F4F220F331F441F9C
:10159000AA1FA9F333D00E2E3AF0E0E830D09150D4
:1015A0005040E695001CCAF729D0FE2F27D0660FC1
:1015B000771F881FBB1F261737074807AB07B0E800
:1015C00009F0BB0B802DBF01FF2793585F4F2AF016
:1015D0009E3F510568F0B6C000C15F3FECF3983EF6
:1015E000DCF3869577956795B795F7959F5FC9F773
:1015F000880F911D9695879597F90895E1E0660FFC
:10160000771F881FBB1F621773078407BA0720F074
:10161000621B730B840BBA0BEE1F88F7E0950895DD
:1016200004D06894B111D9C00895BCD088F09F57F8
:1016300090F0B92F9927B751A0F0D1F0660F771F1E
:10164000881F991F1AF0BA95C9F712C0B13081F0FE
:10165000C3D0B1E00895C0C0672F782F8827B85F46
:1016600039F0B93FCCF3869577956795B395D9F75F
:101670003EF490958095709561957F4F8F4F9F4F69
:101680000895E89409C097FB3EF490958095709575
:1016900061957F4F8F4F9F4F9923A9F0F92F96E9BE
:1016A000BB279395F695879577956795B795F11133
:1016B000F8CFFAF4BB0F11F460FF1BC06F5F7F4FD0
:1016C0008F4F9F4F16C0882311F096E911C07723E2
:1016D00021F09EE8872F762F05C0662371F096E8EB
:1016E000862F70E060E02AF09A95660F771F881FBA
:1016F000DAF7880F9695879597F90895990F00085E
:10170000550FAA0BE0E8FEEF16161706E807F907D3
:10171000C0F012161306E407F50798F0621B730B6E
:10172000840B950B39F40A2661F0232B242B252BEF
:1017300021F408950A2609F4A140A6958FEF811D92
:10174000811D089597F99F6780E870E060E0089533
:101750009FEF80EC089500240A94161617061806C9
:101760000906089500240A941216130614060506A5
:101770000895092E0394000C11F4882352F0BB0F36
:1017800040F4BF2B11F460FF04C06F5F7F4F8F4F99
:101790009F4F089557FD9058440F551F59F05F3FD4
:1017A00071F04795880F97FB991F61F09F3F79F083
:1017B00087950895121613061406551FF2CF469505
:1017C000F1DF08C0161617061806991FF1CF869587
:1017D0007105610508940895E894BB27662777276B
:1017E000CB0197F908958ADF08F48FEF08950BD0A5
:1017F000C0CFB1DF28F0B6DF18F0952309F0A2CFF3
:10180000A7CF1124EACFC6DFA0F3959FD1F3950FA0
:1018100050E0551F629FF001729FBB27F00DB11D74
:10182000639FAA27F00DB11DAA1F649F6627B00D04
:10183000A11D661F829F2227B00DA11D621F739FED
:10184000B00DA11D621F839FA00D611D221F749FFB
:101850003327A00D611D231F849F600D211D822F42
:10186000762F6A2F11249F5750408AF0E1F0882389
:101870004AF0EE0FFF1FBB1F661F771F881F915096
:101880005040A9F79E3F510570F05CCFA6CF5F3F57
:10189000ECF3983EDCF3869577956795B795F795C9
:1018A000E7959F5FC1F7FE2B880F911D9695879551
:1018B00097F9089523DF880B990B0895A1E21A2E5A
:1018C000AA1BBB1BFD010DC0AA1FBB1FEE1FFF1FE4
:1018D000A217B307E407F50720F0A21BB30BE40B34
:1018E000F50B661F771F881F991F1A9469F760957B
:1018F0007095809590959B01AC01BD01CF01089535
:10190000EE0FFF1F0590F491E02D0994F894FFCF9E
:101910000AD7233C48E1FA3E0000484301455252B1
:101920004F523A2000504F533A20006E616E0069CA
:101930006E66006F7666002E0000000000710615CE
:0A194000041D0646062D066606008B
:00000001FF
