:100000000C9459000C9481000C9481000C94810094
:100010000C9481000C9481000C9481000C9481005C
:100020000C9481000C9481000C9481000C9481004C
:100030000C9481000C9481000C9481000C9481003C
:100040000C94D6070C9481000C9481000C948100D0
:100050000C9481000C9481000C9481000C9481001C
:100060000C9481000C948100000000070002010044
:100070000003040600000000000000000102040864
:100080001020408001020408102001020408102002
:10009000040404040404040402020202020203032E
:1000A0000303030300000000250028002B00EA01E1
:1000B000B30311241FBECFEFD8E0DEBFCDBF11E0E8
:1000C000A0E0B1E0EAE1F5E102C005900D92AE30AA
:1000D000B107D9F721E0AEE0B1E001C01D92AA3727
:1000E000B207E1F710E0C2EBD0E004C02297FE01B6
:1000F0000E94870ACE3AD107C9F70E9471040C9476
:1001000067080C9400008F929F92AF92BF92CF929B
:10011000DF92EF92FF926B017C012CE83EE24AEB0A
:100120005EE30E94CF0887FF13C020E030E042EF7B
:1001300052E4C701B6010E94220AA70196010E945B
:10014000220A20E030E040E85DE30E94220A78C005
:100150002CE83EE24AE35FE3C701B6010E94CF0804
:1001600087FF21C023E333E341E151E4C701B60136
:100170000E94220AA70196010E94220A4B015C01FB
:1001800026E636E64EE151E4C701B6010E94220A96
:100190009B01AC01C501B4010E946A082AE939E952
:1001A00049E550E44BC026E636E646E65FE3C70184
:1001B000B6010E94CF0887FF21C02FE430E141E45F
:1001C00051E4C701B6010E94220AA70196010E94CC
:1001D000220A4B015C012BE635E14DE951E4C701F0
:1001E000B6010E94220A9B01AC01C501B4010E9424
:1001F0006A0825E73EE54EE051E420C02DEC3CECDA
:100200004CE251E4C701B6010E94220AA7019601FF
:100210000E94220A4B015C0126EF38E244EA51E4D5
:10022000C701B6010E94220A9B01AC01C501B401BD
:100230000E946A082FE135E84BE251E40E946B0806
:10024000FF90EF90DF90CF90BF90AF909F908F90F6
:1002500008959B01AC0160E070E080E89FE30E949C
:100260006A080E9483009B01AC0160E070E080E8B6
:100270009FE30E946A0808956FEF70E08EE091E0BE
:100280000C947B02CF92DF92EF92FF926A017B0186
:1002900080910001882309F120E030E040E251E440
:1002A000C701B6010E94CF0887FD11C020E030E0F1
:1002B00040E253E4C701B6010E941E0A87FD0DC04B
:1002C000C12CD12C90E2E92E93E4F92E06C0C12C6A
:1002D000D12C80E2E82E81E4F82EC701B601FF9010
:1002E000EF90DF90CF900895809114010C94F50366
:1002F0000E9474010F97BC01882777FD8095982F85
:100300000E946E092BEC32EB4CE25EE30E94220A63
:100310000E943B09CB0108950F931F93CF93DF9366
:1003200000D000D0CDB7DEB78C010E947801BC01AF
:10033000882777FD8095982F0E946E099B01AC015C
:10034000F801608371838283938364817581882738
:1003500077FD8095982F29833A834B835C830E9495
:100360006E0929813A814B815C810E946A08F801FB
:1003700066837783808791870F900F900F900F90FF
:10038000DF91CF911F910F9108950F931F93CF93FA
:10039000DF93EC010E9442010E943B097D836C8344
:1003A000CE010E948C014E815F816885798500E0D5
:1003B00010E020E83FE38EE091E00E942302DF910D
:1003C000CF911F910F910895FC01668177818085FF
:1003D0009185089529E030E044E050E063E070E06A
:1003E0008EE091E00C94F401FC01718360835383EF
:1003F0004283358324830895CF93DF93EC0160E03B
:1004000088810E943B0461E08A81DF91CF910C9446
:100410003B04CF93DF93EC0161E088810E943B04B1
:1004200060E08A81DF91CF910C943B04CF93DF93FE
:10043000EC0160E088810E943B0460E08A81DF91EA
:10044000CF910C943B048F929F92AF92BF92CF9228
:10045000DF92EF92FF920F931F93CF93DF93EC0104
:100460006A017B0148015901A9019801C701B60140
:100470000E94CF081816C4F0C501B4019058A70116
:1004800096010E94CF0818167CF0CE01DF91CF9123
:100490001F910F91FF90EF90DF90CF90BF90AF90A2
:1004A0009F908F900C94160220E030E0A901C701C4
:1004B000B6010E941E0A18167CF4CE01DF91CF917E
:1004C0001F910F91FF90EF90DF90CF90BF90AF9072
:1004D0009F908F900C940902CE01DF91CF911F91D4
:1004E0000F91FF90EF90DF90CF90BF90AF909F90D3
:1004F0008F900C94FC016F3F710509F034F46A3A57
:1005000071052CF46AEA70E002C06FEF70E0FC0144
:1005100084810C943B040F931F9361E070E080E2B0
:1005200091E00E94170700E010E024E333E440E08C
:1005300050E0BA0180E291E00E9451061F910F91B4
:10054000089586E191E00E94E40120E030E0A901F5
:100550000E941E0A1816D4F486E191E00E94E4017C
:1005600020E030E040E85FE30E941E0A18166CF4B9
:1005700040916D0150916E0160916F017091700119
:1005800086E191E00E94C501DCCF089586E191E00B
:100590000E94E40120E030E040E85FEB0E94CF08D9
:1005A00087FDE6CF08958F929F92AF92BF92CF9230
:1005B000DF92EF92FF9240E050E0BA0186E191E0D5
:1005C0000E94C5010E94A1021092690110926A0165
:1005D00010926B0110926C01C0906901D0906A0179
:1005E000E0906B01F0906C018090090190900A01FD
:1005F000A0900B01B0900C01A5019401C701B601B8
:100600000E94CF0818160CF447C0A5019401C70139
:10061000B6010E94D3080E94830020E030E04AE245
:1006200053E40E94220A60936D0170936E018093DF
:100630006F019093700160936101709362018093E8
:1006400063019093640180E291E00E947E044091F6
:100650005D0150915E0160915F017091600186E1E2
:1006600091E00E94C5010E94A10220E030E040E834
:100670005FE36091690170916A0180916B019091D3
:100680006C010E946B086093690170936A0180930A
:100690006B0190936C01A0CF0E94A102809109018F
:1006A00090910A01A0910B01B0910C018093690116
:1006B00090936A01A0936B01B0936C01C0906901A3
:1006C000D0906A01E0906B01F0906C0120E030E086
:1006D000A901C701B6010E941E0A87FD3BC02091F7
:1006E000090130910A0140910B0150910C01C701A1
:1006F000B6010E94D3080E94290120E030E04AE2BE
:1007000053E40E94220AAB01BC0140936D01509357
:100710006E0160936F017093700186E191E00E9419
:10072000C5010E94A10220E030E040E85FE3609153
:10073000690170916A0180916B0190916C010E9436
:100740006A086093690170936A0180936B019093CA
:100750006C01B4CFFF90EF90DF90CF90BF90AF903F
:100760009F908F900895AF92BF92CF92DF92EF92B9
:10077000FF920F931F93A0900101B0900201C090CF
:100780000301D0900401E0900501F0900601009172
:100790000701109108011F921F9280915C018F93B5
:1007A00080915B018F9380915A018F9380915901C1
:1007B0008F9325E631E04DE551E061E671E080E29E
:1007C00091E00E9469070F900F900F900F900F908B
:1007D0000F9086E191E01F910F91FF90EF90DF90D5
:1007E000CF90BF90AF900C943C018E3008F08E50AB
:1007F000877020910D0190E4299F90011124822B94
:1008000080937C0080917A00806480937A0080914C
:100810007A0086FDFCCF809178002091790090E0ED
:10082000922B0895833081F028F4813099F0823042
:10083000A1F008958630A9F08730B9F08430D1F462
:10084000809180008F7D03C0809180008F7780939E
:100850008000089584B58F7702C084B58F7D84BDF4
:1008600008958091B0008F7703C08091B0008F7D94
:100870008093B00008950F931F93CF93DF931F923F
:10088000CDB7DEB7282F30E0F901E859FF4F84914A
:10089000F901E458FF4F1491F901E057FF4F04911B
:1008A0000023C9F0882321F069830E941204698122
:1008B000E02FF0E0EE0FFF1FEC55FF4FA591B49134
:1008C0009FB7F8948C91611103C01095812301C0EA
:1008D000812B8C939FBF0F90DF91CF911F910F9130
:1008E00008950E942C080E948B02C0E0D0E00E9474
:1008F000D3022097E1F30E940000F9CF2F923F929C
:100900004F925F926F927F928F929F92AF92BF921F
:10091000CF92DF92EF92FF920F931F93CF93DF93CB
:10092000CDB7DEB72B970FB6F894DEBF0FBECDBFA5
:100930009B878A87DC01D896BC91B983B11102C02C
:100940001982E2C00E9420086A837B838C839D8386
:10095000EA85FB8580A191A1A2A1B3A14A815B8117
:100960006C817D81481B590B6A0B7B0B84A595A577
:10097000A6A5B7A5481759076A077B0708F3028C95
:10098000F38DE02D80809180A280B380AA85BB8505
:100990005E96ED91FC915F97A50194016081718154
:1009A000828193810E946A082B013C01EA85FB85C4
:1009B00020893189428953890E94220AAA85BB85F0
:1009C00094962D913D914D915C9197970E946B0863
:1009D0006B017C01EA85FB8564A375A386A397A3BD
:1009E00024A835A806A917A99101A8010E941E0AEA
:1009F00018161CF4C101D80118C0AA85BB85D09671
:100A00008D919D910D90BC91A02D8E839F83A88781
:100A1000B9879C01AD01C701B6010E94CF0887FFCD
:100A20000AC08E819F81A885B985EA85FB8584A34C
:100A300095A3A6A3B7A3AA85BB851C962D913D912E
:100A40004D915C911F97C301B2010E94220AEA8571
:100A5000FB8524A135A146A157A10E946B086B011B
:100A60007C01AA85BB8598962D913D914D915C9115
:100A70009B97C501B4010E946A08EA85FB85248919
:100A80003589468957890E94220A9B01AC01C7011A
:100A9000B6010E946A086B017C019101A8010E94C5
:100AA0001E0A1816BCF0AA85BB85D0962C90D0974C
:100AB000D1963C90D197D2960C91D297D3961C9117
:100AC0009101A801B601C7010E94CF0887FD02C0AD
:100AD00016018701AA85BB855C96ED91FC915D9717
:100AE000C101D80180839183A283B383EA85FB850A
:100AF00080A691A6A2A6B3A68A819B81AC81BD8166
:100B000080A391A3A2A3B3A389812B960FB6F894D7
:100B1000DEBF0FBECDBFDF91CF911F910F91FF9030
:100B2000EF90DF90CF90BF90AF909F908F907F908D
:100B30006F905F904F903F902F9008952F923F922B
:100B40004F925F926F927F928F929F92AF92BF92DD
:100B5000CF92DF92EF92FF920F931F93CF93DF9389
:100B600000D000D0CDB7DEB71C012A013B014801FF
:100B7000590120E030E0A901C301B2010E94CF0871
:100B800087FD78C020E030E0A901C501B4010E94D2
:100B9000CF0887FD6FC020E030E0A901C701B60192
:100BA0000E94CF0887FD66C0F101408251826282B7
:100BB000738284829582A682B782C086D186E286BD
:100BC000F38664A575A586A597A50E946C0920E00B
:100BD00030E04AE754E40E94D30869837A838B8328
:100BE0009C83F10144865586668677869B01AC011D
:100BF000C501B4010E94220A4B015C01F101608B26
:100C0000718B828B938B29813A814B815C81C701E7
:100C1000B6010E94D3086B017C01F101648B758BD6
:100C2000868B978B808D918D019721F5A301920181
:100C300060E070E0CB010E946A08F101648775876B
:100C400086879787A501940160E070E0CB010E9440
:100C50006A08F101608B718B828B938BA7019601DF
:100C600060E070E0CB010E946A08F101648B758B33
:100C7000868B978B0F900F900F900F90DF91CF91F5
:100C80001F910F91FF90EF90DF90CF90BF90AF90AA
:100C90009F908F907F906F905F904F903F902F909C
:100CA00008952F923F924F925F926F927F928F9210
:100CB0009F92AF92BF92CF92DF92EF92FF920F93EB
:100CC0001F93CF93DF93EC016A017B014801590127
:100CD000A9019801C701B6010E941E0A87FF4EC0F4
:100CE000C8AAD9AAEAAAFBAA8CAA9DAAAEAABFAA98
:100CF00088AD882309F442C02C8C3D8CF1014080E2
:100D0000518062807380A5019401C301B2010E94E9
:100D10001E0A181634F4F10180829182A282B382F5
:100D20000DC0A7019601C301B2010E94CF0887FF41
:100D300005C0F101C082D182E282F3828CA09DA025
:100D4000AEA0BFA0CCA8DDA8EEA8FFA8A701960181
:100D5000C501B4010E941E0A181664F0C8A8D9A8DB
:100D6000EAA8FBA8A7019601C501B4010E94CF081B
:100D700087FF04C0CCA2DDA2EEA2FFA2DF91CF913B
:100D80001F910F91FF90EF90DF90CF90BF90AF90A9
:100D90009F908F907F906F905F904F903F902F909B
:100DA00008958F929F92AF92BF92CF92DF92EF926F
:100DB000FF92CF93DF93EC01EC8DFD8DC080D1804D
:100DC000E280F380CCA2DDA2EEA2FFA2EA8DFB8D31
:100DD00080819181A281B38188A799A7AAA7BBA787
:100DE0008CA89DA8AEA8BFA8A5019401C701B60113
:100DF0000E941E0A181664F088A899A8AAA8BBA881
:100E0000A5019401C701B6010E94CF0887FF04C065
:100E10008CA29DA2AEA2BFA2DF91CF91FF90EF90D6
:100E2000DF90CF90BF90AF909F908F9008951F93C9
:100E3000CF93DF93EC0111E06130710509F010E010
:100E400088AD91E08927181303C0CE010E94D10616
:100E500018AFDF91CF911F9108950F931F93CF93F8
:100E6000DF93EC018B0188AD882361F1888D998D2A
:100E70006817790739F12C853D854E855F8560E0DF
:100E800070E0CB010E946A086C877D878E879F8700
:100E9000288939894A895B8960E070E0CB010E942A
:100EA0006A08688B798B8A8B9B8B2C893D894E894C
:100EB0005F8960E070E0CB010E946A086C8B7D8BDB
:100EC0008E8B9F8B198F088FDF91CF911F910F9180
:100ED00008954F925F926F927F928F929F92AF92FE
:100EE000BF92CF92DF92EF92FF920F931F93CF9317
:100EF000DF9300D000D0CDB7DEB74C012701380119
:100F0000A982BA82CB82DC82FC01558F448F738F19
:100F1000628F378F268F10AE10AA11AA12AA13AAB9
:100F200080E090E0AFE7B3E484AB95ABA6ABB7ABA2
:100F300084E690E0A0E0B0E084A795A7A6A7B7A7B5
:100F40006B8D7C8DC4010E942D07CF88D88CE98CD5
:100F5000FA8C09811A812B813C81B301A201C40161
:100F60000E949E050E942008F40144A455A466A492
:100F700077A4641975098609970960A371A382A3F0
:100F800093A30F900F900F900F90DF91CF911F912F
:100F90000F91FF90EF90DF90CF90BF90AF909F9018
:100FA0008F907F906F905F904F9008951F920F9257
:100FB0000FB60F9211242F933F938F939F93AF936C
:100FC000BF938091720190917301A0917401B091CF
:100FD00075013091710123E0230F2D3720F4019624
:100FE000A11DB11D05C026E8230F0296A11DB11D4C
:100FF000209371018093720190937301A093740107
:10100000B09375018091760190917701A09178015C
:10101000B09179010196A11DB11D80937601909345
:101020007701A0937801B0937901BF91AF919F911F
:101030008F913F912F910F900FBE0F901F90189599
:101040002FB7F894609172017091730180917401CF
:10105000909175012FBF0895789484B5826084BD06
:1010600084B5816084BD85B5826085BD85B58160AC
:1010700085BDEEE6F0E0808181608083E1E8F0E00C
:101080001082808182608083808181608083E0E83B
:10109000F0E0808181608083E1EBF0E0808184601A
:1010A0008083E0EBF0E0808181608083EAE7F0E01C
:1010B0008081846080838081826080838081816080
:1010C00080838081806880831092C1000895F894A5
:1010D0000C948B0A5058BB27AA270ED075C166D135
:1010E00030F06BD120F031F49F3F11F41EF45BC15E
:1010F0000EF4E095E7FB51C1E92F77D180F3BA17E1
:10110000620773078407950718F071F49EF58FC185
:101110000EF4E0950B2EBA2FA02D0B01B901900112
:101120000C01CA01A0011124FF27591B99F0593F56
:1011300050F4503E68F11A16F040A22F232F342F9E
:101140004427585FF3CF469537952795A795F040EC
:101150005395C9F77EF41F16BA0B620B730B840B01
:10116000BAF09150A1F0FF0FBB1F661F771F881FB9
:10117000C2F70EC0BA0F621F731F841F48F4879511
:1011800077956795B795F7959E3F08F0B3CF939500
:10119000880F08F09927EE0F979587950895D9D075
:1011A00008F481E008950CD00FC107D140F0FED0C3
:1011B00030F021F45F3F19F0F0C0511139C1F3C094
:1011C00014D198F39923C9F35523B1F3951B550B0B
:1011D000BB27AA2762177307840738F09F5F5F4F0A
:1011E000220F331F441FAA1FA9F333D00E2E3AF04B
:1011F000E0E830D091505040E695001CCAF729D065
:10120000FE2F27D0660F771F881FBB1F26173707B3
:101210004807AB07B0E809F0BB0B802DBF01FF27E3
:1012200093585F4F2AF09E3F510568F0B6C000C149
:101230005F3FECF3983EDCF3869577956795B7951D
:10124000F7959F5FC9F7880F911D9695879597F938
:101250000895E1E0660F771F881FBB1F62177307B1
:101260008407BA0720F0621B730B840BBA0BEE1FC6
:1012700088F7E095089504D06894B111D9C0089515
:10128000BCD088F09F5790F0B92F9927B751A0F0A4
:10129000D1F0660F771F881F991F1AF0BA95C9F70A
:1012A00012C0B13081F0C3D0B1E00895C0C0672F43
:1012B000782F8827B85F39F0B93FCCF386957795BA
:1012C0006795B395D9F73EF49095809570956195A3
:1012D0007F4F8F4F9F4F0895E89409C097FB3EF4CE
:1012E00090958095709561957F4F8F4F9F4F992373
:1012F000A9F0F92F96E9BB279395F69587957795F1
:101300006795B795F111F8CFFAF4BB0F11F460FFB0
:101310001BC06F5F7F4F8F4F9F4F16C0882311F008
:1013200096E911C0772321F09EE8872F762F05C01C
:10133000662371F096E8862F70E060E02AF09A95B7
:10134000660F771F881FDAF7880F9695879597F9AC
:101350000895990F0008550FAA0BE0E8FEEF161646
:101360001706E807F907C0F012161306E407F50799
:1013700098F0621B730B840B950B39F40A2661F00D
:10138000232B242B252B21F408950A2609F4A140B0
:10139000A6958FEF811D811D089597F99F6780E8BD
:1013A00070E060E008959FEF80EC089500240A94B7
:1013B0001616170618060906089500240A94121630
:1013C0001306140605060895092E0394000C11F463
:1013D000882352F0BB0F40F4BF2B11F460FF04C010
:1013E0006F5F7F4F8F4F9F4F089557FD9058440F69
:1013F000551F59F05F3F71F04795880F97FB991F74
:1014000061F09F3F79F08795089512161306140630
:10141000551FF2CF4695F1DF08C0161617061806BD
:10142000991FF1CF86957105610508940895E89498
:10143000BB2766277727CB0197F908958ADF08F441
:101440008FEF08950BD0C0CFB1DF28F0B6DF18F0D2
:10145000952309F0A2CFA7CF1124EACFC6DFA0F3CE
:10146000959FD1F3950F50E0551F629FF001729F39
:10147000BB27F00DB11D639FAA27F00DB11DAA1F58
:10148000649F6627B00DA11D661F829F2227B00DA5
:10149000A11D621F739FB00DA11D621F839FA00D30
:1014A000611D221F749F3327A00D611D231F849F80
:1014B000600D211D822F762F6A2F11249F575040D7
:1014C0008AF0E1F088234AF0EE0FFF1FBB1F661F72
:1014D000771F881F91505040A9F79E3F510570F02B
:1014E0005CCFA6CF5F3FECF3983EDCF38695779513
:1014F0006795B795F795E7959F5FC1F7FE2B880F26
:10150000911D9695879597F90895EE0FFF1F059009
:0A151000F491E02D0994F894FFCF48
:0E151A00010AD7233C48E1FA3E00007A440162
:00000001FF
