:100000000C9459000C9481000C9481000C94810094
:100010000C9481000C9481000C9481000C9481005C
:100020000C9481000C9481000C9481000C9481004C
:100030000C9481000C9481000C9481000C9481003C
:100040000C949C010C9481000C941E030C9461038D
:100050000C9481000C9481000C9481000C9481001C
:100060000C9481000C948100000000070002010044
:100070000003040600000000000000000102040864
:100080001020408001020408102001020408102002
:10009000040404040404040402020202020203032E
:1000A0000303030300000000250028002B00750156
:1000B0001D0411241FBECFEFD8E0DEBFCDBF11E07D
:1000C000A0E0B1E0EEE8F1E102C005900D92A832A7
:1000D000B107D9F721E0A8E2B1E001C01D92AD3E21
:1000E000B207E1F710E0C2EBD0E004C02297FE01B6
:1000F0000E94C108CE3AD107C9F70E9473040C943C
:100100007B060C940000FC0171836083538342835F
:100110000895CF93DF93EC0160E088810E9456023E
:1001200061E08A81DF91CF910C945602CF93DF93E7
:10013000EC0161E088810E94560260E08A81DF91D3
:10014000CF910C945602CF93DF93EC0160E088814D
:100150000E94560260E08A81DF91CF910C94560292
:1001600061E089E00E94560240E855E260E070E0FC
:1001700083E491E00C949C03BC01882777FD809573
:10018000982F0E94820727EF39E64FE95EE30E942D
:10019000360820E030E04AEA52E40E947E060E94DF
:1001A0004F07CB01089580E00E947F018657910997
:1001B0000C94BC00CF92DF92EF92FF928AEB9FEFFC
:1001C00090933701809336010E94D30090933901B8
:1001D000809338016091360170913701681B790B6B
:1001E000882777FD8095982F0E94820760933201BF
:1001F00070933301809334019093350161E071E095
:1002000083E491E00E94BE04409132015091330199
:10021000609134017091350122E030E083E491E097
:100220000E946906C0903201D0903301E090340101
:10023000F090350120E030E040E251E4C701B60122
:100240000E94E306181694F020E030E040E251EC02
:10025000C701B6010E94320887FD08C08CE291E018
:10026000FF90EF90DF90CF900C94A30020E030E05F
:10027000A901C701B6010E943208181644F48CE2A5
:1002800091E0FF90EF90DF90CF900C9496008CE27D
:1002900091E0FF90EF90DF90CF900C9489000F9346
:1002A0001F930E94E60100912801109129012091DD
:1002B0002A0130912B01601B710B820B930B65316E
:1002C00071058105910570F00E94E6016093280197
:1002D0007093290180932A0190932B011F910F9114
:1002E0000C94DA001F910F91089529E030E044E06A
:1002F00050E063E070E08CE291E00C9483008E307B
:1003000008F08E5087702091000190E4299F9001A1
:100310001124822B80937C0080917A0080648093EA
:100320007A0080917A0086FDFCCF80917800209140
:10033000790090E0922B08951F920F920FB60F92C2
:1003400011242F933F938F939F93AF93BF938091EB
:100350003B0190913C01A0913D01B0913E01309153
:100360003A0123E0230F2D3720F40196A11DB11D82
:1003700005C026E8230F0296A11DB11D20933A0166
:1003800080933B0190933C01A0933D01B0933E01CB
:1003900080913F0190914001A0914101B0914201B3
:1003A0000196A11DB11D80933F0190934001A09340
:1003B0004101B0934201BF91AF919F918F913F91C5
:1003C0002F910F900FBE0F901F9018952FB7F89494
:1003D00060913B0170913C0180913D0190913E0103
:1003E0002FBF0895789484B5826084BD84B5816000
:1003F00084BD85B5826085BD85B5816085BDEEE62D
:10040000F0E0808181608083E1E8F0E0108280810B
:1004100082608083808181608083E0E8F0E0808179
:1004200081608083E1EBF0E0808184608083E0EB99
:10043000F0E0808181608083EAE7F0E08081846081
:1004400080838081826080838081816080838081DD
:10045000806880831092C1000895833081F028F471
:10046000813099F08230A1F008958630A9F087306C
:10047000B9F08430D1F4809180008F7D03C08091E9
:1004800080008F7780938000089584B58F7702C0B5
:1004900084B58F7D84BD08958091B0008F7703C0AF
:1004A0008091B0008F7D8093B00008950F931F93CB
:1004B000CF93DF931F92CDB7DEB7282F30E0F9013D
:1004C000E859FF4F8491F901E458FF4F1491F90165
:1004D000E057FF4F04910023C9F0882321F069837E
:1004E0000E942D026981E02FF0E0EE0FFF1FEC5516
:1004F000FF4FA591B4919FB7F8948C91611103C0FF
:100500001095812301C0812B8C939FBF0F90DF91A9
:10051000CF911F910F910895FC0124853585F90134
:10052000E05CFF4F80819181329620813181821B76
:10053000930B8F7399270895FC0184859585FC01A1
:10054000E05CFF4F4081518132962081318142171A
:10055000530741F00190F081E02DE80FF91F8081F1
:1005600090E008958FEF9FEF0895FC0184859585B5
:10057000FC01E05CFF4F4081518132962081318146
:100580004217530779F0A081B181A80FB91F8C9150
:10059000208131812F5F3F4F2F7333273183208399
:1005A00090E008958FEF9FEF0895FC0181A18823CB
:1005B00029F0A489B5898C9186FFFBCF11A20895FB
:1005C000CF93DF93FC0126853785D901A05CBF4F0F
:1005D0008D919C91119701968F739927E901CE5BBC
:1005E000DF4F4881598184179507D9F30D90BC914D
:1005F000A02DA20FB31F6C93A685B785A05CBF4F3B
:1006000011969C938E93A689B7892C9181E090E0F6
:10061000078C02C0880F991F0A94E2F7282B2C93AD
:1006200081E081A30488F589E02D80818064808346
:1006300081E090E0DF91CF91089508951F920F928D
:100640000FB60F9211242F933F934F938F939F9345
:10065000EF93FF938091C00082FD1CC04091C600C3
:100660008091E9019091EA0101968F739927209179
:10067000EB013091EC018217930771F0E091E901F1
:10068000F091EA01E755FE4F40839093EA01809391
:10069000E90102C08091C600FF91EF919F918F9177
:1006A0004F913F912F910F900FBE0F901F90189573
:1006B00083E491E00E948C02892B11F00C941D03BD
:1006C00008951F920F920FB60F9211242F933F930C
:1006D0008F939F93EF93FF932091A5013091A601F3
:1006E0008091A7019091A8012817390731F48091D2
:1006F000C1008F7D8093C10014C0E091A701F091EB
:10070000A801EB59FE4F20818091A7019091A8018B
:1007100001968F7399279093A8018093A701209346
:10072000C600FF91EF919F918F913F912F910F9074
:100730000FBE0F901F901895CF92DF92EF92FF920D
:10074000CF93DF93EC016A017B01411581EE5807DD
:1007500061057105F9F0EC89FD8981E090E008A060
:1007600002C0880F991F0A94E2F7808360E079E065
:100770008DE390E0A70196010E949D082150310968
:10078000410951095695479537952795211580E1DF
:10079000380798F0EC89FD89108260E874E88EE1F2
:1007A00090E0A70196010E949D082150310941095E
:1007B00051095695479537952795E889F9893083EA
:1007C000EA89FB89208319A2EE89FF89408181E0B3
:1007D00090E09C010C8C02C0220F331F0A94E2F7B8
:1007E000422B4083EE89FF8940819C010D8C02C021
:1007F000220F331F0A94E2F7422B4083EE89FF89D0
:1008000040819C010E8C02C0220F331F0A94E2F734
:10081000422B4083EE89FF8920810F8C02C0880F14
:10082000991F0A94E2F7809582238083DF91CF910C
:10083000FF90EF90DF90CF900895109246011092B4
:10084000450188EE93E0A0E0B0E0809347019093EB
:100850004801A0934901B0934A018DE091E0909343
:1008600044018093430189EA91E090935001809381
:100870004F0185E691E0909352018093510185EC00
:1008800090E0909354018093530184EC90E0909316
:1008900056018093550180EC90E09093580180932D
:1008A000570181EC90E090935A018093590182ECBA
:1008B00090E090935C0180935B0186EC90E09093D4
:1008C0005E0180935D0184E080935F0183E080930B
:1008D000600187E08093610185E08093620181E09F
:1008E0008093630108950E94F2010E94B000C8E560
:1008F000D3E00E944F012097E1F30E945803F9CF03
:10090000CF92DF92EF92FF920F931F93CF93DF93DB
:100910006C017A01EB01E60EF71E00E010E0CE1547
:10092000DF0561F06991D601ED91FC910190F081B4
:10093000E02DC6010995080F191FF1CFC801DF91FD
:10094000CF911F910F91FF90EF90DF90CF9008957E
:100950006115710581F0DB010D900020E9F7AD0113
:1009600041505109461B570BDC01ED91FC9102806F
:10097000F381E02D099480E090E008950C94A804A0
:10098000DC01ED91FC910190F081E02D09940F9331
:100990001F93CF93DF93EC016DE00E94C0048C01A4
:1009A0006AE0CE010E94C004800F911FDF91CF91B9
:1009B0001F910F9108958F929F92AF92BF92CF9205
:1009C000DF92EF92FF920F931F93CF93DF93CDB7F8
:1009D000DEB7A1970FB6F894DEBF0FBECDBF7C0186
:1009E000C42EE52FCB01D22E19A221E02D1510F037
:1009F0002AE0D22E8E010F5D1F4F8D2C912CA12C41
:100A0000B12C6C2D7E2FA50194010E949D088C2D88
:100A1000D29E80191124015011098A3014F4805D8E
:100A200001C0895CF801808321153105410551051C
:100A300021F0C22EE32FCA01E4CFB801C7010E9402
:100A4000A804A1960FB6F894DEBF0FBECDBFDF910C
:100A5000CF911F910F91FF90EF90DF90CF90BF90BB
:100A6000AF909F908F900895CF92DF92EF92FF9278
:100A70000F931F93CF93DF93EC016A017B01211544
:100A8000310579F4E881F9810190F081E02D642F3E
:100A9000DF91CF911F910F91FF90EF90DF90CF905A
:100AA00009942A303105E9F477FF1AC06DE20E94FB
:100AB000C0048C0144275527BA014C195D096E0901
:100AC0007F092AE0CE010E94DB04800F911FDF9195
:100AD000CF911F910F91FF90EF90DF90CF900895ED
:100AE0002AE0B701A601CE01DF91CF911F910F91AE
:100AF000FF90EF90DF90CF900C94DB044F925F92C9
:100B00006F927F928F929F92AF92BF92CF92DF921D
:100B1000EF92FF920F931F93CF93DF93EC016A0143
:100B20007B01B22E9A01AB01C701B6010E94990860
:100B3000882319F069E171E027C026013701E894A4
:100B400077F82FEF3FEF4FE75FE7C301B2010E9455
:100B5000990881110DC02FEF3FEF4FE75FE7C30109
:100B6000B2010E94E30618161CF46DE171E00CC09E
:100B70002FEF3FEF4FE75FE4C701B6010E94320855
:100B80001816ACF461E271E0CE01DF91CF911F91B4
:100B90000F91FF90EF90DF90CF90BF90AF909F901C
:100BA0008F907F906F905F904F900C94A8042FEFE0
:100BB0003FEF4FE75FECC701B6010E94E30687FDF8
:100BC000E1CF20E030E0A901C701B6010E94E306B1
:100BD00087FF0AC06DE2CE010E94C0048C01F7FAC3
:100BE000F094F7F8F09402C000E010E0A12C60E06F
:100BF00070E080E09FE3AB1441F020E030E040E2A1
:100C000051E40E94E706A394F6CF9B01AC01C70113
:100C1000B6010E947F066B017C010E9454072B01E4
:100C20003C010E9480079B01AC01C701B6010E94F4
:100C30007E066B017C012AE0B301A201CE010E9475
:100C4000DB04080F191FBB2039F065E271E0CE010B
:100C50000E94A804080F191F7B2C772041F120E087
:100C600030E040E251E4C701B6010E9436086B0152
:100C70007C010E944F074B01AA2497FCA094BA2C38
:100C80002AE030E0B501A401CE010E943405080F2E
:100C9000191FC501B4010E9482079B01AC01C70165
:100CA000B6010E947E066B017C017A94D6CFC80102
:100CB000DF91CF911F910F91FF90EF90DF90CF9038
:100CC000BF90AF909F908F907F906F905F904F906C
:100CD00008950F931F93CF93DF93EC010E947E053D
:100CE0008C01CE010E94C704800F911FDF91CF912C
:100CF0001F910F910895F8940C94C5085058BB2784
:100D0000AA270ED075C166D130F06BD120F031F436
:100D10009F3F11F41EF45BC10EF4E095E7FB51C157
:100D2000E92F77D180F3BA17620773078407950715
:100D300018F071F49EF58FC10EF4E0950B2EBA2FCA
:100D4000A02D0B01B90190010C01CA01A0011124D1
:100D5000FF27591B99F0593F50F4503E68F11A167D
:100D6000F040A22F232F342F4427585FF3CF46950E
:100D700037952795A795F0405395C9F77EF41F1630
:100D8000BA0B620B730B840BBAF09150A1F0FF0FFA
:100D9000BB1F661F771F881FC2F70EC0BA0F621FE6
:100DA000731F841F48F4879577956795B795F795D6
:100DB0009E3F08F0B3CF9395880F08F09927EE0F68
:100DC000979587950895D9D008F481E008950CD0BF
:100DD0000FC107D140F0FED030F021F45F3F19F091
:100DE000F0C0511139C1F3C014D198F39923C9F35C
:100DF0005523B1F3951B550BBB27AA276217730721
:100E0000840738F09F5F5F4F220F331F441FAA1FD4
:100E1000A9F333D00E2E3AF0E0E830D09150504094
:100E2000E695001CCAF729D0FE2F27D0660F771F42
:100E3000881FBB1F261737074807AB07B0E809F024
:100E4000BB0B802DBF01FF2793585F4F2AF09E3FB9
:100E5000510568F0B6C000C15F3FECF3983EDCF38B
:100E6000869577956795B795F7959F5FC9F7880F32
:100E7000911D9695879597F90895E1E0660F771F84
:100E8000881FBB1F621773078407BA0720F0621B15
:100E9000730B840BBA0BEE1F88F7E095089504D00E
:100EA0006894B111D9C00895BCD088F09F5790F0D4
:100EB000B92F9927B751A0F0D1F0660F771F881F7F
:100EC000991F1AF0BA95C9F712C0B13081F0C3D09A
:100ED000B1E00895C0C0672F782F8827B85F39F038
:100EE000B93FCCF3869577956795B395D9F73EF4DE
:100EF00090958095709561957F4F8F4F9F4F089586
:100F0000E89409C097FB3EF49095809570956195A3
:100F10007F4F8F4F9F4F9923A9F0F92F96E9BB2759
:100F20009395F695879577956795B795F111F8CFD5
:100F3000FAF4BB0F11F460FF1BC06F5F7F4F8F4F40
:100F40009F4F16C0882311F096E911C0772321F036
:100F50009EE8872F762F05C0662371F096E8862FCE
:100F600070E060E02AF09A95660F771F881FDAF725
:100F7000880F9695879597F90895990F0008550F52
:100F8000AA0BE0E8FEEF16161706E807F907C0F00F
:100F900012161306E407F50798F0621B730B840B17
:100FA000950B39F40A2661F0232B242B252B21F4F1
:100FB00008950A2609F4A140A6958FEF811D811D91
:100FC000089597F99F6780E870E060E008959FEFCB
:100FD00080EC089500240A941616170618060906D0
:100FE000089500240A94121613061406050608959F
:100FF000092E0394000C11F4882352F0BB0F40F427
:10100000BF2B11F460FF04C06F5F7F4F8F4F9F4F66
:10101000089557FD9058440F551F59F05F3F71F0E8
:101020004795880F97FB991F61F09F3F79F087954F
:101030000895121613061406551FF2CF4695F1DFD8
:1010400008C0161617061806991FF1CF8695710568
:10105000610508940895E894BB2766277727CB019C
:1010600097F908958ADF08F48FEF08950BD0C0CF69
:10107000B1DF28F0B6DF18F0952309F0A2CFA7CF93
:101080001124EACFC6DFA0F3959FD1F3950F50E06E
:10109000551F629FF001729FBB27F00DB11D639F2A
:1010A000AA27F00DB11DAA1F649F6627B00DA11DD0
:1010B000661F829F2227B00DA11D621F739FB00D76
:1010C000A11D621F839FA00D611D221F749F3327E6
:1010D000A00D611D231F849F600D211D822F762F7F
:1010E0006A2F11249F5750408AF0E1F088234AF07C
:1010F000EE0FFF1FBB1F661F771F881F91505040C8
:10110000A9F79E3F510570F05CCFA6CF5F3FECF38F
:10111000983EDCF3869577956795B795F795E795B3
:101120009F5FC1F7FE2B880F911D9695879597F9C4
:10113000089523DF880B990B0895A1E21A2EAA1BAC
:10114000BB1BFD010DC0AA1FBB1FEE1FFF1FA21777
:10115000B307E407F50720F0A21BB30BE40BF50B74
:10116000661F771F881F991F1A9469F760957095FD
:10117000809590959B01AC01BD01CF010895EE0FC4
:0E118000FF1F0590F491E02D0994F894FFCF25
:10118E00014552524F523A200000000000E002800A
:10119E00048C02B5029C02D5026E616E00696E6609
:0811AE00006F7666002E0000C0
:00000001FF
