:100000000C9459000C9481000C9481000C94810094
:100010000C9481000C9481000C9481000C9481005C
:100020000C9481000C9481000C9481000C9481004C
:100030000C9481000C9481000C9481000C9481003C
:100040000C944F050C9481000C9481000C94810059
:100050000C9481000C9481000C9481000C9481001C
:100060000C9481000C948100000000070002010044
:100070000003040600000000000000000102040864
:100080001020408001020408102001020408102002
:10009000040404040404040402020202020203032E
:1000A0000303030300000000250028002B00F000DC
:1000B0008A0211241FBECFEFD8E0DEBFCDBF11E012
:1000C000A0E0B1E0ECE0F0E102C005900D92AA30B2
:1000D000B107D9F721E0AAE0B1E001C01D92A6372F
:1000E000B207E1F710E0C2EBD0E004C02297FE01B6
:1000F0000E940008CE3AD107C9F70E940A030C9467
:10010000E0050C9400000F931F9361E070E08AE01B
:1001100091E00E94900400E010E024E333E440E02A
:1001200050E0BA018AE091E00E94CA031F910F914A
:100130000895CF92DF92EF92FF92CF93DF93EC017D
:100140001882C0905B01D0905C01E0905D01F0905E
:100150005E0120E030E0A901C701B6010E949707C7
:100160001816BCF420E030E040EA50E4C701B601C4
:100170000E9497071816BCF44091680150916901DC
:1001800060916A0170916B0183E591E00E943602F3
:10019000D8CF20E030E040EA50ECC701B6010E9421
:1001A000480687FDE9CF81E08883DF91CF91FF90FA
:1001B000EF90DF90CF900895CF93DF93EC014093C1
:1001C00068015093690160936A0170936B0183E544
:1001D00091E00E943602CE01DF91CF910C949900FC
:1001E000AF92BF92CF92DF92EF92FF920F931F9345
:1001F00009E010E024E030E043E050E060E070E02F
:1002000083E591E00E94DB01A0900001B090010124
:10021000C0900201D0900301E0900401F09005012C
:1002200000910601109107011F921F9280914601D3
:100230008F93809145018F93809144018F9380919A
:1002400043018F932FE431E047E451E06BE471E028
:100250008AE091E00E94E2040F900F900F900F90BF
:100260000F900F901F910F91FF90EF90DF90CF9024
:10027000BF90AF900895FC017183608353834283E4
:10028000358324830895CF93DF93EC0160E0888168
:100290000E94D40261E08A81DF91CF910C94D40254
:1002A000CF93DF93EC0161E088810E94D40260E08B
:1002B0008A81DF91CF910C94D402CF93DF93EC012C
:1002C00060E088810E94D40260E08A81DF91CF9152
:1002D0000C94D4028F929F92AF92BF92CF92DF92F2
:1002E000EF92FF920F931F93CF93DF93EC016A017C
:1002F0007B014801590120E030E0A901C701B601A6
:100300000E949707A501940118160CF43DC0C7017F
:10031000B60190580E94480618167CF0CE01DF9175
:10032000CF911F910F91FF90EF90DF90CF90BF90F2
:10033000AF909F908F900C945D0120E030E0A90178
:10034000C701B6010E94970718167CF4CE01DF9111
:10035000CF911F910F91FF90EF90DF90CF90BF90C2
:10036000AF909F908F900C945001CE01DF91CF9170
:100370001F910F91FF90EF90DF90CF90BF90AF90C3
:100380009F908F900C944301C701B6010E944806CC
:100390001816E4F2C3CF6F3F710509F034F46A3ADE
:1003A00071052CF46AEA70E002C06FEF70E0FC01A6
:1003B00084810C94D402CF92DF92EF92FF920F933C
:1003C0001F93CF93DF93EC016B01BA01A901980150
:1003D0007C018FE0E80EF11CC7010E943B01DD8625
:1003E000CC861E866FEF70E0C701DF91CF911F9121
:1003F0000F91FF90EF90DF90CF900C94CB01FC0118
:1004000084850C948E020E94FF010F97BC018827FF
:1004100077FD8095982F0E94E7062BEC32EB4CE29B
:100420005EE30E949B070E94B406CB010895CF9320
:10043000DF93EC010E940302BC01882777FD8095C1
:10044000982F0E94E7069B01AC01688379838A8319
:100450009B836C817D818E819F810E94E3056887EB
:1004600079878A879B87DF91CF910895CF92DF921A
:10047000EF92FF920F931F93CF93DF93EC016A01EA
:100480007B018E85882309F120E030E040E251E4D1
:10049000C701B6010E94480687FD11C020E030E088
:1004A00040E253E4C701B6010E94970787FD0DC0E3
:1004B000C12CD12C30E2E32E33E4F32E06C0C12C44
:1004C000D12C20E2E22E21E4F22ECC82DD82EE82DB
:1004D000FF82CE010E941702488559856A857B8577
:1004E00000E010E020EA30E4CE010F960E946A019D
:1004F000DF91CF911F910F91FF90EF90DF90CF9000
:100500000895089540E050E062E073E48CE691E0E5
:100510000C94DC008CE691E00C9483008E3008F0A3
:100520008E5087702091080190E4299F900111243A
:10053000822B80937C0080917A00806480937A0083
:1005400080917A0086FDFCCF80917800209179001F
:1005500090E0922B0895833081F028F4813099F057
:100560008230A1F008958630A9F08730B9F0843048
:10057000D1F4809180008F7D03C0809180008F77BF
:1005800080938000089584B58F7702C084B58F7DF5
:1005900084BD08958091B0008F7703C08091B00032
:1005A0008F7D8093B00008950F931F93CF93DF93B7
:1005B0001F92CDB7DEB7282F30E0F901E859FF4F81
:1005C0008491F901E458FF4F1491F901E057FF4F6E
:1005D00004910023C9F0882321F069830E94AB02B3
:1005E0006981E02FF0E0EE0FFF1FEC55FF4FA59162
:1005F000B4919FB7F8948C91611103C01095812339
:1006000001C0812B8C939FBF0F90DF91CF911F91E1
:100610000F9108950E94A5050E948102C0E0D0E0DC
:100620000E9482022097E1F30E940000F9CF2F92EE
:100630003F924F925F926F927F928F929F92AF9272
:10064000BF92CF92DF92EF92FF920F931F93CF93BF
:10065000DF9300D000D0CDB7DEB71C012A013B01EB
:100660004801590120E030E0A901C301B2010E9414
:10067000480687FD78C020E030E0A901C501B4013B
:100680000E94480687FD6FC020E030E0A901C70145
:10069000B6010E94480687FD66C0F1014082518282
:1006A0006282738284829582A682B782C086D18656
:1006B000E286F38664A575A586A597A50E94E50642
:1006C00020E030E04AE754E40E944C0669837A83D4
:1006D0008B839C83F10144865586668677869B01D1
:1006E000AC01C501B4010E949B074B015C01F10103
:1006F000608B718B828B938B29813A814B815C81DA
:10070000C701B6010E944C066B017C01F101648BAC
:10071000758B868B978B808D918D019721F5A30129
:10072000920160E070E0CB010E94E305F101648773
:10073000758786879787A501940160E070E0CB01FB
:100740000E94E305F101608B718B828B938BA70173
:10075000960160E070E0CB010E94E305F101648B3B
:10076000758B868B978B0F900F900F900F90DF916A
:10077000CF911F910F91FF90EF90DF90CF90BF909E
:10078000AF909F908F907F906F905F904F903F9031
:100790002F9008952F923F924F925F926F927F9287
:1007A0008F929F92AF92BF92CF92DF92EF92FF9281
:1007B0000F931F93CF93DF93EC016A017B014801F4
:1007C0005901A9019801C701B6010E94970787FF47
:1007D0004EC0C8AAD9AAEAAAFBAA8CAA9DAAAEAA08
:1007E000BFAA88AD882309F442C02C8C3D8CF1014E
:1007F0004080518062807380A5019401C301B201E1
:100800000E949707181634F4F10180829182A28227
:10081000B3820DC0A7019601C301B2010E94480630
:1008200087FF05C0F101C082D182E282F3828CA0F1
:100830009DA0AEA0BFA0CCA8DDA8EEA8FFA8A701F0
:100840009601C501B4010E949707181664F0C8A864
:10085000D9A8EAA8FBA8A7019601C501B4010E9486
:10086000480687FF04C0CCA2DDA2EEA2FFA2DF9162
:10087000CF911F910F91FF90EF90DF90CF90BF909D
:10088000AF909F908F907F906F905F904F903F9030
:100890002F9008958F929F92AF92BF92CF92DF9246
:1008A000EF92FF92CF93DF93EC01EC8DFD8DC08032
:1008B000D180E280F380CCA2DDA2EEA2FFA2EA8D7D
:1008C000FB8D80819181A281B38188A799A7AAA776
:1008D000BBA78CA89DA8AEA8BFA8A5019401C7017D
:1008E000B6010E949707181664F088A899A8AAA8CC
:1008F000BBA8A5019401C701B6010E94480687FF65
:1009000004C08CA29DA2AEA2BFA2DF91CF91FF90A6
:10091000EF90DF90CF90BF90AF909F908F90089511
:100920001F93CF93DF93EC0111E06130710509F063
:1009300010E088AD91E08927181303C0CE010E9412
:100940004A0418AFDF91CF911F9108950F931F9321
:10095000CF93DF93EC018B0188AD882361F1888D03
:10096000998D6817790739F12C853D854E855F850E
:1009700060E070E0CB010E94E3056C877D878E8785
:100980009F87288939894A895B8960E070E0CB01BB
:100990000E94E305688B798B8A8B9B8B2C893D8920
:1009A0004E895F8960E070E0CB010E94E3056C8BAB
:1009B0007D8B8E8B9F8B198F088FDF91CF911F912D
:1009C0000F9108954F925F926F927F928F929F92B4
:1009D000AF92BF92CF92DF92EF92FF920F931F934D
:1009E000CF93DF9300D000D0CDB7DEB74C01270105
:1009F0003801A982BA82CB82DC82FC01558F448FF8
:100A0000738F628F378F268F10AE10AA11AA12AA89
:100A100013AA80E090E0AFE7B3E484AB95ABA6AB5C
:100A2000B7AB84E690E0A0E0B0E084A795A7A6A7C6
:100A3000B7A76B8D7C8DC4010E94A604CF88D88C8B
:100A4000E98CFA8C09811A812B813C81B301A201C6
:100A5000C4010E9417030E949905F40144A455A4FF
:100A600066A477A4641975098609970960A371A320
:100A700082A393A30F900F900F900F90DF91CF91CF
:100A80001F910F91FF90EF90DF90CF90BF90AF90AC
:100A90009F908F907F906F905F904F9008951F92DE
:100AA0000F920FB60F9211242F933F938F939F9322
:100AB000AF93BF9380916E0190916F01A0917001EF
:100AC000B091710130916D0123E0230F2D3720F497
:100AD0000196A11DB11D05C026E8230F0296A11D98
:100AE000B11D20936D0180936E0190936F01A093CF
:100AF0007001B09371018091720190917301A09186
:100B00007401B09175010196A11DB11D8093720110
:100B100090937301A0937401B0937501BF91AF914D
:100B20009F918F913F912F910F900FBE0F901F902B
:100B300018952FB7F89460916E0170916F018091B4
:100B40007001909171012FBF0895789484B58260EF
:100B500084BD84B5816084BD85B5826085BD85B561
:100B6000816085BDEEE6F0E0808181608083E1E810
:100B7000F0E0108280818260808380818160808348
:100B8000E0E8F0E0808181608083E1EBF0E080814B
:100B900084608083E0EBF0E0808181608083EAE71D
:100BA000F0E08081846080838081826080838081A6
:100BB000816080838081806880831092C100089565
:100BC000F8940C9404085058BB27AA270ED075C17E
:100BD00066D130F06BD120F031F49F3F11F41EF458
:100BE0005BC10EF4E095E7FB51C1E92F77D180F3AB
:100BF000BA17620773078407950718F071F49EF51A
:100C00008FC10EF4E0950B2EBA2FA02D0B01B90168
:100C100090010C01CA01A0011124FF27591B99F072
:100C2000593F50F4503E68F11A16F040A22F232F7E
:100C3000342F4427585FF3CF469537952795A795CE
:100C4000F0405395C9F77EF41F16BA0B620B730B75
:100C5000840BBAF09150A1F0FF0FBB1F661F771FE6
:100C6000881FC2F70EC0BA0F621F731F841F48F49B
:100C7000879577956795B795F7959E3F08F0B3CF21
:100C80009395880F08F09927EE0F9795879508950B
:100C9000D9D008F481E008950CD00FC107D140F0FD
:100CA000FED030F021F45F3F19F0F0C0511139C18E
:100CB000F3C014D198F39923C9F35523B1F3951BCD
:100CC000550BBB27AA2762177307840738F09F5F6D
:100CD0005F4F220F331F441FAA1FA9F333D00E2EDC
:100CE0003AF0E0E830D091505040E695001CCAF749
:100CF00029D0FE2F27D0660F771F881FBB1F26170E
:100D000037074807AB07B0E809F0BB0B802DBF01E0
:100D1000FF2793585F4F2AF09E3F510568F0B6C0F9
:100D200000C15F3FECF3983EDCF3869577956795BD
:100D3000B795F7959F5FC9F7880F911D9695879591
:100D400097F90895E1E0660F771F881FBB1F6217B0
:100D500073078407BA0720F0621B730B840BBA0B6E
:100D6000EE1F88F7E095089504D06894B111D9C0BA
:100D70000895BCD088F09F5790F0B92F9927B751AC
:100D8000A0F0D1F0660F771F881F991F1AF0BA954F
:100D9000C9F712C0B13081F0C3D0B1E00895C0C02E
:100DA000672F782F8827B85F39F0B93FCCF3869545
:100DB00077956795B395D9F73EF4909580957095A2
:100DC00061957F4F8F4F9F4F0895E89409C097FB1F
:100DD0003EF490958095709561957F4F8F4F9F4F12
:100DE0009923A9F0F92F96E9BB279395F695879556
:100DF00077956795B795F111F8CFFAF4BB0F11F419
:100E000060FF1BC06F5F7F4F8F4F9F4F16C08823BF
:100E100011F096E911C0772321F09EE8872F762FF5
:100E200005C0662371F096E8862F70E060E02AF036
:100E30009A95660F771F881FDAF7880F9695879522
:100E400097F90895990F0008550FAA0BE0E8FEEFF7
:100E500016161706E807F907C0F012161306E4077E
:100E6000F50798F0621B730B840B950B39F40A2677
:100E700061F0232B242B252B21F408950A2609F455
:100E8000A140A6958FEF811D811D089597F99F6759
:100E900080E870E060E008959FEF80EC0895002402
:100EA0000A941616170618060906089500240A94CF
:100EB00012161306140605060895092E0394000C55
:100EC00011F4882352F0BB0F40F4BF2B11F460FFE4
:100ED00004C06F5F7F4F8F4F9F4F089557FD90580D
:100EE000440F551F59F05F3F71F04795880F97FBEE
:100EF000991F61F09F3F79F08795089512161306A8
:100F00001406551FF2CF4695F1DF08C016161706D6
:100F10001806991FF1CF869571056105089408950B
:100F2000E894BB2766277727CB0197F908958ADFD6
:100F300008F48FEF08950BD0C0CFB1DF28F0B6DFF3
:100F400018F0952309F0A2CFA7CF1124EACFC6DF6E
:100F5000A0F3959FD1F3950F50E0551F629FF001CC
:100F6000729FBB27F00DB11D639FAA27F00DB11D25
:100F7000AA1F649F6627B00DA11D661F829F2227AE
:100F8000B00DA11D621F739FB00DA11D621F839F35
:100F9000A00D611D221F749F3327A00D611D231F0B
:100FA000849F600D211D822F762F6A2F11249F5759
:100FB00050408AF0E1F088234AF0EE0FFF1FBB1F7C
:100FC000661F771F881F91505040A9F79E3F51051B
:100FD00070F05CCFA6CF5F3FECF3983EDCF38695D4
:100FE00077956795B795F795E7959F5FC1F7FE2BC6
:100FF000880F911D9695879597F90895EE0FFF1F1D
:0C1000000590F491E02D0994F894FFCFC6
:0A100C000AD7233C48E1FA3E010038
:00000001FF
