:100000000C945A000C9482000C9482000C94820090
:100010000C9482000C9482000C9482000C94820058
:100020000C9482000C9482000C9482000C94820048
:100030000C9482000C9482000C9482000C94820038
:100040000C942B020C9482000C94EB040C942E055F
:100050000C9482000C9482000C9482000C94820018
:100060000C9482000C948200000000070002010042
:100070000003040600000000000000000102040864
:100080001020408001020408102001020408102002
:10009000040404040404040402020202020203032E
:1000A0000303030300000000250028002B00FC00D0
:1000B000E901EA0511241FBECFEFD8E0DEBFCDBFB6
:1000C00011E0A0E0B1E0E0ECF7E102C005900D9294
:1000D000A631B107D9F722E0A6E1B1E001C01D9237
:1000E000AA32B207E1F710E0C4EBD0E004C02297D7
:1000F000FE010E94DA0BCE3AD107C9F70E944C04E8
:100100000C9498090C9400006FEF70E086E191E088
:100110000C948A0180E00E94BC028B97BC01882766
:1001200077FD8095982F0E949F0A2AEC3DE64EEAC3
:100130005EE30E94530B0E946C0ACB0108950F935B
:100140001F93CF93DF9300D000D0CDB7DEB78C01E3
:100150000E948A00BC01882777FD8095982F0E9415
:100160009F0A9B01AC01F8016083718382839383B2
:1001700064817581882777FD8095982F29833A833C
:100180004B835C830E949F0A29813A814B815C8169
:100190000E949B09F80166837783808791870F907F
:1001A0000F900F900F90DF91CF911F910F910895B5
:1001B000CF92DF92EF92FF92CF93DF93EC016A012F
:1001C0007B01CB01BA010E946C0A7D836C83CE0156
:1001D0000E949F0022E030E0B701A60186E191E095
:1001E000DF91CF91FF90EF90DF90CF900C9435018D
:1001F000FC0184819581089529E030E044E050E0DD
:1002000063E070E086E191E00C940601FC017183EB
:10021000608353834283358324830895CF93DF9390
:10022000EC0160E088810E94020361E08A81DF9135
:10023000CF910C940203CF93DF93EC0161E08881AE
:100240000E94020360E08A81DF91CF910C94020347
:10025000CF93DF93EC0160E088810E94020360E0AD
:100260008A81DF91CF910C940203CF92DF92EF92BB
:10027000FF920F931F93CF93DF93EC016A017B01F1
:100280008901B901882777FD8095982F0E949F0AE0
:100290009B01AC01C701B6010E94000A1816DCF0F0
:1002A00066277727601B710B882777FD8095982F2D
:1002B0000E949F0AA70196010E94000A18165CF08E
:1002C000CE01DF91CF911F910F91FF90EF90DF90C2
:1002D000CF900C94280120E030E0A901C701B601BD
:1002E0000E944F0B18165CF4CE01DF91CF911F9145
:1002F0000F91FF90EF90DF90CF900C941B01CE01F7
:10030000DF91CF911F910F91FF90EF90DF90CF90F1
:100310000C940E016F3F710509F034F46A3A7105CF
:100320002CF46AEA70E002C06FEF70E0FC01848197
:100330000C9402030F931F9340E855E260E070E0D5
:1003400080E891E00E94690561E070E08AE291E056
:100350000E94D90800E010E024E333E440E050E0DC
:10036000BA018AE291E00E94130840E855E260E099
:1003700070E080E891E01F910F910C9469058CE189
:1003800091E00E94F8004AE050E0BC0180E891E072
:100390000E9434040E94750228EE33E040E050E0F1
:1003A0000E94B60B20932601309327014093280129
:1003B000509329018CE191E00E949F008AE291E034
:1003C0000E94400640E050E0BA018CE191E00C94BC
:1003D000D800AF92BF92CF92DF92EF92FF920F932D
:1003E0001F93A0906701B0906801C0906901D09000
:1003F0006A01E0900001F09001010091020110916A
:1004000003011F921F92809166018F938091650175
:100410008F93809164018F93809163018F9323E781
:1004200031E04BE651E06FE671E08AE291E00E9434
:100430002B090F900F900F900F900F900F908CE161
:1004400091E01F910F91FF90EF90DF90CF90BF90C0
:10045000AF900C9484001F920F920FB60F9211244C
:100460002F933F938F939F93AF93BF938091780186
:1004700090917901A0917A01B0917B01309177013F
:1004800023E0230F2D3720F40196A11DB11D05C0D7
:1004900026E8230F0296A11DB11D209377018093BA
:1004A000780190937901A0937A01B0937B018091B8
:1004B0007C0190917D01A0917E01B0917F01019618
:1004C000A11DB11D80937C0190937D01A0937E01BD
:1004D000B0937F01BF91AF919F918F913F912F91E9
:1004E0000F900FBE0F901F9018952FB7F894609142
:1004F00078017091790180917A0190917B012FBFF1
:100500000895789484B5826084BD84B5816084BD8B
:1005100085B5826085BD85B5816085BDEEE6F0E07C
:10052000808181608083E1E8F0E0108280818260D8
:100530008083808181608083E0E8F0E08081816059
:100540008083E1EBF0E0808184608083E0EBF0E089
:10055000808181608083EAE7F0E08081846080832D
:1005600080818260808380818160808380818068D7
:1005700080831092C10008958E3008F08E508770ED
:100580002091040190E4299F90011124822B8093F3
:100590007C0080917A00806480937A0080917A0058
:1005A00086FDFCCF809178002091790090E0922B1D
:1005B0000895833081F028F4813099F08230A1F0E1
:1005C00008958630A9F08730B9F08430D1F4809155
:1005D00080008F7D03C0809180008F7780938000A2
:1005E000089584B58F7702C084B58F7D84BD08954A
:1005F0008091B0008F7703C08091B0008F7D809391
:10060000B00008950F931F93CF93DF931F92CDB740
:10061000DEB7282F30E0F901E859FF4F8491F90146
:10062000E458FF4F1491F901E057FF4F0491002364
:10063000C9F0882321F069830E94D9026981E02FE3
:10064000F0E0EE0FFF1FEC55FF4FA591B4919FB75F
:10065000F8948C91611103C01095812301C0812B06
:100660008C939FBF0F90DF91CF911F910F910895B1
:10067000CF92DF92EF92FF920F931F93CF93DF936E
:100680006C017A01EB01E60EF71E00E010E0CE15DA
:10069000DF0561F06991D601ED91FC910190F08147
:1006A000E02DC6010995080F191FF1CFC801DF9190
:1006B000CF911F910F91FF90EF90DF90CF90089511
:1006C0006115710581F0DB010D900020E9F7AD01A6
:1006D00041505109461B570BDC01ED91FC91028002
:1006E000F381E02D099480E090E00895DC01ED9124
:1006F000FC910190F081E02D09940F931F93CF930B
:10070000DF93EC016DE00E9476038C016AE0CE017C
:100710000E947603800F911FDF91CF911F910F915F
:1007200008958F929F92AF92BF92CF92DF92EF92F5
:10073000FF920F931F93CF93DF93CDB7DEB7A197AF
:100740000FB6F894DEBF0FBECDBF7C01C42EE52FDF
:10075000CB01D22E19A221E02D1510F02AE0D22EC5
:100760008E010F5D1F4F8D2C912CA12CB12C6C2D67
:100770007E2FA50194010E94B60B8C2DD29E80196C
:100780001124015011098A3014F4805D01C0895C84
:10079000F8018083211531054105510521F0C22E54
:1007A000E32FCA01E4CFB801C7010E946003A196FC
:1007B0000FB6F894DEBF0FBECDBFDF91CF911F9172
:1007C0000F91FF90EF90DF90CF90BF90AF909F90F0
:1007D0008F900895CF92DF92EF92FF920F931F9325
:1007E000CF93DF93EC016A017B012115310579F488
:1007F000E881F9810190F081E02D642FDF91CF91A4
:100800001F910F91FF90EF90DF90CF9009942A30C5
:100810003105E9F477FF1AC06DE20E9476038C017E
:1008200044275527BA014C195D096E097F092AE052
:10083000CE010E949103800F911FDF91CF911F91F4
:100840000F91FF90EF90DF90CF9008952AE0B701CD
:10085000A601CE01DF91CF911F910F91FF90EF90F4
:10086000DF90CF900C9491030F931F93CF93DF935E
:10087000EC019A01AB01662757FD6095762F0E9427
:10088000EA038C01CE010E947D03800F911FDF914E
:10089000CF911F910F9108950E9481020E949A01A9
:1008A000C5E2D5E00E94BF012097E1F30E94250533
:1008B000F9CFFC0124853585F901E05CFF4F80818B
:1008C0009181329620813181821B930B8F739927FE
:1008D0000895FC0184859585FC01E05CFF4F408113
:1008E00051813296208131814217530741F00190A6
:1008F000F081E02DE80FF91F808190E008958FEFDF
:100900009FEF0895FC0184859585FC01E05CFF4F15
:10091000408151813296208131814217530779F00D
:10092000A081B181A80FB91F8C91208131812F5FE7
:100930003F4F2F7333273183208390E008958FEF4B
:100940009FEF0895FC0181A1882329F0A489B5892E
:100950008C9186FFFBCF11A20895CF93DF93FC010A
:1009600026853785D901A05CBF4F8D919C91119749
:1009700001968F739927E901CE5BDF4F488159813A
:1009800084179507D9F30D90BC91A02DA20FB31F2A
:100990006C93A685B785A05CBF4F11969C938E93F0
:1009A000A689B7892C9181E090E0078C02C0880F5E
:1009B000991F0A94E2F7282B2C9381E081A30488E5
:1009C000F589E02D80818064808381E090E0DF9173
:1009D000CF91089508951F920F920FB60F92112490
:1009E0002F933F934F938F939F93EF93FF93809118
:1009F000C00082FD1CC04091C600809126029091EB
:100A0000270201968F73992720912802309129029D
:100A10008217930771F0E0912602F0912702EA51C4
:100A2000FE4F4083909327028093260202C080915C
:100A3000C600FF91EF919F918F914F913F912F9120
:100A40000F900FBE0F901F90189580E891E00E94C4
:100A50005904892B11F00C94EA0408951F920F9207
:100A60000FB60F9211242F933F938F939F93EF9381
:100A7000FF932091E2013091E3018091E401909194
:100A8000E5012817390731F48091C1008F7D8093EB
:100A9000C10014C0E091E401F091E501EE55FE4F74
:100AA00020818091E4019091E50101968F7399274F
:100AB0009093E5018093E4012093C600FF91EF91AC
:100AC0009F918F913F912F910F900FBE0F901F908C
:100AD0001895CF92DF92EF92FF92CF93DF93EC01C4
:100AE0006A017B01411581EE580761057105F9F036
:100AF000EC89FD8981E090E008A002C0880F991F71
:100B00000A94E2F7808360E079E08DE390E0A7014A
:100B100096010E94B60B21503109410951095695A1
:100B2000479537952795211580E1380798F0EC898E
:100B3000FD89108260E874E88EE190E0A7019601DB
:100B40000E94B60B2150310941095109569547952C
:100B500037952795E889F9893083EA89FB892083CD
:100B600019A2EE89FF89408181E090E09C010C8C04
:100B700002C0220F331F0A94E2F7422B4083EE8912
:100B8000FF8940819C010D8C02C0220F331F0A9403
:100B9000E2F7422B4083EE89FF8940819C010E8C55
:100BA00002C0220F331F0A94E2F7422B4083EE89E2
:100BB000FF8920810F8C02C0880F991F0A94E2F7E9
:100BC000809582238083DF91CF91FF90EF90DF901B
:100BD000CF900895109283011092820188EE93E0E5
:100BE000A0E0B0E08093840190938501A0938601FA
:100BF000B093870189E091E0909381018093800117
:100C000086EE91E090938D0180938C0182EA91E0D1
:100C100090938F0180938E0185EC90E090939101E9
:100C20008093900184EC90E09093930180939201E3
:100C300080EC90E0909395018093940181EC90E09A
:100C4000909397018093960182EC90E090939901A4
:100C50008093980186EC90E090939B0180939A0199
:100C600084E080939C0183E080939D0187E08093E2
:100C70009E0185E080939F0181E08093A00108950B
:100C80002F923F924F925F926F927F928F929F929C
:100C9000AF92BF92CF92DF92EF92FF920F931F938A
:100CA000CF93DF93CDB7DEB72B970FB6F894DEBFA7
:100CB0000FBECDBF9B878A87DC01D896BC91B983D4
:100CC000B11102C01982E2C00E9475026A837B835F
:100CD0008C839D83EA85FB8580A191A1A2A1B3A10C
:100CE0004A815B816C817D81481B590B6A0B7B0BB0
:100CF00084A595A5A6A5B7A5481759076A077B0738
:100D000008F3028CF38DE02D80809180A280B38067
:100D1000AA85BB855E96ED91FC915F97A501940134
:100D200060817181828193810E949B092B013C012A
:100D3000EA85FB8520893189428953890E94530BBA
:100D4000AA85BB8594962D913D914D915C91979785
:100D50000E949C096B017C01EA85FB8564A375A355
:100D600086A397A324A835A806A917A99101A801CD
:100D70000E944F0B18161CF4C101D80118C0AA8597
:100D8000BB85D0968D919D910D90BC91A02D8E83A9
:100D90009F83A887B9879C01AD01C701B6010E9456
:100DA000000A87FF0AC08E819F81A885B985EA85E0
:100DB000FB8584A395A3A6A3B7A3AA85BB851C9690
:100DC0002D913D914D915C911F97C301B2010E94FD
:100DD000530BEA85FB8524A135A146A157A10E94AA
:100DE0009C096B017C01AA85BB8598962D913D914C
:100DF0004D915C919B97C501B4010E949B09EA85C6
:100E0000FB8524893589468957890E94530B9B01AC
:100E1000AC01C701B6010E949B096B017C019101E5
:100E2000A8010E944F0B1816BCF0AA85BB85D0966E
:100E30002C90D097D1963C90D197D2960C91D29786
:100E4000D3961C919101A801B601C7010E94000A26
:100E500087FD02C016018701AA85BB855C96ED91CE
:100E6000FC915D97C101D80180839183A283B383F4
:100E7000EA85FB8580A691A6A2A6B3A68A819B815E
:100E8000AC81BD8180A391A3A2A3B3A389812B963A
:100E90000FB6F894DEBF0FBECDBFDF91CF911F918B
:100EA0000F91FF90EF90DF90CF90BF90AF909F9009
:100EB0008F907F906F905F904F903F902F9008950C
:100EC0002F923F924F925F926F927F928F929F925A
:100ED000AF92BF92CF92DF92EF92FF920F931F9348
:100EE000CF93DF9300D000D0CDB7DEB71C012A012D
:100EF0003B014801590120E030E0A901C301B201E2
:100F00000E94000A87FD78C020E030E0A901C501F9
:100F1000B4010E94000A87FD6FC020E030E0A90103
:100F2000C701B6010E94000A87FD66C0F101408238
:100F300051826282738284829582A682B782C08641
:100F4000D186E286F38664A575A586A597A50E943D
:100F50009D0A20E030E04AE754E40E94040A6983D5
:100F60007A838B839C83F1014486558666867786D7
:100F70009B01AC01C501B4010E94530B4B015C0104
:100F8000F101608B718B828B938B29813A814B812C
:100F90005C81C701B6010E94040A6B017C01F1016A
:100FA000648B758B868B978B808D918D019721F546
:100FB000A301920160E070E0CB010E949B09F10166
:100FC0006487758786879787A501940160E070E044
:100FD000CB010E949B09F101608B718B828B938BFB
:100FE000A701960160E070E0CB010E949B09F1012E
:100FF000648B758B868B978B0F900F900F900F9053
:10100000DF91CF911F910F91FF90EF90DF90CF90E4
:10101000BF90AF909F908F907F906F905F904F9018
:101020003F902F9008952F923F924F925F926F9230
:101030007F928F929F92AF92BF92CF92DF92EF9268
:10104000FF920F931F93CF93DF93EC016A017B0113
:1010500048015901A9019801C701B6010E944F0B2F
:1010600087FF4EC0C8AAD9AAEAAAFBAA8CAA9DAA41
:10107000AEAABFAA88AD882309F442C02C8C3D8C4F
:10108000F1014080518062807380A5019401C30109
:10109000B2010E944F0B181634F4F1018082918244
:1010A000A282B3820DC0A7019601C301B2010E94C2
:1010B000000A87FF05C0F101C082D182E282F3827B
:1010C0008CA09DA0AEA0BFA0CCA8DDA8EEA8FFA8D4
:1010D000A7019601C501B4010E944F0B181664F0D8
:1010E000C8A8D9A8EAA8FBA8A7019601C501B40120
:1010F0000E94000A87FF04C0CCA2DDA2EEA2FFA2DC
:10110000DF91CF911F910F91FF90EF90DF90CF90E3
:10111000BF90AF909F908F907F906F905F904F9017
:101120003F902F9008958F929F92AF92BF92CF924F
:10113000DF92EF92FF92CF93DF93EC01EC8DFD8D68
:10114000C080D180E280F380CCA2DDA2EEA2FFA21B
:10115000EA8DFB8D80819181A281B38188A799A7B7
:10116000AAA7BBA78CA89DA8AEA8BFA8A50194015B
:10117000C701B6010E944F0B181664F088A899A801
:10118000AAA8BBA8A5019401C701B6010E94000A44
:1011900087FF04C08CA29DA2AEA2BFA2DF91CF9117
:1011A000FF90EF90DF90CF90BF90AF909F908F9087
:1011B00008951F93CF93DF93EC0111E06130710527
:1011C00009F010E088AD91E08927181303C0CE0123
:1011D0000E94930818AFDF91CF911F9108950F934C
:1011E0001F93CF93DF93EC018B0188AD882361F1CE
:1011F000888D998D6817790739F12C853D854E8545
:101200005F8560E070E0CB010E949B096C877D8761
:101210008E879F87288939894A895B8960E070E0D9
:10122000CB010E949B09688B798B8A8B9B8B2C89C5
:101230003D894E895F8960E070E0CB010E949B0987
:101240006C8B7D8B8E8B9F8B198F088FDF91CF914D
:101250001F910F9108954F925F926F927F928F929C
:101260009F92AF92BF92CF92DF92EF92FF920F9335
:101270001F93CF93DF9300D000D0CDB7DEB74C01E2
:1012800027013801A982BA82CB82DC82FC01558F0A
:10129000448F738F628F378F268F10AE10AA11AADA
:1012A00012AA13AA80E090E0AFE7B3E484AB95AB59
:1012B000A6ABB7AB84E690E0A0E0B0E084A795A72A
:1012C000A6A7B7A76B8D7C8DC4010E94EF08CF88BD
:1012D000D88CE98CFA8C09811A812B813C81B3016D
:1012E000A201C4010E9460070E947502F40144A497
:1012F00055A466A477A4641975098609970960A3A3
:1013000071A382A393A30F900F900F900F90DF9182
:10131000CF911F910F91FF90EF90DF90CF90BF90F2
:10132000AF909F908F907F906F905F904F900895B7
:10133000F8940C94DE0B5058BB27AA270ED075C129
:1013400066D130F06BD120F031F49F3F11F41EF4E0
:101350005BC10EF4E095E7FB51C1E92F77D180F333
:10136000BA17620773078407950718F071F49EF5A2
:101370008FC10EF4E0950B2EBA2FA02D0B01B901F1
:1013800090010C01CA01A0011124FF27591B99F0FB
:10139000593F50F4503E68F11A16F040A22F232F07
:1013A000342F4427585FF3CF469537952795A79557
:1013B000F0405395C9F77EF41F16BA0B620B730BFE
:1013C000840BBAF09150A1F0FF0FBB1F661F771F6F
:1013D000881FC2F70EC0BA0F621F731F841F48F424
:1013E000879577956795B795F7959E3F08F0B3CFAA
:1013F0009395880F08F09927EE0F97958795089594
:10140000D9D008F481E008950CD00FC107D140F085
:10141000FED030F021F45F3F19F0F0C0511139C116
:10142000F3C014D198F39923C9F35523B1F3951B55
:10143000550BBB27AA2762177307840738F09F5FF5
:101440005F4F220F331F441FAA1FA9F333D00E2E64
:101450003AF0E0E830D091505040E695001CCAF7D1
:1014600029D0FE2F27D0660F771F881FBB1F261796
:1014700037074807AB07B0E809F0BB0B802DBF0169
:10148000FF2793585F4F2AF09E3F510568F0B6C082
:1014900000C15F3FECF3983EDCF386957795679546
:1014A000B795F7959F5FC9F7880F911D969587951A
:1014B00097F90895E1E0660F771F881FBB1F621739
:1014C00073078407BA0720F0621B730B840BBA0BF7
:1014D000EE1F88F7E095089504D06894B111D9C043
:1014E0000895BCD088F09F5790F0B92F9927B75135
:1014F000A0F0D1F0660F771F881F991F1AF0BA95D8
:10150000C9F712C0B13081F0C3D0B1E00895C0C0B6
:10151000672F782F8827B85F39F0B93FCCF38695CD
:1015200077956795B395D9F73EF49095809570952A
:1015300061957F4F8F4F9F4F0895E89409C097FBA7
:101540003EF490958095709561957F4F8F4F9F4F9A
:101550009923A9F0F92F96E9BB279395F6958795DE
:1015600077956795B795F111F8CFFAF4BB0F11F4A1
:1015700060FF1BC06F5F7F4F8F4F9F4F16C0882348
:1015800011F096E911C0772321F09EE8872F762F7E
:1015900005C0662371F096E8862F70E060E02AF0BF
:1015A0009A95660F771F881FDAF7880F96958795AB
:1015B00097F90895990F0008550FAA0BE0E8FEEF80
:1015C00016161706E807F907C0F012161306E40707
:1015D000F50798F0621B730B840B950B39F40A2600
:1015E00061F0232B242B252B21F408950A2609F4DE
:1015F000A140A6958FEF811D811D089597F99F67E2
:1016000080E870E060E008959FEF80EC089500248A
:101610000A941616170618060906089500240A9457
:1016200012161306140605060895092E0394000CDD
:1016300011F4882352F0BB0F40F4BF2B11F460FF6C
:1016400004C06F5F7F4F8F4F9F4F089557FD905895
:10165000440F551F59F05F3F71F04795880F97FB76
:10166000991F61F09F3F79F0879508951216130630
:101670001406551FF2CF4695F1DF08C0161617065F
:101680001806991FF1CF8695710561050894089594
:10169000E894BB2766277727CB0197F908958ADF5F
:1016A00008F48FEF08950BD0C0CFB1DF28F0B6DF7C
:1016B00018F0952309F0A2CFA7CF1124EACFC6DFF7
:1016C000A0F3959FD1F3950F50E0551F629FF00155
:1016D000729FBB27F00DB11D639FAA27F00DB11DAE
:1016E000AA1F649F6627B00DA11D661F829F222737
:1016F000B00DA11D621F739FB00DA11D621F839FBE
:10170000A00D611D221F749F3327A00D611D231F93
:10171000849F600D211D822F762F6A2F11249F57E1
:1017200050408AF0E1F088234AF0EE0FFF1FBB1F04
:10173000661F771F881F91505040A9F79E3F5105A3
:1017400070F05CCFA6CF5F3FECF3983EDCF386955C
:1017500077956795B795F795E7959F5FC1F7FE2B4E
:10176000880F911D9695879597F90895A1E21A2EF5
:10177000AA1BBB1BFD010DC0AA1FBB1FEE1FFF1F35
:10178000A217B307E407F50720F0A21BB30BE40B85
:10179000F50B661F771F881F991F1A9469F76095CC
:1017A0007095809590959B01AC01BD01CF01089586
:1017B000EE0FFF1F0590F491E02D0994F894FFCFF0
:1017C000000020410100000000AD043803590482EC
:0617D000046904A20400FC
:00000001FF
