:100000000C945E000C9486000C9486000C94860080
:100010000C9486000C9486000C9486000C94860048
:100020000C9486000C9486000C9486000C94860038
:100030000C9486000C9486000C9486000C94860028
:100040000C9465060C9486000C9486000C94860033
:100050000C9486000C9486000C9486000C94860008
:100060000C9486000C94860000000007000201003A
:100070000003040600000000000000000102040864
:100080001020408001020408102001020408102002
:10009000040404040404040402020202020203032E
:1000A0000303030300000000250028002B000000CC
:1000B0000000240027002A000901F30211241FBEBA
:1000C000CFEFD8E0DEBFCDBF11E0A0E0B1E0E8E3C4
:1000D000F2E102C005900D92A031B107D9F721E0FD
:1000E000A0E1B1E001C01D92A139B207E1F710E033
:1000F000CCEBD0E004C02297FE010E941609C83B59
:10010000D107C9F70E9420040C94F6060C94000055
:10011000EF92FF920F931F93CF93DF93EC017C013B
:100120008FEFE81AF80ACE0141960E94010280E0A2
:1001300090E0A0EAB0E489839A83AB83BC8361E05A
:1001400070E080E191E00E94A60500E010E024E369
:1001500033E440E050E0BA0180E191E00E94E00425
:1001600040E050E06AEF74E44D875E876F87788BDC
:10017000DF91CF911F910F91FF90EF900895CF9253
:10018000DF92EF92FF920F931F93CF93DF93EC01D7
:1001900018828C010F5E1F4FC98CDA8CEB8CFC8CA3
:1001A00020E030E0A901C701B6010E94AD08181691
:1001B00024F0C701B601905802C0C701B6012981D9
:1001C0003A814B815C810E94AD08181644F44D8140
:1001D0005E816F817885C8010E94A702DDCF81E032
:1001E0008883DF91CF911F910F91FF90EF90DF9067
:1001F000CF900895CF93DF93EC014D835E836F839F
:10020000788741960E94A702CE01DF91CF910C948E
:10021000BF00AF92BF92CF92DF92EF92FF920F9307
:100220001F93A0900001B0900101C0900201D090F6
:100230000301E0900401F090050100910601109186
:1002400007011F921F9280914C018F9380914B0167
:100250008F9380914A018F93809149018F9325E577
:1002600031E04DE451E061E571E080E191E00E9410
:10027000F8050F900F900F900F900F900F901F9117
:100280000F91FF90EF90DF90CF90BF90AF900895C7
:10029000CF93DF93EC0160E088810E94EA0361E084
:1002A0008A81DF91CF910C94EA03CF93DF93EC0125
:1002B00061E088810E94EA0360E08A81DF91CF914A
:1002C0000C94EA03CF93DF93EC0160E088810E94F5
:1002D000EA0360E08A81DF91CF910C94EA038F9268
:1002E0009F92AF92BF92CF92DF92EF92FF920F93C5
:1002F0001F93CF93DF93EC016A017B014801590101
:1003000020E030E0A901C701B6010E94AD08A501B7
:10031000940118160CF43DC0C701B60190580E9414
:100320005E0718167CF0CE01DF91CF911F910F91DF
:10033000FF90EF90DF90CF90BF90AF909F908F9005
:100340000C94620120E030E0A901C701B6010E94CF
:10035000AD0818167CF4CE01DF91CF911F910F915B
:10036000FF90EF90DF90CF90BF90AF909F908F90D5
:100370000C945501CE01DF91CF911F910F91FF9009
:10038000EF90DF90CF90BF90AF909F908F900C94A4
:100390004801C701B6010E945E071816E4F2C3CFF8
:1003A000FC01268121110CC06F3F710509F034F466
:1003B000653771052CF465E770E002C06FEF70E0FF
:1003C000FC0184810C942903CF93DF93EC01862FE9
:1003D000688379835B834A833D832C8361E00E9439
:1003E000B10361E08A810E94B10361E08C810E94C7
:1003F000B1031E8265E770E0CE01DF91CF910C94CE
:10040000D001AF92BF92CF92DF92EF92FF920F9303
:100410001F93CF93DF93EC015B01BA01A90198010F
:100420006C0185E1C80ED11CC6010E94E401F88A66
:10043000EF86BD86AC861E8640E050E060E271E447
:10044000498B5A8B6B8B7C8B60E070E0C601DF912F
:10045000CF911F910F91FF90EF90DF90CF90BF90C1
:10046000AF900C94D001CF92DF92EF92FF920F9356
:100470001F93CF93DF938A01D62FC72FFC01C1882A
:10048000D288E388F4889601A701B8018D2F9C2FAC
:100490000E945E0787FF03C08601DE2DCF2D9601E7
:1004A000A70160E070E084E393E40E94F9066B0129
:1004B0007C019B01AC01B8018D2F9C2F0E94AD08DF
:1004C00087FF03C06801ED2EFC2EB601C701DF9146
:1004D000CF911F910F91FF90EF90DF90CF900895F3
:1004E000FC0184850C940C030E9470020F97BC01E0
:1004F000882777FD8095982F0E94FD072EE63BED1B
:1005000046E35EE30E94B1080E94CA07CB0108954A
:10051000CF93DF93EC010E947402BC01882777FD22
:100520008095982F0E94FD079B01AC016883798319
:100530008A839B836C817D818E819F810E94F906D5
:10054000688779878A879B87DF91CF910895CF92BB
:10055000DF92EF92FF920F931F93CF93DF93EC0103
:100560006A017B0120E030E044E353E4C701B601B7
:100570000E94AD08181634F4C12CD12C84E3E82E67
:1005800083E4F82E8E85882339F0B701A601CE01C9
:100590000E9433026B017C01CC82DD82EE82FF82FD
:1005A000CE010E948802EF85F889008111812281A5
:1005B0003381488559856A857B85CE0145960E94A1
:1005C0006F01DF91CF911F910F91FF90EF90DF901E
:1005D000CF900895089540E050E064E373E489E526
:1005E00091E00C94FA000F931F9300910801109171
:1005F000090120910A0130910B0140910C015091A9
:100600000D01609186017091870189E591E00E945A
:1006100088001F910F9108958E3008F08E508770DA
:1006200020910E0190E4299F90011124822B809348
:100630007C0080917A00806480937A0080917A00B7
:1006400086FDFCCF809178002091790090E0922B7C
:1006500008951F93CF93DF93182FEB0161E00E9461
:10066000B103209711F460E004C0CF3FD10539F405
:1006700061E0812FDF91CF911F910C94EA03E12F6C
:10068000F0E0E859FF4FE491E330F9F048F4E1304D
:10069000B9F0E230A1F584B5806284BDC8BD34C034
:1006A000E630E9F0E73019F1E43049F58091800057
:1006B000806280938000D0938B00C0938A0024C016
:1006C00084B5806884BDC7BD1FC0809180008068EC
:1006D00080938000D0938900C093880015C08091DA
:1006E000B00080688093B000C093B3000DC08091CB
:1006F000B00080628093B000C093B40005C0C038E1
:10070000D1050CF0B5CFAFCFDF91CF911F910895F8
:10071000833081F028F4813099F08230A1F008957F
:100720008630A9F08730B9F08430D1F48091800010
:100730008F7D03C0809180008F7780938000089523
:1007400084B58F7702C084B58F7D84BD0895809174
:10075000B0008F7703C08091B0008F7D8093B00090
:100760000895CF93DF9390E0FC01E458FF4F24916C
:10077000FC01E057FF4F8491882349F190E0880FF6
:10078000991FFC01E255FF4FA591B4918C559F4FE5
:10079000FC01C591D4919FB7611108C0F8948C9168
:1007A000209582238C93888182230AC0623051F481
:1007B000F8948C91322F309583238C938881822BEF
:1007C000888304C0F8948C91822B8C939FBFDF9117
:1007D000CF9108950F931F93CF93DF931F92CDB7BF
:1007E000DEB7282F30E0F901E859FF4F8491F90175
:1007F000E458FF4F1491F901E057FF4F0491002393
:10080000C9F0882321F069830E9488036981E02F61
:10081000F0E0EE0FFF1FEC55FF4FA591B4919FB78D
:10082000F8948C91611103C01095812301C0812B34
:100830008C939FBF0F90DF91CF911F910F910895DF
:100840000E94BB060E94EA02C0E0D0E00E94EB02D8
:100850002097E1F30E940000F9CF2F923F924F9230
:100860005F926F927F928F929F92AF92BF92CF9240
:10087000DF92EF92FF920F931F93CF93DF9300D0FD
:1008800000D0CDB7DEB71C012A013B014801590158
:1008900020E030E0A901C301B2010E945E0787FD9C
:1008A00078C020E030E0A901C501B4010E945E07D4
:1008B00087FD6FC020E030E0A901C701B6010E94AA
:1008C0005E0787FD66C0F1014082518262827382B9
:1008D00084829582A682B782C086D186E286F3861C
:1008E00064A575A586A597A50E94FB0720E030E0CA
:1008F0004AE754E40E94620769837A838B839C836E
:10090000F10144865586668677869B01AC01C50158
:10091000B4010E94B1084B015C01F101608B718B45
:10092000828B938B29813A814B815C81C701B6010F
:100930000E9462076B017C01F101648B758B868BD1
:10094000978B808D918D019721F5A301920160E035
:1009500070E0CB010E94F906F101648775878687F4
:100960009787A501940160E070E0CB010E94F90631
:10097000F101608B718B828B938BA701960160E0F4
:1009800070E0CB010E94F906F101648B758B868BB8
:10099000978B0F900F900F900F90DF91CF911F9139
:1009A0000F91FF90EF90DF90CF90BF90AF909F900E
:1009B0008F907F906F905F904F903F902F90089511
:1009C0002F923F924F925F926F927F928F929F925F
:1009D000AF92BF92CF92DF92EF92FF920F931F934D
:1009E000CF93DF93EC016A017B0148015901A90112
:1009F0009801C701B6010E94AD0887FF4EC0C8AA82
:100A0000D9AAEAAAFBAA8CAA9DAAAEAABFAA88ADB7
:100A1000882309F442C02C8C3D8CF1014080518028
:100A200062807380A5019401C301B2010E94AD08E8
:100A3000181634F4F10180829182A282B3820DC033
:100A4000A7019601C301B2010E945E0787FF05C09E
:100A5000F101C082D182E282F3828CA09DA0AEA07F
:100A6000BFA0CCA8DDA8EEA8FFA8A7019601C501EC
:100A7000B4010E94AD08181664F0C8A8D9A8EAA865
:100A8000FBA8A7019601C501B4010E945E0787FF7C
:100A900004C0CCA2DDA2EEA2FFA2DF91CF911F91F4
:100AA0000F91FF90EF90DF90CF90BF90AF909F900D
:100AB0008F907F906F905F904F903F902F90089510
:100AC0008F929F92AF92BF92CF92DF92EF92FF925E
:100AD000CF93DF93EC01EC8DFD8DC080D180E2805F
:100AE000F380CCA2DDA2EEA2FFA2EA8DFB8D808175
:100AF0009181A281B38188A799A7AAA7BBA78CA837
:100B00009DA8AEA8BFA8A5019401C701B6010E9487
:100B1000AD08181664F088A899A8AAA8BBA8A501D2
:100B20009401C701B6010E945E0787FF04C08CA232
:100B30009DA2AEA2BFA2DF91CF91FF90EF90DF9078
:100B4000CF90BF90AF909F908F9008951F93CF93B9
:100B5000DF93EC0111E06130710509F010E088AD20
:100B600091E08927181303C0CE010E94600518AFD9
:100B7000DF91CF911F9108950F931F93CF93DF9330
:100B8000EC018B0188AD882361F1888D998D681700
:100B9000790739F12C853D854E855F8560E070E0F1
:100BA000CB010E94F9066C877D878E879F872889F5
:100BB00039894A895B8960E070E0CB010E94F906BF
:100BC000688B798B8A8B9B8B2C893D894E895F89B9
:100BD00060E070E0CB010E94F9066C8B7D8B8E8B00
:100BE0009F8B198F088FDF91CF911F910F910895DF
:100BF0004F925F926F927F928F929F92AF92BF922D
:100C0000CF92DF92EF92FF920F931F93CF93DF93D8
:100C100000D000D0CDB7DEB74C0127013801A98242
:100C2000BA82CB82DC82FC01558F448F738F628F36
:100C3000378F268F10AE10AA11AA12AA13AA80E02D
:100C400090E0AFE7B3E484AB95ABA6ABB7AB84E67B
:100C500090E0A0E0B0E084A795A7A6A7B7A76B8D0A
:100C60007C8DC4010E94BC05CF88D88CE98CFA8C9D
:100C700009811A812B813C81B301A201C4010E9428
:100C80002D040E94AF06F40144A455A466A477A4E1
:100C9000641975098609970960A371A382A393A3B8
:100CA0000F900F900F900F90DF91CF911F910F91A8
:100CB000FF90EF90DF90CF90BF90AF909F908F907C
:100CC0007F906F905F904F9008951F920F920FB694
:100CD0000F9211242F933F938F939F93AF93BF93C2
:100CE0008091890190918A01A0918B01B0918C0132
:100CF0003091880123E0230F2D3720F40196A11DA8
:100D0000B11D05C026E8230F0296A11DB11D209339
:100D100088018093890190938A01A0938B01B093FD
:100D20008C0180918D0190918E01A0918F01B091E5
:100D300090010196A11DB11D80938D0190938E01AC
:100D4000A0938F01B0939001BF91AF919F918F912C
:100D50003F912F910F900FBE0F901F9018952FB7B6
:100D6000F8946091890170918A0180918B01909132
:100D70008C012FBF0895789484B5826084BD84B5BA
:100D8000816084BD85B5826085BD85B5816085BD86
:100D9000EEE6F0E0808181608083E1E8F0E010829F
:100DA000808182608083808181608083E0E8F0E0E0
:100DB000808181608083E1EBF0E0808184608083CA
:100DC000E0EBF0E0808181608083EAE7F0E0808101
:100DD0008460808380818260808380818160808361
:100DE0008081806880831092C1000895F8940C94EB
:100DF0001A095058BB27AA270ED075C166D130F00A
:100E00006BD120F031F49F3F11F41EF45BC10EF45E
:100E1000E095E7FB51C1E92F77D180F3BA1762075C
:100E200073078407950718F071F49EF58FC10EF4CF
:100E3000E0950B2EBA2FA02D0B01B90190010C01EA
:100E4000CA01A0011124FF27591B99F0593F50F402
:100E5000503E68F11A16F040A22F232F342F44275A
:100E6000585FF3CF469537952795A795F040539552
:100E7000C9F77EF41F16BA0B620B730B840BBAF022
:100E80009150A1F0FF0FBB1F661F771F881FC2F78D
:100E90000EC0BA0F621F731F841F48F487957795A1
:100EA0006795B795F7959E3F08F0B3CF9395880F58
:100EB00008F09927EE0F979587950895D9D008F4F3
:100EC00081E008950CD00FC107D140F0FED030F082
:100ED00021F45F3F19F0F0C0511139C1F3C014D1B2
:100EE00098F39923C9F35523B1F3951B550BBB27F1
:100EF000AA2762177307840738F09F5F5F4F220F9E
:100F0000331F441FAA1FA9F333D00E2E3AF0E0E896
:100F100030D091505040E695001CCAF729D0FE2FE2
:100F200027D0660F771F881FBB1F26173707480774
:100F3000AB07B0E809F0BB0B802DBF01FF2793582A
:100F40005F4F2AF09E3F510568F0B6C000C15F3F79
:100F5000ECF3983EDCF3869577956795B795F79512
:100F60009F5FC9F7880F911D9695879597F908950A
:100F7000E1E0660F771F881FBB1F621773078407A6
:100F8000BA0720F0621B730B840BBA0BEE1F88F7B5
:100F9000E095089504D06894B111D9C00895BCD0EB
:100FA00088F09F5790F0B92F9927B751A0F0D1F052
:100FB000660F771F881F991F1AF0BA95C9F712C0DC
:100FC000B13081F0C3D0B1E00895C0C0672F782F51
:100FD0008827B85F39F0B93FCCF386957795679548
:100FE000B395D9F73EF490958095709561957F4FB4
:100FF0008F4F9F4F0895E89409C097FB3EF490955A
:101000008095709561957F4F8F4F9F4F9923A9F0E1
:10101000F92F96E9BB279395F69587957795679570
:10102000B795F111F8CFFAF4BB0F11F460FF1BC0B4
:101030006F5F7F4F8F4F9F4F16C0882311F096E947
:1010400011C0772321F09EE8872F762F05C06623F5
:1010500071F096E8862F70E060E02AF09A95660FAE
:10106000771F881FDAF7880F9695879597F9089567
:10107000990F0008550FAA0BE0E8FEEF16161706A9
:10108000E807F907C0F012161306E407F50798F011
:10109000621B730B840B950B39F40A2661F0232B2A
:1010A000242B252B21F408950A2609F4A140A695A6
:1010B0008FEF811D811D089597F99F6780E870E08B
:1010C00060E008959FEF80EC089500240A941616BE
:1010D000170618060906089500240A941216130626
:1010E000140605060895092E0394000C11F48823B4
:1010F00052F0BB0F40F4BF2B11F460FF04C06F5FD0
:101100007F4F8F4F9F4F089557FD9058440F551FA5
:1011100059F05F3F71F04795880F97FB991F61F079
:101120009F3F79F087950895121613061406551FF0
:10113000F2CF4695F1DF08C0161617061806991F5C
:10114000F1CF86957105610508940895E894BB2751
:1011500066277727CB0197F908958ADF08F48FEF88
:1011600008950BD0C0CFB1DF28F0B6DF18F095237B
:1011700009F0A2CFA7CF1124EACFC6DFA0F3959F35
:10118000D1F3950F50E0551F629FF001729FBB276E
:10119000F00DB11D639FAA27F00DB11DAA1F649F1A
:1011A0006627B00DA11D661F829F2227B00DA11DCD
:1011B000621F739FB00DA11D621F839FA00D611D53
:1011C000221F749F3327A00D611D231F849F600D74
:1011D000211D822F762F6A2F11249F5750408AF0AD
:1011E000E1F088234AF0EE0FFF1FBB1F661F771F39
:1011F000881F91505040A9F79E3F510570F05CCF79
:10120000A6CF5F3FECF3983EDCF386957795679524
:10121000B795F795E7959F5FC1F7FE2B880F911D56
:101220009695879597F90895EE0FFF1F0590F49115
:08123000E02D0994F894FFCFB2
:101238000AD7233C48E1FA3E0900040003000100F4
:00000001FF
