:100000000C945A000C9482000C9482000C94820090
:100010000C9482000C9482000C9482000C94820058
:100020000C9482000C9482000C9482000C94820048
:100030000C9482000C9482000C9482000C94820038
:100040000C942E020C9482000C94D3050C9416068A
:100050000C9482000C9482000C9482000C94820018
:100060000C9482000C948200000000070002010042
:100070000003040600000000000000000102040864
:100080001020408001020408102001020408102002
:10009000040404040404040402020202020203032E
:1000A0000303030300000000250028002B00FE00CE
:1000B000EC01D20611241FBECFEFD8E0DEBFCDBFCA
:1000C00011E0A0E0B1E0E8E9F9E102C005900D928D
:1000D000A432B107D9F722E0A4E2B1E001C01D9239
:1000E000A833B207E1F710E0C4EBD0E004C02297D8
:1000F000FE010E94C60CCE3AD107C9F70E94340512
:100100000C94800A0C9400006FEF70E084E291E0A0
:100110000C948C0180E00E94BF028B97BC01882761
:1001200077FD8095982F0E94870B2AEC3DE64EEADA
:100130005EE30E943B0C0E94540BCB0108950F9389
:100140001F93CF93DF9300D000D0CDB7DEB78C01E3
:100150000E948A00BC01882777FD8095982F0E9415
:10016000870B9B01AC01F8016083718382839383C9
:1001700064817581882777FD8095982F29833A833C
:100180004B835C830E94870B29813A814B815C8180
:100190000E94830AF80166837783808791870F9096
:1001A0000F900F900F90DF91CF911F910F910895B5
:1001B000CF92DF92EF92FF92CF93DF93EC016A012F
:1001C0007B01CB01BA010E94540B7D836C83CE016D
:1001D0000E949F0022E030E0B701A60184E291E096
:1001E000DF91CF91FF90EF90DF90CF900C9437018B
:1001F000FC016681778180859185089529E030E052
:1002000044E050E063E070E084E291E00C94080187
:10021000FC01718360835383428335832483089573
:10022000CF93DF93EC0160E088810E94050361E0D9
:100230008A81DF91CF910C940503CF93DF93EC017A
:1002400061E088810E94050360E08A81DF91CF919F
:100250000C940503CF93DF93EC0160E088810E944A
:10026000050360E08A81DF91CF910C940503CF9262
:10027000DF92EF92FF920F931F93CF93DF93EC01E6
:100280006A017B018901B901882777FD8095982F44
:100290000E94870B9B01AC01C701B6010E94E80ACE
:1002A0001816DCF066277727601B710B882777FD0F
:1002B0008095982F0E94870BA70196010E94E80A5B
:1002C00018165CF0CE01DF91CF911F910F91FF9036
:1002D000EF90DF90CF900C942A0120E030E0A9014C
:1002E000C701B6010E94370C18165CF4CE01DF91ED
:1002F000CF911F910F91FF90EF90DF90CF900C94D2
:100300001D01CE01DF91CF911F910F91FF90EF90D2
:10031000DF90CF900C9410016F3F710509F034F419
:100320006A3A71052CF46AEA70E002C06FEF70E07F
:10033000FC0184810C9405030F931F9340E855E260
:1003400060E070E08EE891E00E94510661E070E0AC
:1003500088E391E00E94C10900E010E024E333E467
:1003600040E050E0BA0188E391E00E94FB0840E8D9
:1003700055E260E070E08EE891E01F910F910C94DF
:1003800051068AE291E00E94F800AB01BC0122E034
:1003900030E08EE891E00E9422050E94780228EE6B
:1003A00033E040E050E00E94A20C209334013093EF
:1003B000350140933601509337018AE291E00E9463
:1003C0009F0088E391E00E94280740E050E0BA01D6
:1003D0008AE291E00C94D800AF92BF92CF92DF9264
:1003E000EF92FF920F931F93A0907501B09076014A
:1003F000C0907701D0907801E0900001F090010169
:1004000000910201109103011F921F9280917401CB
:100410008F93809173018F93809172018F9380915C
:1004200071018F9321E831E049E751E06DE771E018
:1004300088E391E00E94130A0F900F900F900F90A5
:100440000F900F908AE291E01F910F91FF90EF9033
:10045000DF90CF90BF90AF900C9484001F920F92CA
:100460000FB60F9211242F933F938F939F93AF93C7
:10047000BF938091860190918701A0918801B091EE
:1004800089013091850123E0230F2D3720F4019657
:10049000A11DB11D05C026E8230F0296A11DB11DA7
:1004A000209385018093860190938701A093880112
:1004B000B093890180918A0190918B01A0918C0168
:1004C000B0918D010196A11DB11D80938A01909379
:1004D0008B01A0938C01B0938D01BF91AF919F913F
:1004E0008F913F912F910F900FBE0F901F901895F5
:1004F0002FB7F894609186017091870180918801EF
:10050000909189012FBF0895789484B5826084BD4D
:1005100084B5816084BD85B5826085BD85B5816007
:1005200085BDEEE6F0E0808181608083E1E8F0E067
:100530001082808182608083808181608083E0E896
:10054000F0E0808181608083E1EBF0E08081846075
:100550008083E0EBF0E0808181608083EAE7F0E077
:1005600080818460808380818260808380818160DB
:1005700080838081806880831092C10008958E30CE
:1005800008F08E5087702091040190E4299F90011B
:100590001124822B80937C0080917A008064809368
:1005A0007A0080917A0086FDFCCF809178002091BE
:1005B000790090E0922B0895833081F028F4813007
:1005C00099F08230A1F008958630A9F08730B9F013
:1005D0008430D1F4809180008F7D03C080918000B1
:1005E0008F7780938000089584B58F7702C084B59B
:1005F0008F7D84BD08958091B0008F7703C0809176
:10060000B0008F7D8093B00008950F931F93CF9318
:10061000DF931F92CDB7DEB7282F30E0F901E859FC
:10062000FF4F8491F901E458FF4F1491F901E0570D
:10063000FF4F04910023C9F0882321F069830E94B1
:10064000DC026981E02FF0E0EE0FFF1FEC55FF4F59
:10065000A591B4919FB7F8948C91611103C0109546
:10066000812301C0812B8C939FBF0F90DF91CF918D
:100670001F910F910895CF92DF92EF92FF920F9307
:100680001F93CF93DF936C017A01EB01E60EF71E07
:1006900000E010E0CE15DF0561F06991D601ED9123
:1006A000FC910190F081E02DC6010995080F191FFA
:1006B000F1CFC801DF91CF911F910F91FF90EF9083
:1006C000DF90CF9008956115710581F0DB010D90E9
:1006D0000020E9F7AD0141505109461B570BDC01E1
:1006E000ED91FC910280F381E02D099480E090E08F
:1006F0000895DC01ED91FC910190F081E02D0994C9
:100700000F931F93CF93DF93EC016DE00E94790369
:100710008C016AE0CE010E947903800F911FDF9166
:10072000CF911F910F9108958F929F92AF92BF9298
:10073000CF92DF92EF92FF920F931F93CF93DF93AD
:10074000CDB7DEB7A1970FB6F894DEBF0FBECDBF11
:100750007C01C42EE52FCB01D22E19A221E02D154C
:1007600010F02AE0D22E8E010F5D1F4F8D2C912CA0
:10077000A12CB12C6C2D7E2FA50194010E94A20CFE
:100780008C2DD29E80191124015011098A3014F445
:10079000805D01C0895CF801808321153105410528
:1007A000510521F0C22EE32FCA01E4CFB801C701E1
:1007B0000E946303A1960FB6F894DEBF0FBECDBFB3
:1007C000DF91CF911F910F91FF90EF90DF90CF902D
:1007D000BF90AF909F908F900895CF92DF92EF924D
:1007E000FF920F931F93CF93DF93EC016A017B017C
:1007F0002115310579F4E881F9810190F081E02D2E
:10080000642FDF91CF911F910F91FF90EF90DF90B8
:10081000CF9009942A303105E9F477FF1AC06DE2D0
:100820000E9479038C0144275527BA014C195D09B0
:100830006E097F092AE0CE010E949403800F911F68
:10084000DF91CF911F910F91FF90EF90DF90CF90AC
:1008500008952AE0B701A601CE01DF91CF911F9143
:100860000F91FF90EF90DF90CF900C9494034F92F4
:100870005F926F927F928F929F92AF92BF92CF9230
:10088000DF92EF92FF920F931F93CF93DF93EC01D0
:100890006A017B01B22E9A01AB01C701B6010E9429
:1008A0009E0C882319F065E071E027C0260137010E
:1008B000E89477F82FEF3FEF4FE75FE7C301B2010E
:1008C0000E949E0C81110DC02FEF3FEF4FE75FE7B5
:1008D000C301B2010E94E80A18161CF469E071E035
:1008E0000CC02FEF3FEF4FE75FE4C701B6010E9456
:1008F000370C1816ACF46DE071E0CE01DF91CF91AA
:100900001F910F91FF90EF90DF90CF90BF90AF902D
:100910009F908F907F906F905F904F900C946303A7
:100920002FEF3FEF4FE75FECC701B6010E94E80AE7
:1009300087FDE1CF20E030E0A901C701B6010E94A8
:10094000E80A87FF0AC06DE2CE010E9479038C019C
:10095000F7FAF094F7F8F09402C000E010E0A12C50
:1009600060E070E080E09FE3AB1441F020E030E015
:1009700040E251E40E94EC0AA394F6CF9B01AC0143
:10098000C701B6010E94840A6B017C010E94590BC9
:100990002B013C010E94850B9B01AC01C701B601F4
:1009A0000E94830A6B017C012AE0B301A201CE01FF
:1009B0000E949403080F191FBB2039F061E171E018
:1009C000CE010E946303080F191F7B2C772041F191
:1009D00020E030E040E251E4C701B6010E943B0C48
:1009E0006B017C010E94540B4B01AA2497FCA0943C
:1009F000BA2C2AE030E0B501A401CE010E94ED033B
:100A0000080F191FC501B4010E94870B9B01AC019F
:100A1000C701B6010E94830A6B017C017A94D6CF8C
:100A2000C801DF91CF911F910F91FF90EF90DF9060
:100A3000CF90BF90AF909F908F907F906F905F907E
:100A40004F9008950F931F93CF93DF93EC010E9473
:100A500037048C01CE010E948003800F911FDF912B
:100A6000CF911F910F9108950E9484020E949C01D2
:100A7000CDE0D6E00E94C1012097E1F30E940D066F
:100A8000F9CFFC0124853585F901E05CFF4F8081B9
:100A90009181329620813181821B930B8F7399272C
:100AA0000895FC0184859585FC01E05CFF4F408141
:100AB00051813296208131814217530741F00190D4
:100AC000F081E02DE80FF91F808190E008958FEF0D
:100AD0009FEF0895FC0184859585FC01E05CFF4F44
:100AE000408151813296208131814217530779F03C
:100AF000A081B181A80FB91F8C91208131812F5F16
:100B00003F4F2F7333273183208390E008958FEF79
:100B10009FEF0895FC0181A1882329F0A489B5895C
:100B20008C9186FFFBCF11A20895CF93DF93FC0138
:100B300026853785D901A05CBF4F8D919C91119777
:100B400001968F739927E901CE5BDF4F4881598168
:100B500084179507D9F30D90BC91A02DA20FB31F58
:100B60006C93A685B785A05CBF4F11969C938E931E
:100B7000A689B7892C9181E090E0078C02C0880F8C
:100B8000991F0A94E2F7282B2C9381E081A3048813
:100B9000F589E02D80818064808381E090E0DF91A1
:100BA000CF91089508951F920F920FB60F921124BE
:100BB0002F933F934F938F939F93EF93FF93809146
:100BC000C00082FD1CC04091C6008091340290910B
:100BD000350201968F7399272091360230913702A2
:100BE0008217930771F0E0913402F0913502EC50D6
:100BF000FE4F4083909335028093340202C080916F
:100C0000C600FF91EF919F918F914F913F912F914E
:100C10000F900FBE0F901F9018958EE891E00E94E4
:100C20004105892B11F00C94D20508951F920F9263
:100C30000FB60F9211242F933F938F939F93EF93AF
:100C4000FF932091F0013091F1018091F201909198
:100C5000F3012817390731F48091C1008F7D80930B
:100C6000C10014C0E091F201F091F301E055FE4F94
:100C700020818091F2019091F30101968F73992761
:100C80009093F3018093F2012093C600FF91EF91BE
:100C90009F918F913F912F910F900FBE0F901F90BA
:100CA0001895CF92DF92EF92FF92CF93DF93EC01F2
:100CB0006A017B01411581EE580761057105F9F064
:100CC000EC89FD8981E090E008A002C0880F991F9F
:100CD0000A94E2F7808360E079E08DE390E0A70179
:100CE00096010E94A20C21503109410951095695E3
:100CF000479537952795211580E1380798F0EC89BD
:100D0000FD89108260E874E88EE190E0A701960109
:100D10000E94A20C2150310941095109569547956D
:100D200037952795E889F9893083EA89FB892083FB
:100D300019A2EE89FF89408181E090E09C010C8C32
:100D400002C0220F331F0A94E2F7422B4083EE8940
:100D5000FF8940819C010D8C02C0220F331F0A9431
:100D6000E2F7422B4083EE89FF8940819C010E8C83
:100D700002C0220F331F0A94E2F7422B4083EE8910
:100D8000FF8920810F8C02C0880F991F0A94E2F717
:100D9000809582238083DF91CF91FF90EF90DF9049
:100DA000CF900895109291011092900188EE93E0F7
:100DB000A0E0B0E08093920190939301A0939401FE
:100DC000B093950187E191E090938F0180938E011C
:100DD00084EF91E090939B0180939A0180EB91E0E6
:100DE00090939D0180939C0185EC90E090939F01EE
:100DF00080939E0184EC90E09093A1018093A001E8
:100E000080EC90E09093A3018093A20181EC90E0AC
:100E10009093A5018093A40182EC90E09093A701A8
:100E20008093A60186EC90E09093A9018093A8019D
:100E300084E08093AA0183E08093AB0187E08093F4
:100E4000AC0185E08093AD0181E08093AE0108950F
:100E50002F923F924F925F926F927F928F929F92CA
:100E6000AF92BF92CF92DF92EF92FF920F931F93B8
:100E7000CF93DF93CDB7DEB72B970FB6F894DEBFD5
:100E80000FBECDBF9B878A87DC01D896BC91B98302
:100E9000B11102C01982E2C00E9478026A837B838A
:100EA0008C839D83EA85FB8580A191A1A2A1B3A13A
:100EB0004A815B816C817D81481B590B6A0B7B0BDE
:100EC00084A595A5A6A5B7A5481759076A077B0766
:100ED00008F3028CF38DE02D80809180A280B38096
:100EE000AA85BB855E96ED91FC915F97A501940163
:100EF00060817181828193810E94830A2B013C0170
:100F0000EA85FB8520893189428953890E943B0CFF
:100F1000AA85BB8594962D913D914D915C919797B3
:100F20000E94840A6B017C01EA85FB8564A375A39A
:100F300086A397A324A835A806A917A99101A801FB
:100F40000E94370C18161CF4C101D80118C0AA85DC
:100F5000BB85D0968D919D910D90BC91A02D8E83D7
:100F60009F83A887B9879C01AD01C701B6010E9484
:100F7000E80A87FF0AC08E819F81A885B985EA8526
:100F8000FB8584A395A3A6A3B7A3AA85BB851C96BE
:100F90002D913D914D915C911F97C301B2010E942B
:100FA0003B0CEA85FB8524A135A146A157A10E94EF
:100FB000840A6B017C01AA85BB8598962D913D9191
:100FC0004D915C919B97C501B4010E94830AEA850B
:100FD000FB8524893589468957890E943B0C9B01F2
:100FE000AC01C701B6010E94830A6B017C0191012B
:100FF000A8010E94370C1816BCF0AA85BB85D096B4
:101000002C90D097D1963C90D197D2960C91D297B4
:10101000D3961C919101A801B601C7010E94E80A6C
:1010200087FD02C016018701AA85BB855C96ED91FC
:10103000FC915D97C101D80180839183A283B38322
:10104000EA85FB8580A691A6A2A6B3A68A819B818C
:10105000AC81BD8180A391A3A2A3B3A389812B9668
:101060000FB6F894DEBF0FBECDBFDF91CF911F91B9
:101070000F91FF90EF90DF90CF90BF90AF909F9037
:101080008F907F906F905F904F903F902F9008953A
:101090002F923F924F925F926F927F928F929F9288
:1010A000AF92BF92CF92DF92EF92FF920F931F9376
:1010B000CF93DF9300D000D0CDB7DEB71C012A015B
:1010C0003B014801590120E030E0A901C301B20110
:1010D0000E94E80A87FD78C020E030E0A901C50140
:1010E000B4010E94E80A87FD6FC020E030E0A9014A
:1010F000C701B6010E94E80A87FD66C0F10140827F
:1011000051826282738284829582A682B782C0866F
:10111000D186E286F38664A575A586A597A50E946B
:10112000850B20E030E04AE754E40E94EC0A698332
:101130007A838B839C83F101448655866686778605
:101140009B01AC01C501B4010E943B0C4B015C0149
:10115000F101608B718B828B938B29813A814B815A
:101160005C81C701B6010E94EC0A6B017C01F101B0
:10117000648B758B868B978B808D918D019721F574
:10118000A301920160E070E0CB010E94830AF101AB
:101190006487758786879787A501940160E070E072
:1011A000CB010E94830AF101608B718B828B938B40
:1011B000A701960160E070E0CB010E94830AF10173
:1011C000648B758B868B978B0F900F900F900F9081
:1011D000DF91CF911F910F91FF90EF90DF90CF9013
:1011E000BF90AF909F908F907F906F905F904F9047
:1011F0003F902F9008952F923F924F925F926F925F
:101200007F928F929F92AF92BF92CF92DF92EF9296
:10121000FF920F931F93CF93DF93EC016A017B0141
:1012200048015901A9019801C701B6010E94370C74
:1012300087FF4EC0C8AAD9AAEAAAFBAA8CAA9DAA6F
:10124000AEAABFAA88AD882309F442C02C8C3D8C7D
:10125000F1014080518062807380A5019401C30137
:10126000B2010E94370C181634F4F1018082918289
:10127000A282B3820DC0A7019601C301B2010E94F0
:10128000E80A87FF05C0F101C082D182E282F382C1
:101290008CA09DA0AEA0BFA0CCA8DDA8EEA8FFA802
:1012A000A7019601C501B4010E94370C181664F01D
:1012B000C8A8D9A8EAA8FBA8A7019601C501B4014E
:1012C0000E94E80A87FF04C0CCA2DDA2EEA2FFA222
:1012D000DF91CF911F910F91FF90EF90DF90CF9012
:1012E000BF90AF909F908F907F906F905F904F9046
:1012F0003F902F9008958F929F92AF92BF92CF927E
:10130000DF92EF92FF92CF93DF93EC01EC8DFD8D96
:10131000C080D180E280F380CCA2DDA2EEA2FFA249
:10132000EA8DFB8D80819181A281B38188A799A7E5
:10133000AAA7BBA78CA89DA8AEA8BFA8A501940189
:10134000C701B6010E94370C181664F088A899A846
:10135000AAA8BBA8A5019401C701B6010E94E80A8A
:1013600087FF04C08CA29DA2AEA2BFA2DF91CF9145
:10137000FF90EF90DF90CF90BF90AF909F908F90B5
:1013800008951F93CF93DF93EC0111E06130710555
:1013900009F010E088AD91E08927181303C0CE0151
:1013A0000E947B0918AFDF91CF911F9108950F9391
:1013B0001F93CF93DF93EC018B0188AD882361F1FC
:1013C000888D998D6817790739F12C853D854E8573
:1013D0005F8560E070E0CB010E94830A6C877D87A7
:1013E0008E879F87288939894A895B8960E070E008
:1013F000CB010E94830A688B798B8A8B9B8B2C890B
:101400003D894E895F8960E070E0CB010E94830ACC
:101410006C8B7D8B8E8B9F8B198F088FDF91CF917B
:101420001F910F9108954F925F926F927F928F92CA
:101430009F92AF92BF92CF92DF92EF92FF920F9363
:101440001F93CF93DF9300D000D0CDB7DEB74C0110
:1014500027013801A982BA82CB82DC82FC01558F38
:10146000448F738F628F378F268F10AE10AA11AA08
:1014700012AA13AA80E090E0AFE7B3E484AB95AB87
:10148000A6ABB7AB84E690E0A0E0B0E084A795A758
:10149000A6A7B7A76B8D7C8DC4010E94D709CF8802
:1014A000D88CE98CFA8C09811A812B813C81B3019B
:1014B000A201C4010E9448080E947802F40144A4D9
:1014C00055A466A477A4641975098609970960A3D1
:1014D00071A382A393A30F900F900F900F90DF91B1
:1014E000CF911F910F91FF90EF90DF90CF90BF9021
:1014F000AF909F908F907F906F905F904F900895E6
:10150000F8940C94CA0C5058BB27AA270ED075C16A
:1015100066D130F06BD120F031F49F3F11F41EF40E
:101520005BC10EF4E095E7FB51C1E92F77D180F361
:10153000BA17620773078407950718F071F49EF5D0
:101540008FC10EF4E0950B2EBA2FA02D0B01B9011F
:1015500090010C01CA01A0011124FF27591B99F029
:10156000593F50F4503E68F11A16F040A22F232F35
:10157000342F4427585FF3CF469537952795A79585
:10158000F0405395C9F77EF41F16BA0B620B730B2C
:10159000840BBAF09150A1F0FF0FBB1F661F771F9D
:1015A000881FC2F70EC0BA0F621F731F841F48F452
:1015B000879577956795B795F7959E3F08F0B3CFD8
:1015C0009395880F08F09927EE0F979587950895C2
:1015D000D9D008F481E008950CD00FC107D140F0B4
:1015E000FED030F021F45F3F19F0F0C0511139C145
:1015F000F3C014D198F39923C9F35523B1F3951B84
:10160000550BBB27AA2762177307840738F09F5F23
:101610005F4F220F331F441FAA1FA9F333D00E2E92
:101620003AF0E0E830D091505040E695001CCAF7FF
:1016300029D0FE2F27D0660F771F881FBB1F2617C4
:1016400037074807AB07B0E809F0BB0B802DBF0197
:10165000FF2793585F4F2AF09E3F510568F0B6C0B0
:1016600000C15F3FECF3983EDCF386957795679574
:10167000B795F7959F5FC9F7880F911D9695879548
:1016800097F90895E1E0660F771F881FBB1F621767
:1016900073078407BA0720F0621B730B840BBA0B25
:1016A000EE1F88F7E095089504D06894B111D9C071
:1016B0000895BCD088F09F5790F0B92F9927B75163
:1016C000A0F0D1F0660F771F881F991F1AF0BA9506
:1016D000C9F712C0B13081F0C3D0B1E00895C0C0E5
:1016E000672F782F8827B85F39F0B93FCCF38695FC
:1016F00077956795B395D9F73EF490958095709559
:1017000061957F4F8F4F9F4F0895E89409C097FBD5
:101710003EF490958095709561957F4F8F4F9F4FC8
:101720009923A9F0F92F96E9BB279395F69587950C
:1017300077956795B795F111F8CFFAF4BB0F11F4CF
:1017400060FF1BC06F5F7F4F8F4F9F4F16C0882376
:1017500011F096E911C0772321F09EE8872F762FAC
:1017600005C0662371F096E8862F70E060E02AF0ED
:101770009A95660F771F881FDAF7880F96958795D9
:1017800097F90895990F0008550FAA0BE0E8FEEFAE
:1017900016161706E807F907C0F012161306E40735
:1017A000F50798F0621B730B840B950B39F40A262E
:1017B00061F0232B242B252B21F408950A2609F40C
:1017C000A140A6958FEF811D811D089597F99F6710
:1017D00080E870E060E008959FEF80EC08950024B9
:1017E0000A941616170618060906089500240A9486
:1017F00012161306140605060895092E0394000C0C
:1018000011F4882352F0BB0F40F4BF2B11F460FF9A
:1018100004C06F5F7F4F8F4F9F4F089557FD9058C3
:10182000440F551F59F05F3F71F04795880F97FBA4
:10183000991F61F09F3F79F087950895121613065E
:101840001406551FF2CF4695F1DF08C0161617068D
:101850001806991FF1CF86957105610508940895C2
:10186000E894BB2766277727CB0197F908958ADF8D
:1018700008F48FEF08950BD0C0CFB1DF28F0B6DFAA
:1018800018F0952309F0A2CFA7CF1124EACFC6DF25
:10189000A0F3959FD1F3950F50E0551F629FF00183
:1018A000729FBB27F00DB11D639FAA27F00DB11DDC
:1018B000AA1F649F6627B00DA11D661F829F222765
:1018C000B00DA11D621F739FB00DA11D621F839FEC
:1018D000A00D611D221F749F3327A00D611D231FC2
:1018E000849F600D211D822F762F6A2F11249F5710
:1018F00050408AF0E1F088234AF0EE0FFF1FBB1F33
:10190000661F771F881F91505040A9F79E3F5105D1
:1019100070F05CCFA6CF5F3FECF3983EDCF386958A
:1019200077956795B795F795E7959F5FC1F7FE2B7C
:10193000880F911D9695879597F9089523DF880B59
:10194000990B0895A1E21A2EAA1BBB1BFD010DC025
:10195000AA1FBB1FEE1FFF1FA217B307E407F5075F
:1019600020F0A21BB30BE40BF50B661F771F881F3B
:10197000991F1A9469F760957095809590959B01D1
:10198000AC01BD01CF010895EE0FFF1F0590F4914A
:08199000E02D0994F894FFCF4B
:1019980000002041016E616E00696E66006F766618
:1019A800002E000000000095053B0341056A055123
:0419B800058A050097
:00000001FF
