:100000000C9458000C9480000C9480000C94800098
:100010000C9480000C9480000C9480000C94800060
:100020000C9480000C9480000C9480000C94800050
:100030000C9480000C9480000C9480000C94800040
:100040000C9480010C9480000C9402030C944503E2
:100050000C9480000C9480000C9480000C94800020
:100060000C9480000C948000000000070002010046
:100070000003040600000000000000000102040864
:100080001020408001020408102001020408102002
:10009000040404040404040402020202020203032E
:1000A0000303030300000000250028002B000104C7
:1000B00011241FBECFEFD8E0DEBFCDBF11E0A0E01E
:1000C000B1E0E6E5F1E102C005900D92A832B1077A
:1000D000D9F722E0A8E2B1E001C01D92A730B20733
:1000E000E1F710E0C0EBD0E004C02297FE010E94CF
:1000F000A508CE3AD107C9F70E9457040C945F06B1
:100100000C940000CF92DF92EF92FF92CF93DF9397
:10011000EC0182E390E09FA38EA380E00E94630144
:1001200086579109BC01882777FD8095982F0E94FA
:10013000660727EF39E64FE95EE30E941A0820E0E0
:1001400030E04AEA52E40E9462060E9433077DA32F
:100150006CA32EA13FA1261B370BB901882777FD81
:100160008095982F0E94660768A379A38AA39BA312
:1001700061E071E08DE591E00E94A20448A159A1DF
:100180006AA17BA122E030E08DE591E00E944D065E
:10019000C8A0D9A0EAA0FBA020E030E040E251E4F2
:1001A000C701B6010E94C706181664F020E030E0CF
:1001B00040E251ECC701B6010E94160887FD02C05B
:1001C00060E00AC020E030E0A901C701B6010E944A
:1001D0001608181634F461E083E00E943A0260E0E9
:1001E00005C060E083E00E943A0261E084E0DF91B4
:1001F000CF91FF90EF90DF90CF900C943A0280E087
:1002000090E0A0E8BFE380932C0190932D01A09390
:100210002E01B0932F018DEC9CECACE4BDE38093F8
:10022000300190933101A0933201B093330180E00B
:1002300090E0A0E0BFE38093340190933501A09358
:100240003601B093370180E090E0A0ECBFE38093EB
:10025000480190934901A0934A01B0934B0140E8B3
:1002600055E260E070E08DE591E00E94800361E07E
:1002700089E00C943A020F931F930E94CA010091E7
:1002800028011091290120912A0130912B01601B36
:10029000710B820B930B653171058105910580F01F
:1002A0000E94CA01609328017093290180932A015A
:1002B00090932B018CE291E01F910F910C9482009E
:1002C0001F910F9108958E3008F08E508770209105
:1002D000000190E4299F90011124822B80937C00DF
:1002E00080917A00806480937A0080917A0086FD04
:1002F000FCCF809178002091790090E0922B0895B6
:100300001F920F920FB60F9211242F933F938F934A
:100310009F93AF93BF938091550190915601A09107
:100320005701B09158013091540123E0230F2D372C
:1003300020F40196A11DB11D05C026E8230F0296E9
:10034000A11DB11D20935401809355019093560136
:10035000A0935701B09358018091590190915A018F
:10036000A0915B01B0915C010196A11DB11D80932C
:10037000590190935A01A0935B01B0935C01BF9126
:10038000AF919F918F913F912F910F900FBE0F9042
:100390001F9018952FB7F8946091550170915601F0
:1003A00080915701909158012FBF0895789484B59A
:1003B000826084BD84B5816084BD85B5826085BD61
:1003C00085B5816085BDEEE6F0E080818160808347
:1003D000E1E8F0E01082808182608083808181602A
:1003E0008083E0E8F0E0808181608083E1EBF0E0F1
:1003F000808184608083E0EBF0E080818160808395
:10040000EAE7F0E08081846080838081826080837D
:100410008081816080838081806880831092C100A8
:100420000895833081F028F4813099F08230A1F072
:1004300008958630A9F08730B9F08430D1F48091E6
:1004400080008F7D03C0809180008F778093800033
:10045000089584B58F7702C084B58F7D84BD0895DB
:100460008091B0008F7703C08091B0008F7D809322
:10047000B00008950F931F93CF93DF931F92CDB7D2
:10048000DEB7282F30E0F901E859FF4F8491F901D8
:10049000E458FF4F1491F901E057FF4F04910023F6
:1004A000C9F0882321F069830E9411026981E02F3D
:1004B000F0E0EE0FFF1FEC55FF4FA591B4919FB7F1
:1004C000F8948C91611103C01095812301C0812B98
:1004D0008C939FBF0F90DF91CF911F910F91089543
:1004E000FC0124853585F901E05CFF4F8081918115
:1004F000329620813181821B930B8F739927089547
:10050000FC0184859585FC01E05CFF4F40815181B1
:100510003296208131814217530741F00190F081DA
:10052000E02DE80FF91F808190E008958FEF9FEF95
:100530000895FC0184859585FC01E05CFF4F4081B6
:1005400051813296208131814217530779F0A08181
:10055000B181A80FB91F8C91208131812F5F3F4F4E
:100560002F7333273183208390E008958FEF9FEF1F
:100570000895FC0181A1882329F0A489B5898C9173
:1005800086FFFBCF11A20895CF93DF93FC01268550
:100590003785D901A05CBF4F8D919C911197019631
:1005A0008F739927E901CE5BDF4F4881598184170A
:1005B0009507D9F30D90BC91A02DA20FB31F6C939A
:1005C000A685B785A05CBF4F11969C938E93A68994
:1005D000B7892C9181E090E0078C02C0880F991FA9
:1005E0000A94E2F7282B2C9381E081A30488F589F3
:1005F000E02D80818064808381E090E0DF91CF9165
:10060000089508951F920F920FB60F9211242F9301
:100610003F934F938F939F93EF93FF938091C000ED
:1006200082FD1CC04091C60080910302909104029B
:1006300001968F7399272091050230910602821747
:10064000930771F0E0910302F0910402ED53FE4F25
:100650004083909304028093030202C08091C600FD
:10066000FF91EF919F918F914F913F912F910F901B
:100670000FBE0F901F9018958DE591E00E947002BB
:10068000892B11F00C94010308951F920F920FB65D
:100690000F9211242F933F938F939F93EF93FF9388
:1006A0002091BF013091C0018091C1019091C201A0
:1006B0002817390731F48091C1008F7D8093C100E4
:1006C00014C0E091C101F091C201E158FE4F2081B8
:1006D0008091C1019091C20101968F7399279093E7
:1006E000C2018093C1012093C600FF91EF919F91B9
:1006F0008F913F912F910F900FBE0F901F901895E3
:10070000CF92DF92EF92FF92CF93DF93EC016A01D9
:100710007B01411581EE580761057105F9F0EC89FF
:10072000FD8981E090E008A002C0880F991F0A941B
:10073000E2F7808360E079E08DE390E0A701960125
:100740000E94810821503109410951095695479568
:1007500037952795211580E1380798F0EC89FD89B8
:10076000108260E874E88EE190E0A70196010E9493
:10077000810821503109410951095695479537950E
:100780002795E889F9893083EA89FB89208319A2B2
:10079000EE89FF89408181E090E09C010C8C02C0D1
:1007A000220F331F0A94E2F7422B4083EE89FF8920
:1007B00040819C010D8C02C0220F331F0A94E2F786
:1007C000422B4083EE89FF8940819C010E8C02C040
:1007D000220F331F0A94E2F7422B4083EE89FF89F0
:1007E00020810F8C02C0880F991F0A94E2F7809530
:1007F00082238083DF91CF91FF90EF90DF90CF90A5
:1008000008951092600110925F0188EE93E0A0E0DD
:10081000B0E08093610190936201A0936301B09373
:1008200064018DE091E090935E0180935D0183EC23
:1008300091E090936A01809369018FE791E0909332
:100840006C0180936B0185EC90E090936E01809336
:100850006D0184EC90E09093700180936F0180ECC7
:1008600090E0909372018093710181EC90E09093FD
:1008700074018093730182EC90E0909376018093F1
:10088000750186EC90E0909378018093770184E085
:100890008093790183E080937A0187E080937B01E4
:1008A00085E080937C0181E080937D0108950E9422
:1008B000D6010E94FF00CCE3D3E00E943B012097C9
:1008C000E1F30E943C03F9CFCF92DF92EF92FF92C7
:1008D0000F931F93CF93DF936C017A01EB01E60E28
:1008E000F71E00E010E0CE15DF0561F06991D6013A
:1008F000ED91FC910190F081E02DC6010995080F62
:10090000191FF1CFC801DF91CF911F910F91FF9077
:10091000EF90DF90CF9008956115710581F0DB01B4
:100920000D900020E9F7AD0141505109461B570BCE
:10093000DC01ED91FC910280F381E02D099480E0CF
:1009400090E008950C948C04DC01ED91FC910190F1
:10095000F081E02D09940F931F93CF93DF93EC0167
:100960006DE00E94A4048C016AE0CE010E94A40400
:10097000800F911FDF91CF911F910F9108958F925A
:100980009F92AF92BF92CF92DF92EF92FF920F931E
:100990001F93CF93DF93CDB7DEB7A1970FB6F8942F
:1009A000DEBF0FBECDBF7C01C42EE52FCB01D22E02
:1009B00019A221E02D1510F02AE0D22E8E010F5D34
:1009C0001F4F8D2C912CA12CB12C6C2D7E2FA501AD
:1009D00094010E9481088C2DD29E8019112401500F
:1009E00011098A3014F4805D01C0895CF8018083AC
:1009F000211531054105510521F0C22EE32FCA0111
:100A0000E4CFB801C7010E948C04A1960FB6F894F8
:100A1000DEBF0FBECDBFDF91CF911F910F91FF9031
:100A2000EF90DF90CF90BF90AF909F908F90089500
:100A3000CF92DF92EF92FF920F931F93CF93DF93AA
:100A4000EC016A017B012115310579F4E881F98116
:100A50000190F081E02D642FDF91CF911F910F91D4
:100A6000FF90EF90DF90CF9009942A303105E9F4A0
:100A700077FF1AC06DE20E94A4048C014427552719
:100A8000BA014C195D096E097F092AE0CE010E9466
:100A9000BF04800F911FDF91CF911F910F91FF90A5
:100AA000EF90DF90CF9008952AE0B701A601CE0124
:100AB000DF91CF911F910F91FF90EF90DF90CF903A
:100AC0000C94BF044F925F926F927F928F929F928D
:100AD000AF92BF92CF92DF92EF92FF920F931F934C
:100AE000CF93DF93EC016A017B01B22E9A01AB0137
:100AF000C701B6010E947D08882319F069E171E001
:100B000027C026013701E89477F82FEF3FEF4FE732
:100B10005FE7C301B2010E947D0881110DC02FEF74
:100B20003FEF4FE75FE7C301B2010E94C706181607
:100B30001CF46DE171E00CC02FEF3FEF4FE75FE475
:100B4000C701B6010E9416081816ACF461E271E004
:100B5000CE01DF91CF911F910F91FF90EF90DF9029
:100B6000CF90BF90AF909F908F907F906F905F904D
:100B70004F900C948C042FEF3FEF4FE75FECC701D1
:100B8000B6010E94C70687FDE1CF20E030E0A90151
:100B9000C701B6010E94C70687FF0AC06DE2CE01F9
:100BA0000E94A4048C01F7FAF094F7F8F09402C0C4
:100BB00000E010E0A12C60E070E080E09FE3AB1467
:100BC00041F020E030E040E251E40E94CB06A394E3
:100BD000F6CF9B01AC01C701B6010E9463066B0111
:100BE0007C010E9438072B013C010E9464079B0195
:100BF000AC01C701B6010E9462066B017C012AE0CC
:100C0000B301A201CE010E94BF04080F191FBB202F
:100C100039F065E271E0CE010E948C04080F191FC3
:100C20007B2C772041F120E030E040E251E4C70125
:100C3000B6010E941A086B017C010E9433074B0128
:100C4000AA2497FCA094BA2C2AE030E0B501A401B4
:100C5000CE010E941805080F191FC501B4010E949A
:100C600066079B01AC01C701B6010E9462066B01D9
:100C70007C017A94D6CFC801DF91CF911F910F915B
:100C8000FF90EF90DF90CF90BF90AF909F908F90AC
:100C90007F906F905F904F9008950F931F93CF9325
:100CA000DF93EC010E9462058C01CE010E94AB042F
:100CB000800F911FDF91CF911F910F910895F894AC
:100CC0000C94A9085058BB27AA270ED075C166D12D
:100CD00030F06BD120F031F49F3F11F41EF45BC172
:100CE0000EF4E095E7FB51C1E92F77D180F3BA17F5
:100CF000620773078407950718F071F49EF58FC19A
:100D00000EF4E0950B2EBA2FA02D0B01B901900126
:100D10000C01CA01A0011124FF27591B99F0593F6A
:100D200050F4503E68F11A16F040A22F232F342FB2
:100D30004427585FF3CF469537952795A795F04000
:100D40005395C9F77EF41F16BA0B620B730B840B15
:100D5000BAF09150A1F0FF0FBB1F661F771F881FCD
:100D6000C2F70EC0BA0F621F731F841F48F4879525
:100D700077956795B795F7959E3F08F0B3CF939514
:100D8000880F08F09927EE0F979587950895D9D089
:100D900008F481E008950CD00FC107D140F0FED0D7
:100DA00030F021F45F3F19F0F0C0511139C1F3C0A8
:100DB00014D198F39923C9F35523B1F3951B550B1F
:100DC000BB27AA2762177307840738F09F5F5F4F1E
:100DD000220F331F441FAA1FA9F333D00E2E3AF05F
:100DE000E0E830D091505040E695001CCAF729D079
:100DF000FE2F27D0660F771F881FBB1F26173707C8
:100E00004807AB07B0E809F0BB0B802DBF01FF27F7
:100E100093585F4F2AF09E3F510568F0B6C000C15D
:100E20005F3FECF3983EDCF3869577956795B79531
:100E3000F7959F5FC9F7880F911D9695879597F94C
:100E40000895E1E0660F771F881FBB1F62177307C5
:100E50008407BA0720F0621B730B840BBA0BEE1FDA
:100E600088F7E095089504D06894B111D9C0089529
:100E7000BCD088F09F5790F0B92F9927B751A0F0B8
:100E8000D1F0660F771F881F991F1AF0BA95C9F71E
:100E900012C0B13081F0C3D0B1E00895C0C0672F57
:100EA000782F8827B85F39F0B93FCCF386957795CE
:100EB0006795B395D9F73EF49095809570956195B7
:100EC0007F4F8F4F9F4F0895E89409C097FB3EF4E2
:100ED00090958095709561957F4F8F4F9F4F992387
:100EE000A9F0F92F96E9BB279395F6958795779505
:100EF0006795B795F111F8CFFAF4BB0F11F460FFC5
:100F00001BC06F5F7F4F8F4F9F4F16C0882311F01C
:100F100096E911C0772321F09EE8872F762F05C030
:100F2000662371F096E8862F70E060E02AF09A95CB
:100F3000660F771F881FDAF7880F9695879597F9C0
:100F40000895990F0008550FAA0BE0E8FEEF16165A
:100F50001706E807F907C0F012161306E407F507AD
:100F600098F0621B730B840B950B39F40A2661F021
:100F7000232B242B252B21F408950A2609F4A140C4
:100F8000A6958FEF811D811D089597F99F6780E8D1
:100F900070E060E008959FEF80EC089500240A94CB
:100FA0001616170618060906089500240A94121644
:100FB0001306140605060895092E0394000C11F477
:100FC000882352F0BB0F40F4BF2B11F460FF04C024
:100FD0006F5F7F4F8F4F9F4F089557FD9058440F7D
:100FE000551F59F05F3F71F04795880F97FB991F88
:100FF00061F09F3F79F08795089512161306140645
:10100000551FF2CF4695F1DF08C0161617061806D1
:10101000991FF1CF86957105610508940895E894AC
:10102000BB2766277727CB0197F908958ADF08F455
:101030008FEF08950BD0C0CFB1DF28F0B6DF18F0E6
:10104000952309F0A2CFA7CF1124EACFC6DFA0F3E2
:10105000959FD1F3950F50E0551F629FF001729F4D
:10106000BB27F00DB11D639FAA27F00DB11DAA1F6C
:10107000649F6627B00DA11D661F829F2227B00DB9
:10108000A11D621F739FB00DA11D621F839FA00D44
:10109000611D221F749F3327A00D611D231F849F94
:1010A000600D211D822F762F6A2F11249F575040EB
:1010B0008AF0E1F088234AF0EE0FFF1FBB1F661F86
:1010C000771F881F91505040A9F79E3F510570F03F
:1010D0005CCFA6CF5F3FECF3983EDCF38695779527
:1010E0006795B795F795E7959F5FC1F7FE2B880F3A
:1010F000911D9695879597F9089523DF880B990B95
:101100000895A1E21A2EAA1BBB1BFD010DC0AA1F48
:10111000BB1FEE1FFF1FA217B307E407F50720F060
:10112000A21BB30BE40BF50B661F771F881F991FDB
:101130001A9469F760957095809590959B01AC0124
:10114000BD01CF010895EE0FFF1F0590F491E02D32
:061150000994F894FFCFA2
:10115600014552524F523A200000000000C402647A
:1011660004700299028002B9026E616E00696E66B1
:08117600006F7666002E0000F8
:00000001FF
