:100000000C9468000C9490000C9490000C94900058
:100010000C9490000C9490000C9490000C94900020
:100020000C9490000C9490000C9490000C94900010
:100030000C9490000C9490000C9490000C94900000
:100040000C9416060C9490000C9490000C94900064
:100050000C9490000C9490000C9490000C949000E0
:100060000C9490000C94900005A84CCDB2D44EB9DD
:100070003836A9020C50B9918688083CA6AAAA2A4B
:10008000BE000000803F00000007000201000003E6
:100090000406000000000000000001020408102017
:1000A000408001020408102001020408102004040A
:1000B0000404040404040202020202020303030310
:1000C000030300000000250028002B005D0113033E
:1000D00011241FBECFEFD8E0DEBFCDBF11E0A0E0FE
:1000E000B1E0E0EAF2E102C005900D92AE30B10756
:1000F000D9F721E0AEE0B1E001C01D92AB37B20705
:10010000E1F710E0C0EDD0E004C02297FE010E94AC
:100110004A09CC3CD107C9F70E94D1030C94A70629
:100120000C94000020E030E040E85FE30E94AA0663
:100130002BED3FE049EC5FE30E949B080E94FE0824
:1001400020E030E040E85FE30E94AB0608952BED2D
:100150003FE049EC5FE30E949B080C94FE086FEFC0
:1001600070E08FE091E00C94EE01CF92DF92EF927D
:10017000FF926A017B0180910E01882309F120E042
:1001800030E040E251E4C701B6010E940F0787FD4D
:1001900011C020E030E040E253E4C701B6010E9404
:1001A000970887FD0DC0C12CD12C90E2E92E93E475
:1001B000F92E06C0C12CD12C80E2E82E81E4F82E65
:1001C000C701B601FF90EF90DF90CF900895809126
:1001D00015010C9455030E94E7000F97BC01882776
:1001E00077FD8095982F0E94AE072BEC32EB4CE206
:1001F0005EE30E949B080E947B07CB0108950F934A
:100200001F93CF93DF9300D000D0CDB7DEB78C0122
:100210000E94EB00BC01882777FD8095982F0E94F3
:10022000AE079B01AC01F8016083718382839383E5
:1002300064817581882777FD8095982F29833A837B
:100240004B835C830E94AE0729813A814B815C819C
:100250000E94AA06F80166837783808791870F90B2
:100260000F900F900F90DF91CF911F910F910895F4
:100270000F931F93CF93DF93EC010E94B5000E9470
:100280007B077D836C83CE010E94FF004E815F81DE
:100290006885798500E010E020E83FE38FE091E099
:1002A0000E949601DF91CF911F910F910895FC015B
:1002B0006681778180859185089529E030E044E06A
:1002C00050E063E070E08FE091E00C946701FC0186
:1002D0007183608353834283358324830895CF934E
:1002E000DF93EC0160E088810E949B0361E08A81DA
:1002F000DF91CF910C949B03CF93DF93EC0161E0EE
:1003000088810E949B0360E08A81DF91CF910C94E9
:100310009B03CF93DF93EC0160E088810E949B03F5
:1003200060E08A81DF91CF910C949B038F929F9222
:10033000AF92BF92CF92DF92EF92FF920F931F93F3
:10034000CF93DF93EC016A017B0148015901A901B8
:100350009801C701B6010E940F071816C4F0C50125
:10036000B4019058A70196010E940F0718167CF05F
:10037000CE01DF91CF911F910F91FF90EF90DF9011
:10038000CF90BF90AF909F908F900C94890120E008
:1003900030E0A901C701B6010E94970818167CF445
:1003A000CE01DF91CF911F910F91FF90EF90DF90E1
:1003B000CF90BF90AF909F908F900C947C01CE0116
:1003C000DF91CF911F910F91FF90EF90DF90CF9031
:1003D000BF90AF909F908F900C946F016F3F71050D
:1003E00009F034F46A3A71052CF46AEA70E002C04C
:1003F0006FEF70E0FC0184810C949B030F931F93BB
:1004000061E070E081E291E00E94570500E010E0B9
:1004100024E333E440E050E0BA0181E291E00E943D
:1004200091041F910F91089587E191E00E94570177
:1004300020E030E0A9010E9497081816D4F487E163
:1004400091E00E94570120E030E040E85FE30E9425
:10045000970818166CF440916E0150916F016091ED
:1004600070017091710187E191E00E943801DCCF49
:10047000089587E191E00E94570120E030E040E8D4
:100480005FEB0E940F0787FDE6CF08958F929F9242
:10049000AF92BF92CF92DF92EF92FF9240E050E096
:1004A000BA0187E191E00E9438010E941402109283
:1004B0006A0110926B0110926C0110926D01C09054
:1004C0006A01D0906B01E0906C01F0906D0180901A
:1004D000080190900901A0900A01B0900B01A501BC
:1004E0009401C701B6010E940F071816ACF1A501CF
:1004F0009401C701B6010E9413070E94A70020E0E3
:1005000030E04AE253E40E949B08AB01BC014093F7
:100510006E0150936F01609370017093710187E1D8
:1005200091E00E9438010E94140220E030E040E88F
:100530005FE360916A0170916B0180916C01909111
:100540006D010E94AB0660936A0170936B0180930A
:100550006C0190936D01B3CF0E9414028091080149
:1005600090910901A0910A01B0910B0180936A0159
:1005700090936B01A0936C01B0936D01C0906A01E0
:10058000D0906B01E0906C01F0906D0120E030E0C4
:10059000A901C701B6010E94970887FD3BC02091C1
:1005A00008013091090140910A0150910B01C701E6
:1005B000B6010E9413070E94920020E030E04AE258
:1005C00053E40E949B08AB01BC0140936E01509321
:1005D0006F01609370017093710187E191E00E9457
:1005E00038010E94140220E030E040E85FE36091AF
:1005F0006A0170916B0180916C0190916D010E9474
:10060000AA0660936A0170936B0180936C019093CA
:100610006D01B4CFFF90EF90DF90CF90BF90AF907F
:100620009F908F900895AF92BF92CF92DF92EF92FA
:10063000FF920F931F93A0900001B0900101C09012
:100640000201D0900301E0900401F09005010091B7
:100650000601109107011F921F9280915D018F93F7
:1006600080915C018F9380915B018F9380915A01FF
:100670008F9326E631E04EE551E062E671E081E2DB
:1006800091E00E94A9050F900F900F900F900F908E
:100690000F9087E191E01F910F91FF90EF90DF9015
:1006A000CF90BF90AF900C94AF008E3008F08E507A
:1006B000877020910C0190E4299F90011124822BD6
:1006C00080937C0080917A00806480937A0080918E
:1006D0007A0086FDFCCF809178002091790090E02F
:1006E000922B0895833081F028F4813099F0823084
:1006F000A1F008958630A9F08730B9F08430D1F4A4
:10070000809180008F7D03C0809180008F778093DF
:100710008000089584B58F7702C084B58F7D84BD35
:1007200008958091B0008F7703C08091B0008F7DD5
:100730008093B00008950F931F93CF93DF931F9280
:10074000CDB7DEB7282F30E0F901EA57FF4F84918B
:10075000F901E656FF4F1491F901E255FF4F04915C
:100760000023C9F0882321F069830E947203698104
:10077000E02FF0E0EE0FFF1FEE53FF4FA591B49175
:100780009FB7F8948C91611103C01095812301C02B
:10079000812B8C939FBF0F90DF91CF911F910F9171
:1007A00008950E946C060E94FE01C0E0D0E00E9405
:1007B00046022097E1F30E940000F9CF2F923F926A
:1007C0004F925F926F927F928F929F92AF92BF9261
:1007D000CF92DF92EF92FF920F931F93CF93DF930D
:1007E00000D000D0CDB7DEB71C012A013B01480183
:1007F000590120E030E0A901C301B2010E940F07B6
:1008000087FD78C020E030E0A901C501B4010E9455
:100810000F0787FD6FC020E030E0A901C701B601D6
:100820000E940F0787FD66C0F101408251826282FB
:10083000738284829582A682B782C086D186E28640
:10084000F38664A575A586A597A50E94AC0720E050
:1008500030E04AE754E40E94130769837A838B836C
:100860009C83F10144865586668677869B01AC01A0
:10087000C501B4010E949B084B015C01F101608B32
:10088000718B828B938B29813A814B815C81C7016B
:10089000B6010E9413076B017C01F101648B758B1B
:1008A000868B978B808D918D019721F5A301920105
:1008B00060E070E0CB010E94AA06F10164877587B1
:1008C00086879787A501940160E070E0CB010E94C4
:1008D000AA06F101608B718B828B938BA701960125
:1008E00060E070E0CB010E94AA06F101648B758B79
:1008F000868B978B0F900F900F900F90DF91CF9179
:100900001F910F91FF90EF90DF90CF90BF90AF902D
:100910009F908F907F906F905F904F903F902F901F
:1009200008952F923F924F925F926F927F928F9293
:100930009F92AF92BF92CF92DF92EF92FF920F936E
:100940001F93CF93DF93EC016A017B0148015901AA
:10095000A9019801C701B6010E94970887FF4EC000
:10096000C8AAD9AAEAAAFBAA8CAA9DAAAEAABFAA1B
:1009700088AD882309F442C02C8C3D8CF101408065
:10098000518062807380A5019401C301B2010E946D
:100990009708181634F4F10180829182A282B38202
:1009A0000DC0A7019601C301B2010E940F0787FF86
:1009B00005C0F101C082D182E282F3828CA09DA0A9
:1009C000AEA0BFA0CCA8DDA8EEA8FFA8A701960105
:1009D000C501B4010E949708181664F0C8A8D9A8E8
:1009E000EAA8FBA8A7019601C501B4010E940F0760
:1009F00087FF04C0CCA2DDA2EEA2FFA2DF91CF91BF
:100A00001F910F91FF90EF90DF90CF90BF90AF902C
:100A10009F908F907F906F905F904F903F902F901E
:100A200008958F929F92AF92BF92CF92DF92EF92F2
:100A3000FF92CF93DF93EC01EC8DFD8DC080D180D0
:100A4000E280F380CCA2DDA2EEA2FFA2EA8DFB8DB4
:100A500080819181A281B38188A799A7AAA7BBA70A
:100A60008CA89DA8AEA8BFA8A5019401C701B60196
:100A70000E949708181664F088A899A8AAA8BBA88D
:100A8000A5019401C701B6010E940F0787FF04C0AA
:100A90008CA29DA2AEA2BFA2DF91CF91FF90EF905A
:100AA000DF90CF90BF90AF909F908F9008951F934D
:100AB000CF93DF93EC0111E06130710509F010E094
:100AC00088AD91E08927181303C0CE010E9411055B
:100AD00018AFDF91CF911F9108950F931F93CF937C
:100AE000DF93EC018B0188AD882361F1888D998DAE
:100AF0006817790739F12C853D854E855F8560E063
:100B000070E0CB010E94AA066C877D878E879F8745
:100B1000288939894A895B8960E070E0CB010E94AD
:100B2000AA06688B798B8A8B9B8B2C893D894E8991
:100B30005F8960E070E0CB010E94AA066C8B7D8B20
:100B40008E8B9F8B198F088FDF91CF911F910F9103
:100B500008954F925F926F927F928F929F92AF9281
:100B6000BF92CF92DF92EF92FF920F931F93CF939A
:100B7000DF9300D000D0CDB7DEB74C01270138019C
:100B8000A982BA82CB82DC82FC01558F448F738F9D
:100B9000628F378F268F10AE10AA11AA12AA13AA3D
:100BA00080E090E0AFE7B3E484AB95ABA6ABB7AB26
:100BB00084E690E0A0E0B0E084A795A7A6A7B7A739
:100BC0006B8D7C8DC4010E946D05CF88D88CE98C1B
:100BD000FA8C09811A812B813C81B301A201C401E5
:100BE0000E94DE030E946006F40144A455A466A49A
:100BF00077A4641975098609970960A371A382A374
:100C000093A30F900F900F900F90DF91CF911F91B2
:100C10000F91FF90EF90DF90CF90BF90AF909F909B
:100C20008F907F906F905F904F9008951F920F92DA
:100C30000FB60F9211242F933F938F939F93AF93EF
:100C4000BF938091730190917401A0917501B0914F
:100C500076013091720123E0230F2D3720F40196A5
:100C6000A11DB11D05C026E8230F0296A11DB11DCF
:100C7000209372018093730190937401A093750186
:100C8000B09376018091770190917801A0917901DC
:100C9000B0917A010196A11DB11D809377019093C7
:100CA0007801A0937901B0937A01BF91AF919F91A0
:100CB0008F913F912F910F900FBE0F901F9018951D
:100CC0002FB7F89460917301709174018091750150
:100CD000909176012FBF0895789484B5826084BD89
:100CE00084B5816084BD85B5826085BD85B5816030
:100CF00085BDEEE6F0E0808181608083E1E8F0E090
:100D00001082808182608083808181608083E0E8BE
:100D1000F0E0808181608083E1EBF0E0808184609D
:100D20008083E0EBF0E0808181608083EAE7F0E09F
:100D30008081846080838081826080838081816003
:100D400080838081806880831092C1000895F89428
:100D50000C944E095058BB27AA270ED09DC166D1CE
:100D600030F06BD120F031F49F3F11F41EF45BC1E1
:100D70000EF4E095E7FB51C1E92FB0D180F3BA172B
:100D8000620773078407950718F071F49EF5C8C1D0
:100D90000EF4E0950B2EBA2FA02D0B01B901900196
:100DA0000C01CA01A0011124FF27591B99F0593FDA
:100DB00050F4503E68F11A16F040A22F232F342F22
:100DC0004427585FF3CF469537952795A795F04070
:100DD0005395C9F77EF41F16BA0B620B730B840B85
:100DE000BAF09150A1F0FF0FBB1F661F771F881F3D
:100DF000C2F70EC0BA0F621F731F841F48F4879595
:100E000077956795B795F7959E3F08F0B3CF939583
:100E1000880F08F09927EE0F979587950895D9D0F8
:100E200008F481E008950CD037C107D140F0FED01E
:100E300030F021F45F3F19F0F0C0511172C1F3C0DE
:100E40004DD198F39923C9F35523B1F3951B550B55
:100E5000BB27AA2762177307840738F09F5F5F4F8D
:100E6000220F331F441FAA1FA9F333D00E2E3AF0CE
:100E7000E0E830D091505040E695001CCAF729D0E8
:100E8000FE2F27D0660F771F881FBB1F2617370737
:100E90004807AB07B0E809F0BB0B802DBF01FF2767
:100EA00093585F4F2AF09E3F510568F0B6C039C194
:100EB0005F3FECF3983EDCF3869577956795B795A1
:100EC000F7959F5FC9F7880F911D9695879597F9BC
:100ED0000895E1E0660F771F881FBB1F6217730735
:100EE0008407BA0720F0621B730B840BBA0BEE1F4A
:100EF00088F7E095089504D06894B11112C108955F
:100F0000F5D088F09F5790F0B92F9927B751A0F0EE
:100F1000D1F0660F771F881F991F1AF0BA95C9F78D
:100F200012C0B13081F0FCD0B1E00895F9C0672F54
:100F3000782F8827B85F39F0B93FCCF3869577953D
:100F40006795B395D9F73EF4909580957095619526
:100F50007F4F8F4F9F4F0895E89409C097FB3EF451
:100F600090958095709561957F4F8F4F9F4F9923F6
:100F7000A9F0F92F96E9BB279395F6958795779574
:100F80006795B795F111F8CFFAF4BB0F11F460FF34
:100F90001BC06F5F7F4F8F4F9F4F16C0882311F08C
:100FA00096E911C0772321F09EE8872F762F05C0A0
:100FB000662371F096E8862F70E060E02AF09A953B
:100FC000660F771F881FDAF7880F9695879597F930
:100FD0000895990F0008550FAA0BE0E8FEEF1616CA
:100FE0001706E807F907C0F012161306E407F5071D
:100FF00098F0621B730B840B950B39F40A2661F091
:10100000232B242B252B21F408950A2609F4A14033
:10101000A6958FEF811D811D089597F99F6780E840
:1010200070E060E008959FEF80EC089500240A943A
:101030001616170618060906089500240A941216B3
:101040001306140605060895EECF50D0E8F3E89491
:10105000E0E0BB279F57F0F02AED3FE049EC06C0E7
:10106000EE0FBB0F661F771F881F28F0B23A62078A
:101070007307840728F0B25A620B730B840BE39555
:101080009A9572F7803830F49A95BB0F661F771FD8
:10109000881FD2F79048BAC0092E0394000C11F4AF
:1010A000882352F0BB0F40F4BF2B11F460FF04C043
:1010B0006F5F7F4F8F4F9F4F0895EF93E0FF06C004
:1010C000A2EA2AED3FE049EC5FEB56DEE5DF0F9048
:1010D000039401FC9058E8E6F0E0C9C057FD905831
:1010E000440F551F59F05F3F71F04795880F97FBEC
:1010F000991F61F09F3F79F08795089512161306A6
:101100001406551FF2CF4695F1DF08C016161706D4
:101110001806991FF1CF8695710561050894089509
:10112000E894BB2766277727CB0197F9089551DF0D
:1011300008F48FEF08950BD0AFCF78DF28F07DDF74
:1011400018F0952309F069CF6ECF1124EACFC6DFDE
:10115000A0F3959FD1F3950F50E0551F629FF001CA
:10116000729FBB27F00DB11D639FAA27F00DB11D23
:10117000AA1F649F6627B00DA11D661F829F2227AC
:10118000B00DA11D621F739FB00DA11D621F839F33
:10119000A00D611D221F749F3327A00D611D231F09
:1011A000849F600D211D822F762F6A2F11249F5757
:1011B00050408AF0E1F088234AF0EE0FFF1FBB1F7A
:1011C000661F771F881F91505040A9F79E3F510519
:1011D00070F023CFA6CF5F3FECF3983EDCF386950B
:1011E00077956795B795F795E7959F5FC1F7FE2BC4
:1011F000880F911D9695879597F908959F9325DF00
:101200000F9007FCEE5F59CF9F3F31F0915020F4D3
:10121000879577956795B795880F911D96958795D2
:1012200097F90895DF93CF931F930F93FF92EF9257
:10123000DF927B018C01689405C0DA2EEF0187DF15
:10124000FE01E894A5912591359145915591AEF314
:10125000EF0192DDFE019701A801DA9479F7DF90A2
:10126000EF90FF900F911F91CF91DF9108959F9381
:101270008F937F936F93FF93EF939B01AC015BDFA1
:10128000EF91FF91CFDF2F913F914F915F9153CF1E
:10129000EE0FFF1F0590F491E02D0994F894FFCF15
:0E12A0000AD7233C48E1FA3E00007A440100E0
:00000001FF
