:100000000C942D010C945E010C945E010C945E0125
:100010000C945E010C945E010C945E010C945E01E4
:100020000C945E010C945E010C945E010C945E01D4
:100030000C945E010C945E010C945E010C945E01C4
:100040000C945E010C945E010C945E010C945E01B4
:100050000C945E010C945E010C945E010C94B3024E
:100060000C945E010C94C9060C94B9070C945E01C3
:100070000C945E010C945E010C945E010C945E0184
:100080000C945E010C945E010C945E010C945E0174
:100090000C94FD060C94F8070C945E010C945E0120
:1000A0000C945E010C945E010C945E010C945E0154
:1000B0000C945E010C945E010C945E010C945E0144
:1000C0000C945E010C945E010C945E010C9431075B
:1000D0000C9437080C945E010C9465070C94760818
:1000E0000C945E01A503A8039B039F03DF03AC03ED
:1000F000B003B603BA03BE03C403C803CC03DF03D3
:10010000D203D603DA030C941E060C94A8030C94B5
:10011000B0030C946B020C949F030C94C4030C94D6
:1001200067060C94C8030C9447060C94DA030C94ED
:10013000DF030C94A5030C94D2030C942E060C94AC
:10014000CC030C94B6030C94BA030C9472060C9472
:10015000D6030C949B030C94AC030C94BE030C9438
:1001600098070C9436090C9416040000090A02083A
:100170000B0C0D0706030401000000000000000046
:10018000000000000000000000000000000000006F
:1001900000000000000011100F000000000000002F
:1001A000000000000000000000000000000000004F
:1001B0000102102020080810204010204080020179
:1001C000020108040201010204081020408080405E
:1001D000201008040201800402018040201008045D
:1001E00002010804020101020408102040800102FB
:1001F00004081020408005050505070508080808C3
:10020000020202020A0A08080404040401010101AE
:1002100001010101030303030303030304070707A9
:100220000C0C0C0C0C0C0C0C02020202060606064E
:10023000060606060B0B0B0B0B0B0B0B000022002C
:10024000250028002B002E003100340002010000A0
:10025000050108010B016B02360911241FBECFEF07
:10026000D1E2DEBFCDBF00E00CBF12E0A0E0B2E003
:10027000E8E2FFE100E00BBF02C007900D92A4335B
:10028000B107D9F725E0A4E3B2E001C01D92AC3379
:10029000B207E1F712E0CAE5D2E000E006C022971B
:1002A0000109FE010BBF0E948E0FC635D10780E009
:1002B0000807A9F70E9411060C94440D0C94000045
:1002C000FC01822F718360835383428361E00C942D
:1002D000E003CF93DF93EC0160E088810E94E003AC
:1002E00061E08A81DF91CF910C94E003CF93DF939B
:1002F000EC0161E088810E94E00360E08A81DF9187
:10030000CF910C94E003CF93DF93EC0160E0888100
:100310000E94E00360E08A81DF91CF910C94E003BA
:1003200040E855E260E070E08AEF92E00E94B50894
:1003300061E070E08EE392E00C94850CBC018827AC
:1003400077FD8095982F0E944B0E27EF39E64FE9F5
:100350005EE30E94FF0E20E030E04AEA52E40E9491
:10036000470D0E94180ECB01089580E00E946B0398
:10037000865791090C949E01CF92DF92EF92FF92E3
:100380008AEB9FEF90938802809387020E94B501C9
:100390007C0190938A028093890260918702709118
:1003A0008802681B790B882777FD8095982F0E941B
:1003B0004B0E609383027093840280938502909326
:1003C0008602B701882777FD8095982F0E944B0EF3
:1003D00060937B0270937C0280937D0290937E02F7
:1003E0008EE392E00E946C0A6DE072E08AEF92E088
:1003F0000E945404409177025091780260917902F2
:1004000070917A0222E030E08AEF92E00E94FF05CC
:10041000C0908302D0908402E0908502F090860222
:1004200020E030E040E251E4C701B6010E94AC0D8B
:10043000181694F020E030E040E251ECC701B6011C
:100440000E94FB0E87FD08C088E392E0FF90EF90CA
:10045000DF90CF900C94830120E030E0A901C70128
:10046000B6010E94FB0E181644F488E392E0FF9058
:10047000EF90DF90CF900C94760188E392E0FF90AC
:10048000EF90DF90CF900C9469010F931F930E941F
:10049000FD02009134021091350220913602309114
:1004A0003702601B710B820B930B6531710581055F
:1004B000910570F00E94FD02609334027093350242
:1004C00080933602909337021F910F910C94BC01D8
:1004D0001F910F910895AF92BF92CF92DF92EF924A
:1004E000FF920F931F93A0900402B0900502C0905A
:1004F0000602D0900702E0900802F09009020091F5
:100500000A0210910B021F921F92809103028F9397
:10051000809102028F93809101028F93809100025B
:100520008F932FE732E047E752E06BE772E08EE30C
:1005300092E00E94D70C0F900F900F900F900F90A9
:100540000F9029E030E044E050E063E070E088E3A1
:1005500092E01F910F91FF90EF90DF90CF90BF90AE
:10056000AF900C9460011F920F920FB60F9211245E
:100570002F933F938F939F93AF93BF9380918C0260
:1005800090918D02A0918E02B0918F0230918B02DA
:1005900023E0230F2D3720F40196A11DB11D05C0C6
:1005A00026E8230F0296A11DB11D20938B02809394
:1005B0008C0290938D02A0938E02B0938F02809153
:1005C000900290919102A0919202B09193020196B3
:1005D000A11DB11D8093900290939102A09392026D
:1005E000B0939302BF91AF919F918F913F912F91C3
:1005F0000F900FBE0F901F9018952FB7F894609131
:100600008C0270918D0280918E0290918F022FBF8B
:100610000895789484B5826084BD84B5816084BD7A
:1006200085B5826085BD85B5816085BDEEE6F0E06B
:10063000808181608083E1E8F0E0108280818260C7
:100640008083808181608083E0E8F0E08081816048
:100650008083E1EBF0E0808184608083E0EBF0E078
:10066000808181608083E1E9F0E080818260808325
:10067000808181608083E0E9F0E080818160808317
:10068000E1EAF0E080818260808380818160808304
:10069000E0EAF0E0808181608083E1E2F1E0808146
:1006A00082608083808181608083E0E2F1E08081EC
:1006B00081608083EAE7F0E08081846080838081CC
:1006C0008260808380818160808380818068808374
:1006D0001092C1000895863308F0865320917B0064
:1006E000982F9870277F922B90937B008770209192
:1006F0000C0290E4299F90011124822B80937C00AE
:1007000080917A00806480937A0080917A0086FDDF
:10071000FCCF809178002091790090E0922B089591
:1007200090E0FC013197E131F10508F048C0EE5846
:10073000FF4F0C94880F809180008F7703C08091C9
:1007400080008F7D80938000089584B58F7702C0EC
:1007500084B58F7D84BD08958091B0008F7703C0EC
:100760008091B0008F7D8093B000089580919000BB
:100770008F7707C0809190008F7D03C0809190009B
:10078000877F8093900008958091A0008F7707C0A5
:100790008091A0008F7D03C08091A000877F80930F
:1007A000A0000895809120018F7707C080912001DB
:1007B0008F7D03C080912001877F80932001089561
:1007C0000F931F93CF93DF931F92CDB7DEB7282FE0
:1007D00030E0F901E659FE4F8491F901E055FE4FF2
:1007E0001491F901EA50FE4F04910023C9F08823C7
:1007F00021F069830E9490036981E02FF0E0EE0F01
:10080000FF1FE45CFD4FA591B4919FB7F8948C91C4
:10081000611103C01095812301C0812B8C939FBF70
:100820000F90DF91CF911F910F910895CF92DF929A
:10083000EF92FF920F931F93CF93DF936C017A0196
:10084000EB01E60EF71E00E010E0CE15DF0561F0CB
:100850006991D601ED91FC910190F081E02DC601E6
:100860001995080F191FF1CFC801DF91CF911F9182
:100870000F91FF90EF90DF90CF9008956115710573
:1008800081F0DB010D900020E9F7AD0141505109E5
:10089000461B570BDC01ED91FC910280F381E02DAA
:1008A000199480E090E008950C943E04DC01ED91F1
:1008B000FC910190F081E02D19940F931F93CF9339
:1008C000DF93EC016DE00E9456048C016AE0CE01DA
:1008D0000E945604800F911FDF91CF911F910F91BD
:1008E00008958F929F92AF92BF92CF92DF92EF9234
:1008F000FF920F931F93CF93DF93CDB7DEB7A197EE
:100900000FB6F894DEBF0FBECDBF7C01C42EE52F1D
:10091000CB01D22E19A221E02D1510F02AE0D22E03
:100920008E010F5D1F4F8D2C912CA12CB12C6C2DA5
:100930007E2FA50194010E94660F8C2DD29E8019F6
:100940001124015011098A3014F4805D01C0895CC2
:10095000F8018083211531054105510521F0C22E92
:10096000E32FCA01E4CFB801C7010E943E04A1965B
:100970000FB6F894DEBF0FBECDBFDF91CF911F91B0
:100980000F91FF90EF90DF90CF90BF90AF909F902E
:100990008F900895CF92DF92EF92FF920F931F9363
:1009A000CF93DF93EC016A017B012115310579F4C6
:1009B000E881F9810190F081E02D642FDF91CF91E2
:1009C0001F910F91FF90EF90DF90CF9019942A30F4
:1009D0003105E9F477FF1AC06DE20E9456048C01DC
:1009E00044275527BA014C195D096E097F092AE091
:1009F000CE010E947104800F911FDF91CF911F9152
:100A00000F91FF90EF90DF90CF9008952AE0B7010B
:100A1000A601CE01DF91CF911F910F91FF90EF9032
:100A2000DF90CF900C9471044F925F926F927F92FF
:100A30008F929F92AF92BF92CF92DF92EF92FF92EE
:100A40000F931F93CF93DF93EC016A017B01B22ECA
:100A50009A01AB01C701B6010E94620F882319F009
:100A600066E172E027C026013701E89477F82FEF9E
:100A70003FEF4FE75FE7C301B2010E94620F8111B0
:100A80000DC02FEF3FEF4FE75FE7C301B2010E94B8
:100A9000AC0D18161CF46AE172E00CC02FEF3FEFAA
:100AA0004FE75FE4C701B6010E94FB0E1816ACF4D5
:100AB0006EE172E0CE01DF91CF911F910F91FF9017
:100AC000EF90DF90CF90BF90AF909F908F907F90EE
:100AD0006F905F904F900C943E042FEF3FEF4FE7E5
:100AE0005FECC701B6010E94AC0D87FDE1CF20E0AD
:100AF00030E0A901C701B6010E94AC0D87FF0AC012
:100B00006DE2CE010E9456048C01F7FAF094F7F8DA
:100B1000F09402C000E010E0A12C60E070E080E002
:100B20009FE3AB1441F020E030E040E251E40E944A
:100B3000B00DA394F6CF9B01AC01C701B6010E9492
:100B4000480D6B017C010E941D0E2B013C010E948F
:100B5000490E9B01AC01C701B6010E94470D6B0114
:100B60007C012AE0B301A201CE010E947104080FAA
:100B7000191FBB2039F062E272E0CE010E943E04F0
:100B8000080F191F7B2C772041F120E030E040E274
:100B900051E4C701B6010E94FF0E6B017C010E9467
:100BA000180E4B01AA2497FCA094BA2C2AE030E03E
:100BB000B501A401CE010E94CA04080F191FC50186
:100BC000B4010E944B0E9B01AC01C701B6010E940B
:100BD000470D6B017C017A94D6CFC801DF91CF918C
:100BE0001F910F91FF90EF90DF90CF90BF90AF904B
:100BF0009F908F907F906F905F904F9008950F938C
:100C00001F93CF93DF93EC010E9414058C01CE015A
:100C10000E945D04800F911FDF91CF911F910F9172
:100C200008950E9409030E949001C8E9D7E00E943C
:100C300045022097E1F30E949807F9CFFC01248533
:100C40003585F901E05CFF4F8081918132962081EA
:100C50003181821B930B8F7399270895FC01848542
:100C60009585FC01E05CFF4F4081518132962081E7
:100C700031814217530741F00190F081E02DE80FD8
:100C8000F91F808190E008958FEF9FEF0895FC0198
:100C900084859585FC01E05CFF4F4081518132964F
:100CA000208131814217530779F0A081B181A80FCB
:100CB000B91F8C91208131812F5F3F4F2F733327D4
:100CC0003183208390E008958FEF9FEF0895FC011A
:100CD00081A1882329F0A489B5898C9186FFFBCF57
:100CE00011A20895CF93DF93FC0126853785D901A2
:100CF000A05CBF4F8D919C91119701968F7399279E
:100D0000E901CE5BDF4F4881598184179507D9F3FC
:100D10000D90BC91A02DA20FB31F6C93A685B78533
:100D2000A05CBF4F11969C938E93A689B7892C9196
:100D300081E090E0078C02C0880F991F0A94E2F7C7
:100D4000282B2C9381E081A30488F589E02D8081F4
:100D50008064808381E090E0DF91CF910895FB0172
:100D6000E05CFF4F208131812F5F3F4F2F7333278E
:100D7000DB01AE5BBF4F4D915C912417350739F015
:100D8000A081B181A60FB71F8C9331832083089572
:100D900008951F920F920FB60F9211240BB60F9267
:100DA0002F933F934F935F936F937F938F939F9373
:100DB000AF93BF93EF93FF938091C00082FD07C074
:100DC0008091C60068EF74E00E94AF0602C0809177
:100DD000C600FF91EF91BF91AF919F918F917F914D
:100DE0006F915F914F913F912F910F900BBE0F909C
:100DF0000FBE0F901F90189508951F920F920FB677
:100E00000F9211240BB60F922F933F934F935F9342
:100E10006F937F938F939F93AF93BF93EF93FF93C2
:100E20008091C80082FD07C08091CE0060E774E029
:100E30000E94AF0602C08091CE00FF91EF91BF915A
:100E4000AF919F918F917F916F915F914F913F9162
:100E50002F910F900BBE0F900FBE0F901F90189503
:100E600008951F920F920FB60F9211240BB60F9296
:100E70002F933F934F935F936F937F938F939F93A2
:100E8000AF93BF93EF93FF938091D00082FD07C093
:100E90008091D60068EE73E00E94AF0602C0809198
:100EA000D600FF91EF91BF91AF919F918F917F916C
:100EB0006F915F914F913F912F910F900BBE0F90CB
:100EC0000FBE0F901F90189508951F920F920FB6A6
:100ED0000F9211240BB60F922F933F934F935F9372
:100EE0006F937F938F939F93AF93BF93EF93FF93F2
:100EF0008091300182FD07C08091360160E673E089
:100F00000E94AF0602C080913601FF91EF91BF9120
:100F1000AF919F918F917F916F915F914F913F9191
:100F20002F910F900BBE0F900FBE0F901F90189532
:100F30008AEF92E00E941E06892B11F00E94C806DB
:100F400088ED92E00E941E06892B11F00E94FC069B
:100F500086EB92E00E941E06892B11F00E9430075A
:100F600084E992E00E941E06892B11F00C9464071C
:100F700008951F920F920FB60F9211240BB60F9285
:100F80002F933F938F939F93EF93FF932091F404BC
:100F90003091F5048091F6049091F70428173907F1
:100FA00031F48091C1008F7D8093C10014C0E09125
:100FB000F604F091F704EC54FB4F20818091F60485
:100FC0009091F70401968F7399279093F70480937B
:100FD000F6042093C600FF91EF919F918F913F916E
:100FE0002F910F900BBE0F900FBE0F901F90189572
:100FF0001F920F920FB60F9211240BB60F922F93E0
:101000003F938F939F93EF93FF9320916C043091C4
:101010006D0480916E0490916F042817390731F4A4
:101020008091C9008F7D8093C90014C0E0916E0447
:10103000F0916F04E45DFB4F208180916E049091EC
:101040006F0401968F73992790936F0480936E04B9
:101050002093CE00FF91EF919F918F913F912F911F
:101060000F900BBE0F900FBE0F901F9018951F9200
:101070000F920FB60F9211240BB60F922F933F933E
:101080008F939F93EF93FF932091E4033091E503B7
:101090008091E6039091E7032817390731F4809196
:1010A000D1008F7D8093D10014C0E091E603F091D0
:1010B000E703EC55FC4F20818091E6039091E70314
:1010C00001968F7399279093E7038093E60320930B
:1010D000D600FF91EF919F918F913F912F910F90AB
:1010E0000BBE0F900FBE0F901F9018951F920F927E
:1010F0000FB60F9211240BB60F922F933F938F933D
:101100009F93EF93FF9320915C0330915D03809157
:101110005E0390915F032817390731F48091310104
:101120008F7D8093310114C0E0915E03F0915F03E5
:10113000E45EFC4F208180915E0390915F030196F5
:101140008F73992790935F0380935E0320933601FA
:10115000FF91EF919F918F913F912F910F900BBE37
:101160000F900FBE0F901F901895CF92DF92EF92C5
:10117000FF92CF93DF93EC016A017B01411581EE71
:10118000580761057105F9F0EC89FD8981E090E06F
:1011900008A002C0880F991F0A94E2F7808360E0DC
:1011A00079E08DE390E0A70196010E94660F21503F
:1011B00031094109510956954795379527952115CC
:1011C00080E1380798F0EC89FD89108260E874E8C6
:1011D0008EE190E0A70196010E94660F215031092F
:1011E000410951095695479537952795E889F98919
:1011F0003083EA89FB89208319A2EE89FF89408127
:1012000081E090E09C010C8C02C0220F331F0A94F5
:10121000E2F7422B4083EE89FF8940819C010D8CCF
:1012200002C0220F331F0A94E2F7422B4083EE895B
:10123000FF8940819C010E8C02C0220F331F0A944B
:10124000E2F7422B4083EE89FF8920810F8C02C098
:10125000880F991F0A94E2F7809582238083DF919B
:10126000CF91FF90EF90DF90CF900895CF931092A1
:10127000FD021092FC0288EE93E0A0E0B0E08093C3
:10128000FE029093FF02A0930003B093010328E2B3
:1012900032E03093FB022093FA0248EF54E050937F
:1012A00007034093060344EB54E050930903409333
:1012B000080345EC50E050930B0340930A0344ECC1
:1012C00050E050930D0340930C0340EC50E05093DA
:1012D0000F0340930E0341EC50E0509311034093F1
:1012E000100342EC50E0509313034093120346EC7A
:1012F00050E05093150340931403C4E0C0931603C9
:10130000F3E0F0931703E7E0E093180375E07093C0
:10131000190361E060931A031092DB021092DA0263
:101320008093DC029093DD02A093DE02B093DF0293
:101330003093D9022093D80240E754E05093E5025D
:101340004093E4024CE254E05093E7024093E602FB
:101350004DEC50E05093E9024093E8024CEC50E031
:101360005093EB024093EA0248EC50E05093ED02B8
:101370004093EC0249EC50E05093EF024093EE02B0
:101380004AEC50E05093F1024093F0024EEC50E0F2
:101390005093F3024093F202C093F402F093F502EB
:1013A000E093F6027093F7026093F8021092B9028C
:1013B0001092B8028093BA029093BB02A093BC0231
:1013C000B093BD023093B7022093B60248EE53E0CB
:1013D0005093C3024093C20244EA53E05093C502C3
:1013E0004093C40245ED50E05093C7024093C602BB
:1013F00044ED50E05093C9024093C80240ED50E0E4
:101400005093CB024093CA0241ED50E05093CD027D
:101410004093CC0242ED50E05093CF024093CE0275
:1014200046ED50E05093D1024093D002C093D202D7
:10143000F093D302E093D4027093D5026093D60266
:1014400010929702109296028093980290939902BC
:10145000A0939A02B0939B0230939502209394023A
:1014600080E693E09093A1028093A0028CE193E048
:101470009093A3028093A20285E391E09093A5024A
:101480008093A40284E391E09093A7028093A60244
:1014900080E391E09093A9028093A80281E391E018
:1014A0009093AB028093AA0282E391E09093AD0205
:1014B0008093AC0286E391E09093AF028093AE02FA
:1014C000C093B002F093B102E093B2027093B30202
:1014D0006093B402CF9108952F923F924F925F9202
:1014E0006F927F928F929F92AF92BF92CF92DF9234
:1014F000EF92FF920F931F93CF93DF93CDB7DEB799
:101500002B970FB6F894DEBF0FBECDBF9B878A879F
:10151000DC01D896BC91B983B11102C01982E2C036
:101520000E94FD026A837B838C839D83EA85FB8511
:1015300080A191A1A2A1B3A14A815B816C817D812F
:10154000481B590B6A0B7B0B84A595A5A6A5B7A5CF
:10155000481759076A077B0708F3028CF38DE02DC3
:1015600080809180A280B380AA85BB855E96ED9134
:10157000FC915F97A50194016081718182819381C3
:101580000E94470D2B013C01EA85FB8520893189AA
:10159000428953890E94FF0EAA85BB8594962D919E
:1015A0003D914D915C9197970E94480D6B017C0194
:1015B000EA85FB8564A375A386A397A324A835A811
:1015C00006A917A99101A8010E94FB0E18161CF488
:1015D000C101D80118C0AA85BB85D0968D919D9177
:1015E0000D90BC91A02D8E839F83A887B9879C0105
:1015F000AD01C701B6010E94AC0D87FF0AC08E8104
:101600009F81A885B985EA85FB8584A395A3A6A3B8
:10161000B7A3AA85BB851C962D913D914D915C91F8
:101620001F97C301B2010E94FF0EEA85FB8524A12A
:1016300035A146A157A10E94480D6B017C01AA85E6
:10164000BB8598962D913D914D915C919B97C501DD
:10165000B4010E94470DEA85FB85248935894689B6
:1016600057890E94FF0E9B01AC01C701B6010E9481
:10167000470D6B017C019101A8010E94FB0E181619
:10168000BCF0AA85BB85D0962C90D097D1963C9083
:10169000D197D2960C91D297D3961C919101A80123
:1016A000B601C7010E94AC0D87FD02C0160187017B
:1016B000AA85BB855C96ED91FC915D97C101D8012F
:1016C00080839183A283B383EA85FB8580A691A65C
:1016D000A2A6B3A68A819B81AC81BD8180A391A380
:1016E000A2A3B3A389812B960FB6F894DEBF0FBED9
:1016F000CDBFDF91CF911F910F91FF90EF90DF90C1
:10170000CF90BF90AF909F908F907F906F905F90A1
:101710004F903F902F9008952F923F924F925F925B
:101720006F927F928F929F92AF92BF92CF92DF92F1
:10173000EF92FF920F931F93CF93DF9300D01F92EE
:10174000CDB7DEB71C012A013B014801590120E059
:1017500030E0A901C301B2010E94AC0D87FD78C041
:1017600020E030E0A901C501B4010E94AC0D87FD65
:101770006FC020E030E0A901C701B6010E94AC0DA6
:1017800087FD66C0F1014082518262827382848249
:101790009582A682B782C086D186E286F38664A54A
:1017A00075A586A597A50E94490E20E030E04AE77E
:1017B00054E40E94B00D69837A838B839C83F1018A
:1017C00044865586668677869B01AC01C501B401C7
:1017D0000E94FF0E4B015C01F101608B718B828BCB
:1017E000938B29813A814B815C81C701B6010E94AC
:1017F000B00D6B017C01F101648B758B868B978B2F
:10180000808D918D019721F5A301920160E070E038
:10181000CB010E94470DF101648775878687978702
:10182000A501940160E070E0CB010E94470DF10139
:10183000608B718B828B938BA701960160E070E0C7
:10184000CB010E94470DF101648B758B868B978BC2
:101850000F900F900F900F90DF91CF911F910F91EC
:10186000FF90EF90DF90CF90BF90AF909F908F90C0
:101870007F906F905F904F903F902F9008958F9240
:101880009F92AF92BF92CF92DF92EF92FF92CF934F
:10189000DF93EC01EC8DFD8DC080D180E280F38080
:1018A000CCA2DDA2EEA2FFA2EA8DFB8D8081918108
:1018B000A281B38188A799A7AAA7BBA78CA89DA836
:1018C000AEA8BFA8A5019401C701B6010E94FB0EF6
:1018D000181664F088A899A8AAA8BBA8A501940125
:1018E000C701B6010E94AC0D87FF04C08CA29DA267
:1018F000AEA2BFA2DF91CF91FF90EF90DF90CF908B
:10190000BF90AF909F908F9008951F93CF93DF93D8
:10191000EC0111E06130710509F010E088AD91E053
:101920008927181303C0CE010E943F0C18AFDF9126
:10193000CF911F9108950F931F93CF93DF93EC01E5
:101940008B0188AD882361F1888D998D681779079F
:1019500039F12C853D854E855F8560E070E0CB01D7
:101960000E94470D6C877D878E879F8728893989DC
:101970004A895B8960E070E0CB010E94470D688B6B
:10198000798B8A8B9B8B2C893D894E895F8960E09E
:1019900070E0CB010E94470D6C8B7D8B8E8B9F8BF3
:1019A000198F088FDF91CF911F910F9108954F925A
:1019B0005F926F927F928F929F92AF92BF92CF92DF
:1019C000DF92EF92FF920F931F93CF93DF9300D09C
:1019D0001F92CDB7DEB74C0127013801A982BA8228
:1019E000CB82DC82FC01558F448F738F628F378FDF
:1019F000268F10AE10AA11AA12AA13AA80E090E0B6
:101A0000AFE7B3E484AB95ABA6ABB7AB84E690E0AD
:101A1000A0E0B0E084A795A7A6A7B7A76C8D7D8DA1
:101A2000C4010E949B0CC88CD98CEA8CFB8C098168
:101A30001A812B813C81B301A201C4010E948C0B4D
:101A40000E94FD02F40144A455A466A477A464197D
:101A500075098609970960A371A382A393A30F90C8
:101A60000F900F900F90DF91CF911F910F91FF90EA
:101A7000EF90DF90CF90BF90AF909F908F907F902E
:101A80006F905F904F900895F8940C94920F505877
:101A9000BB27AA270ED075C166D130F06BD120F0DC
:101AA00031F49F3F11F41EF45BC10EF4E095E7FBA7
:101AB00051C1E92F77D180F3BA1762077307840702
:101AC000950718F071F49EF58FC10EF4E0950B2E7A
:101AD000BA2FA02D0B01B90190010C01CA01A00180
:101AE0001124FF27591B99F0593F50F4503E68F1DB
:101AF0001A16F040A22F232F342F4427585FF3CF1C
:101B0000469537952795A795F0405395C9F77EF4EC
:101B10001F16BA0B620B730B840BBAF09150A1F035
:101B2000FF0FBB1F661F771F881FC2F70EC0BA0FBB
:101B3000621F731F841F48F4879577956795B79543
:101B4000F7959E3F08F0B3CF9395880F08F099273B
:101B5000EE0F979587950895D9D008F481E0089500
:101B60000CD00FC107D140F0FED030F021F45F3F20
:101B700019F0F0C0511139C1F3C014D198F3992371
:101B8000C9F35523B1F3951B550BBB27AA27621741
:101B90007307840738F09F5F5F4F220F331F441F86
:101BA000AA1FA9F333D00E2E3AF0E0E830D09150BE
:101BB0005040E695001CCAF729D0FE2F27D0660FAB
:101BC000771F881FBB1F261737074807AB07B0E8EA
:101BD00009F0BB0B802DBF01FF2793585F4F2AF000
:101BE0009E3F510568F0B6C000C15F3FECF3983EE0
:101BF000DCF3869577956795B795F7959F5FC9F75D
:101C0000880F911D9695879597F90895E1E0660FE5
:101C1000771F881FBB1F621773078407BA0720F05E
:101C2000621B730B840BBA0BEE1F88F7E0950895C7
:101C300004D06894B111D9C00895BCD088F09F57E2
:101C400090F0B92F9927B751A0F0D1F0660F771F08
:101C5000881F991F1AF0BA95C9F712C0B13081F0E8
:101C6000C3D0B1E00895C0C0672F782F8827B85F30
:101C700039F0B93FCCF3869577956795B395D9F749
:101C80003EF490958095709561957F4F8F4F9F4F53
:101C90000895E89409C097FB3EF49095809570955F
:101CA00061957F4F8F4F9F4F9923A9F0F92F96E9A8
:101CB000BB279395F695879577956795B795F1111D
:101CC000F8CFFAF4BB0F11F460FF1BC06F5F7F4FBA
:101CD0008F4F9F4F16C0882311F096E911C07723CC
:101CE00021F09EE8872F762F05C0662371F096E8D5
:101CF000862F70E060E02AF09A95660F771F881FA4
:101D0000DAF7880F9695879597F90895990F000847
:101D1000550FAA0BE0E8FEEF16161706E807F907BD
:101D2000C0F012161306E407F50798F0621B730B58
:101D3000840B950B39F40A2661F0232B242B252BD9
:101D400021F408950A2609F4A140A6958FEF811D7C
:101D5000811D089597F99F6780E870E060E008951D
:101D60009FEF80EC089500240A94161617061806B3
:101D70000906089500240A9412161306140605068F
:101D80000895092E0394000C11F4882352F0BB0F20
:101D900040F4BF2B11F460FF04C06F5F7F4F8F4F83
:101DA0009F4F089557FD9058440F551F59F05F3FBE
:101DB00071F04795880F97FB991F61F09F3F79F06D
:101DC00087950895121613061406551FF2CF4695EF
:101DD000F1DF08C0161617061806991FF1CF869571
:101DE0007105610508940895E894BB276627772755
:101DF000CB0197F908958ADF08F48FEF08950BD08F
:101E0000C0CFB1DF28F0B6DF18F0952309F0A2CFDC
:101E1000A7CF1124EACFC6DFA0F3959FD1F3950F8A
:101E200050E0551F629FF001729FBB27F00DB11D5E
:101E3000639FAA27F00DB11DAA1F649F6627B00DEE
:101E4000A11D661F829F2227B00DA11D621F739FD7
:101E5000B00DA11D621F839FA00D611D221F749FE5
:101E60003327A00D611D231F849F600D211D822F2C
:101E7000762F6A2F11249F5750408AF0E1F0882373
:101E80004AF0EE0FFF1FBB1F661F771F881F915080
:101E90005040A9F79E3F510570F05CCFA6CF5F3F41
:101EA000ECF3983EDCF3869577956795B795F795B3
:101EB000E7959F5FC1F7FE2B880F911D969587953B
:101EC00097F9089523DF880B990B0895A1E21A2E44
:101ED000AA1BBB1BFD010DC0AA1FBB1FEE1FFF1FCE
:101EE000A217B307E407F50720F0A21BB30BE40B1E
:101EF000F50B661F771F881F991F1A9469F7609565
:101F00007095809590959B01AC01BD01CF0108951E
:101F1000EE0FFF1F0590F491E02D19940790F691B4
:081F2000E02D1994F894FFCFA5
:101F28000000803F0000A04000000040014F757491
:101F38007075743A20006E616E00696E66006F7687
:101F480066002E0000000000720616041E064706F2
:041F58002E066706E4
:00000001FF
